:100000000C9456060C9473060C9473060C947306A9
:100010000C940A1C0C9473060C9473060C94341BF9
:100020000C9473060C9473060C9473060C9473066C
:100030000C9473060C9473060C9473060C9473065C
:100040000C9473060C9473060C9473060C9473064C
:100050000C94730600000507207F080100000000D3
:100060000000005F00000007000700147F147F14E9
:10007000242A7F2A1223130864623649552250002D
:1000800005030000001C2241000041221C00082A38
:100090001C2A0808083E080800503000000808081C
:1000A0000808006060000020100804023E51494525
:1000B0003E00427F400042615149462141454B315B
:1000C0001814127F1027454545393C4A49493001EB
:1000D000710905033649494936064949291E003642
:1000E0003600000056360000000814224114141493
:1000F00014144122140800020151090632497941C1
:100100003E7E1111117E7F494949363E41414122CF
:100110007F4141221C7F494949417F090901013E34
:10012000414151327F0808087F00417F4100204053
:10013000413F017F081422417F404040407F02043C
:10014000027F7F0408107F3E4141413E7F0909093B
:10015000063E4151215E7F091929464649494931E8
:1001600001017F01013F4040403F1F2040201F7F91
:100170002018207F6314081463030478040361517A
:1001800049454300007F4141020408102041417F5E
:10019000000004020102044040404040000102040B
:1001A0000020545454787F48444438384444442010
:1001B000384444487F3854545418087E09010208D2
:1001C0001454543C7F0804047800447D40002040CF
:1001D000443D00007F10284400417F40007C04180B
:1001E00004787C0804047838444444387C1414149B
:1001F00008081414187C7C0804040848545454203B
:10020000043F4440203C4040207C1C2040201C3CBB
:100210004030403C44281028440C5050503C44642A
:10022000544C44000836410000007F000000413675
:10023000080008082A1C08081C2A080800000F1FCC
:100240002A1108010000000000000000000000006A
:10025000000000000000000000000000000000009E
:10026000000000000000000000000000000000008E
:10027000000000000000000000000000000000007E
:10028000000000000000000000000000000000C0AE
:10029000C0C0C0C0C0FCFCFCFCC0C0C0C0C00000EE
:1002A000000000000F0F0F0F000000000000000012
:1002B000000000000000000000000000000000003E
:1002C000000000000000000000000000000000002E
:1002D000000000000000000000000000000000001E
:1002E000000000000000000000000000000000CF3F
:1002F000CF3F3F00000000000000000000000000B1
:1003000000000000000000C0C0C0C0C0C0C0C0C02D
:10031000C0C0C0C0C0C0000000000000000000005D
:1003200000000000000000000000000000000000CD
:1003300000000000000000000000000000000000BD
:1003400000000000000000000000000000000000AD
:10035000000000000000000000000000000000009D
:10036000000000000000000F0F0F0F000000000051
:1003700000000000000000000000F0F0FFFF0F0090
:100380000000000000F0F0FFFF0F0F000000000071
:10039000F0F0FFFF0F0F00000000000000000F0F43
:1003A0000F0000000000000000000000F0F0FCFC66
:1003B0000F0F030303CFCFFCFCF0F0FFFFFFFF00A4
:1003C00000C0C03C3F03FFFFFFFFFFFFFFFF3C3CBF
:1003D0000303000000FFFFFFFF000003030F0F0CEB
:1003E0000C0C0F0F03030000303030303C3CFFFF9B
:1003F000FFFF0000000000000000000000FFFFFF02
:10040000FF0000000000000000000000FFFFFFFFF1
:1004100000000000000C0C0C0C0C0C0F0F0F0F0C4C
:100420000C0C0C0CF0F0FCFC0F0F030303030FFF8C
:10043000FCFCF00000000000000000C0C0F0FF3F26
:100440003F0FC0C0F0F03C3C0F0F03030000000062
:10045000000F0F0F0F0C0C0C0C0C0C0C0C0C0C0CDC
:10046000F0F0FCFC0F0F030303030F1FFCFCF00074
:100470000000003030303030303030FFDF8FF0F0AF
:10048000F0F00000000000000080FFFFFF0000030C
:10049000030F0F0C0C0C0C0F0F03030000000000E7
:1004A000F0F0FFFF0F0F00000000000000FCFCFF59
:1004B000FF0303C0C0C0C0000000FFFFFFFFC0C0BB
:1004C000C0C0FFFFFFFFC0C0C00000000000000070
:1004D000000F0F0F0F000000FFFFFFFF03030303D8
:1004E000030303030303030F0F0F0F0C0C0C0C0C7F
:1004F0000C3CFCF0F0C0F0F0F0F000000000000058
:1005000000FFFFFFFF000003030F0F0C0C0C0C0F8C
:100510000F0303000000C0C0F0F03C3C0F0F0303CA
:10052000030303FCFCFFFF333330303030F0F0C006
:10053000C000FFFFFFFF00000000000000FFFFFF02
:10054000FF000003030F0F0C0C0C0C0F0F03030034
:100550000303030303030303030303FFFFFFFF007E
:10056000000000000000C0C0FFFF3F3F000000008F
:10057000000000F0F0FFFF0F0F000000000000007F
:1005800000000F0F0F0F000000000000F0F0FCFC57
:100590000F0F0303030F0FFCFCF0F00303CFCFFC9E
:1005A000FC303030FCFCCFCF0303FFFFFFFF000027
:1005B0000000000000FFFFFFFF000003030F0F0C0F
:1005C0000C0C0F0F03030000E0F0FCFC0F0F030303
:1005D000030F0FFCFCF0E0070F3F3FF0F0C0C0C07E
:1005E000C0C0FFFFFFFF0000000000000000C0C00F
:1005F000FCFC3F3F030C0C0C0C0C0C0F0F03030016
:1006000000000000000000000000000000000000EA
:100610000000000000000000003C3C3C3C000000EA
:1006200000000000000000000000000000000000CA
:10063000000000000000000F0F0F0F00000000007E
:1006400030860A0F206068000003070B090E0B03B9
:100650000505060903050304080608080908080833
:1006600008080303090809080C0C09090909080A04
:100670000A03090C080C0A0A090A0A090B0A0C10D9
:100680000C0B0905040508080309090909090609ED
:100690000903040A030D0909090906080609090FD7
:1006A0000B090706020609080000000000001E1ED4
:1006B0001E001E1E1E000000000000003030F0FE74
:1006C0003E3030F0FE3E30061E1F0706061E1F0796
:1006D0000606387CFEE6FFC6CE8C0C040C1C183FC8
:1006E000191F0F073C7E42427E3C8060108C828046
:1006F0008000000000100C0201000F1F10101F0FDF
:1007000000809CFEFEE6BE3E9C8080070F1F1918ED
:10071000191F0F0F1F1D1E1E1E000000E0F8FC1EFB
:10072000020F3F7FF080021EFCF8E080F07F3F0F59
:1007300008683E3E6808000000000000C0C0C0F825
:10074000F8F8C0C0C00101010F0F0F010101000046
:1007500000DC7C3C80808080800303030303000076
:10076000001C1C1C0080780618070000F8FCFE0620
:1007700006FEFCF8070F1F18181F0F07607038FEE1
:10078000FEFE0000001F1F1F181C1E0686FEFC78C0
:10079000181C1E1F1B191818081C1EC6C6FEFC3884
:1007A000060E1E18181F0F0780C0F0381CFEFEFE34
:1007B0000003030303031F1F1F03F0FEFE6666E62C
:1007C000C686060E1E18181F0F07F0FCFE4666EEC2
:1007D000CE8C030F1F18181F0F0706060686E6F6B5
:1007E0001E0600001C1F1F01000038FCFEC6C6FECE
:1007F000FC38070F1F18181F0F0778FCFE8686FEAF
:10080000FCF0040C1D19181F0F037070701C1C1CC9
:10081000707070DC7C3CE0E0E0F0707070383803A1
:100820000303070707070E0E70707070707070700A
:1008300007070707070707073838707070F0E0E010
:10084000E00E0E07070707030303181C9EC6E6FE0B
:100850007C3800001D1D1D000000E018C4F43A0A99
:100860000AF2FA7C08F00718272F48484C4F4F2807
:1008700036110080E0F8FE1EFEF8E08000001C1F2C
:100880000F07060606070F1F1C10FEFEFEC6C6FE5B
:10089000BC98001F1F1F1818181F0F07F0FCFC0E34
:1008A000060E1E1C08030F1F1C181C1F0E06FEFE42
:1008B000FE06060EFEFCF01F1F1F18181C1F0F035C
:1008C000FEFEFEC6C6C6C6C6061F1F1F181818188D
:1008D0001818FEFEFEC6C6C6C6061F1F1F00000073
:1008E0000000F0FCFC0E06C6CEDEDCC8030F0F1CB9
:1008F00018181C1F0F0FFEFEFEC0C0C0C0FEFEFE7B
:100900001F1F1F000000001F1F1FFEFEFE1F1F1FD6
:10091000000000000000FEFEFE060F1F1C18181F3E
:100920000F07FEFEFEC0E0F0F8DC0E0602001F1FFF
:100930001F00000001071F1E1810FEFEFE00000031
:1009400000001F1F1F1818181818FEFEFE3EF88022
:1009500080F83EFEFEFE1F1F1F00031F1F03001F27
:100960001F1FFEFEFE7CF0E080FEFEFE1F1F1F002C
:1009700001030F1F1F1FF0FCFC0E06060EFCFCF00F
:10098000030F0F1C18181C0F0F03FEFEFEC6C6C671
:10099000FE7E3C1F1F1F000000000000F0FCFC0E4C
:1009A00006060EFCFCF0030F0F1C181E1C1F1F3345
:1009B000FEFEFEC6C6C6FE7E3C001F1F1F000003D3
:1009C0000F1F1C10387CFEE6E6EEDEDC98060E1EDD
:1009D0001C18191F0F0706060606FEFEFE06060671
:1009E00006000000001F1F1F00000000FEFEFE00AA
:1009F000000000FEFEFE070F1F1C18181C1F0F072B
:100A00001EFEFCF0800080F0FCFE1E020000031FB2
:100A10001F1C1F1F03000000FEFEF80080F8FE3EB2
:100A2000FEF88000F8FEFE06000F1F1F1F070100E2
:100A300001071F1F1F0F0000061E3CF8F0E0F0F832
:100A40003C1E0602181E0F07030103070F1E181095
:100A5000020E1E7EF8E0F87E1E0E02000000001F4F
:100A60001F1F00000000000606C6E6F63E1E0E1C14
:100A70001E1F1B1918181818FEFEFE0606FFFFFFA2
:100A8000C0C006788000000007180606FEFEFEC003
:100A9000C0FFFFFF40707C1E1E7C70400000000005
:100AA0000000000000000000000000004040404046
:100AB0004040404002060400000040607030B0B08A
:100AC000F0F0E00E1F1F1B19091F1F1FFEFEFE6026
:100AD0003030F0E0C01F1F1F0C18181F0F07C0E0B8
:100AE000F0703030706040070F1F1C18181C0C0489
:100AF000C0E0F0303060FEFEFE070F1F18180C1F1C
:100B00001F1FC0E0F0B0B0B0F0E0C0070F1F1D190C
:100B1000191D0D0530FCFEFE3636001F1F1F00009C
:100B2000C0E0F0303060F0F0F047CFDFD8D8CCFF35
:100B30007F3FFEFEFE203030F0F0E01F1F1F000060
:100B4000001F1F1FF6F6F61F1F1F00F6F6F6C0FF68
:100B5000FF7FFEFEFEC0E0F0F03010001F1F1F03FD
:100B600001071F1E1C10FEFEFE1F1F1FF0F0F020CD
:100B700030F0F0E02030F0F0E01F1F1F00001F1FDA
:100B80001F00001F1F1FF0F0F0203030F0F0E01FBA
:100B90001F1F0000001F1F1FC0E0F0703070F0E04A
:100BA000C0070F1F1C181C1F0F07F0F0F0603070FB
:100BB000F0E0C0FFFFFF0C18181F0F07C0E0F03077
:100BC0003060F0F0F0070F1F18180CFFFFFFF0F077
:100BD000F02030101F1F1F000000E0F0F09090B0D8
:100BE000302008191B13131F1F0E30FCFCFE303081
:100BF000000F1F1F1818F0F0F0000000F0F0F00FC9
:100C00001F1F1818081F1F1F10F0F0C000E0F0F0A1
:100C1000100000071F1C1F07000010F0F0E000008C
:100C2000F0F0F00000E0F0F0100000071F1E0F03CE
:100C300000030F1E1F070000103070E0C080C0E0EE
:100C400070301010181E0F0703070F1E181010F039
:100C5000F0C000C0F0F030C0C0C7FFFC3F0F010083
:100C6000303030F0F0F0301C1E1F1B191818000037
:100C7000FCFEFE0603037FFFFCC0FEFEFFFF06FE38
:100C8000FEFC0000C0FCFF7F0303C0E0E0E0E0C02A
:100C9000C0C0E0010000000101010100F8080808DF
:100CA000080808F81F1010101010101F11241FBE84
:100CB000CFE5D8E0DEBFCDBF12E0A0E6B0E0E4E7CC
:100CC000FFE302C005900D92A232B107D9F723E0ED
:100CD000A2E2B2E001C01D92A832B207E1F70E9481
:100CE000B01A0C94B81F0C940000E0E6F0E021E389
:100CF00020839EE2918380E3828393838483858330
:100D000086838783808791872287238782E38487EE
:100D100085879687878785E3808B818B128ACF01B1
:100D20000895FC01DC015C969C01285E3F4F8FEF2B
:100D300080831D921182128213821482158236964C
:100D4000E217F307A9F780E00895FC01628F438F53
:100D5000808D918D84319105B8F4643088F4DF0181
:100D6000A60FB11D5C962C91253008F048C0442395
:100D700049F038C0DF01A20FB31F5C961C9217C068
:100D800082E0089584E00895262F30E0D901AA0F6B
:100D9000BB1FA20FB31FAA0FBB1FAE0FBF1F6C93C9
:100DA000DF01A20FB31F5C965C91553018F7DF018D
:100DB000A20FB31F5C965C915C970196918F808F18
:100DC00081E0850F5C968C93C901880F991F820F73
:100DD000931F880F991FE80FF91FE50FF11D41833D
:100DE00080E00895262F30E0D901AA0FBB1FA20F83
:100DF000B31FAA0FBB1FAE0FBF1F6C93D8CF262FF8
:100E000030E0D901AA0FBB1FA20FB31FAA0FBB1F4F
:100E1000AE0FBF1F6C93AECFAF92BF92CF92DF9257
:100E2000EF92FF920F931F93CF93DF9300D0CDB734
:100E3000DEB71A821982E2E2F2E02DE0DF011D92B4
:100E40002A95E9F72FE43BE6318320831282A62E10
:100E5000B12CF501EE0FFF1FEA0DFB1DEE0FFF1F7A
:100E6000E80FF91F20812F3F09F46BC07C014AE095
:100E7000BE016F5F7F4FC5010E943C1F02E212E07E
:100E80008CE390E0F80191838083BE016F5F7F4F18
:100E9000C8010E942A1FF80101900020E9F731974C
:100EA00083E290E09183808390E06701CA0CDB1CB1
:100EB000FCE1CF0ED11C8501000F111FA00EB11E49
:100EC000AA0CBB1C87010A0D1B1D0F2EFCE2AF2EC6
:100ED000B12CF02D28C0FF24F394F90EF801E90F8E
:100EE000F11D81814AE0BE016F5F7F4F90E00E945B
:100EF0003C1FBE016F5F7F4F82E292E00E942A1F7B
:100F0000F801EF0DF11D8181882361F0D6018C91EC
:100F1000F81640F4E2E2F2E001900020E9F73197A0
:100F2000B182A0829F2DF60180819817A0F2E2E2A3
:100F3000F2E001900020E9F731978EE390E0918391
:100F4000808382E292E00F900F90DF91CF911F910A
:100F50000F91FF90EF90DF90CF90BF90AF900895EA
:100F6000EF92FF920F931F93CF93DF93C62F7A01D7
:100F7000122F0E94EA0C8C2F0E94F60C882331F06D
:100F800042E063E089E792E00E94A5061123B1F0F8
:100F9000E7011150012F10E00F5F1F4F0E0D1F1DB5
:100FA00089910E94F60C882331F043E063E089E7E1
:100FB00092E00E94A506C017D10791F70E94110D7B
:100FC00080E0DF91CF911F910F91FF90EF900895F6
:100FD000DF92EF92FF920F931F93CF93DF93C82F6F
:100FE000D62F7A01D22E0E94EA0C8D2F0E94F60C89
:100FF000882331F042E063E089E792E00E94A50691
:101000000E94110D81E0D81208C08C0F0E94EA0CDA
:101010000E940A0DF70180831BC081E08C0F0E94A3
:10102000EA0CDD2071F0E7010FEF0D0D10E00F5F0E
:101030001F4F0E0D1F1D0E94030D8993C017D1076E
:10104000D1F7D394E701CD0DD11D0E940A0D8883FD
:101050000E94110D80E0DF91CF911F910F91FF90C1
:10106000EF90DF900895AB01BC014115510561057A
:10107000710589F080E090E0DC01EFECF7E031975A
:10108000F1F700C000000196A11DB11D48175907D6
:101090006A077B0791F70895E9E9F2E080EB97E0B2
:1010A00091A780A788EE97E093A782A78EEE828F04
:1010B00083E398E095A784A780E00895CF93DF931A
:1010C000CDB7DEB766970FB6F894DEBF0FBECDBFC3
:1010D000AE014F5F5F4F86E1FA0111928A95E9F701
:1010E000A0912F02B09130029A96ED91FC919B97BE
:1010F00026E16AEA5A968C910995E0912F02F091C7
:1011000030024981042E000C550B660B770B762FAD
:10111000652F542F44272A8130E0422B532B5183D3
:1011200040834B81042E000C550B660B770B762FFA
:10113000652F542F44272C8130E0422B532B5383AF
:1011400042834D81042E000C550B660B770B762FD6
:10115000652F542F44272E8130E0422B532B55838B
:1011600044832F8130E0322F22279885292B378323
:101170002683298530E0322F22279A85292B318733
:1011800020872B8530E0322F22279C85292B33871F
:1011900022874D85042E000C550B660B770B762F9E
:1011A000652F542F44272E8530E0422B532B558733
:1011B00044874F85042E000C550B660B770B762F5A
:1011C000652F542F4427288930E0422B532B578713
:1011D00046874989042E000C550B660B770B762F3A
:1011E000652F542F44272A8930E0422B532B518BF3
:1011F000408B4B89042E000C550B660B770B762F1A
:10120000652F542F44272C8930E0422B532B538BCE
:10121000428B4D89042E000C550B660B770B762FF5
:10122000652F542F44272E8930E0422B532B558BAA
:10123000448B66960FB6F894DEBF0FBECDBFDF912C
:10124000CF9108950F931F93CF93DF931F92CDB744
:10125000DEB78C010E944C08198210933002009373
:101260002F02D8019A96ED91FC919B9721E0AE0157
:101270004F5F5F4F60ED5A968C910995182FA091A2
:101280002F02B0913002898157968C93579741E095
:1012900050E060E070E090964D935D936D937C9389
:1012A000939795961C921E92949797961C921E92D5
:1012B00096979A96ED91FC919B9721E0AE014F5F36
:1012C0005F4F61ED5A968C910995180FE0912F02AE
:1012D000F09130029981892F8F70808F92959F7045
:1012E000918F0E945E08810F0F90DF91CF911F9127
:1012F0000F910895CF92DF92EF92FF920F931F9379
:10130000CF93DF93C0912F02D09130022A853B8585
:101310007B018C01E21AF30A01091109A801970166
:10132000A885B9850E94C51E6B017C010B2EBFE00C
:10133000F594E794D794C794BA95D1F7B02DC1141A
:10134000D104E104F10421F48C899D890097A9F16D
:101350006A897B89CB01770FAA0BBB0BBC01CD013E
:10136000052E5BE0660F771F881F991F5A95D1F7EE
:10137000502D2C893D898901330F220B330BA90194
:1013800098012C0D3D1D4E1D5F1D0E94971EC20E23
:10139000D31EE41EF51ECC8EDD8EEE8EFF8E08E091
:1013A000C00ED11CE11CF11C689413F8F594E7946D
:1013B000D794C7941694D1F7C601DF91CF911F91AE
:1013C0000F91FF90EF90DF90CF9008953F924F9252
:1013D0005F926F927F928F929F92AF92BF92CF92C5
:1013E000DF92EF92FF920F931F93CF93DF93CDB7CE
:1013F000DEB72A970FB6F894DEBF0FBECDBF6D8360
:101400007E838F83988700912F0210913002D8013C
:101410005C96CD90DD90ED90FC905F97B0EACB1A92
:10142000BFE0DB0AE108F108A7019601C701B60198
:101430000E94651E2B013C01032E3CE075946794CD
:10144000579447943A95D1F7302DF801A685B78582
:10145000A30192010E94D01E69837A838B839C83AF
:10146000A281B381A70196010E94D01E4B015C01AD
:1014700034A0A481B5810E94D01E6B017C010B2E8B
:10148000BDE0F594E794D794C794BA95D1F7B02D01
:10149000A485B585A30192010E94D01EBB2797FDAC
:1014A000B095AB2F8C0D9D1DAE1DBF1D0296A11DCD
:1014B000B11DB595A79597958795B595A7959795DE
:1014C00087959C01AD0130584F4F5F4FA681B78182
:1014D0000E94C51E6B017C010B2EBFE0F694E794C1
:1014E000D794C794BA95D1F7B02D89819A81AB81F1
:1014F000BC81072E7BE0B595A795979587957A9542
:10150000D1F7702D072E7BE0B594A794979487941C
:101510007A95D1F7702D880E991EAA1EBB1E808168
:101520009181092E000CAA0BBB0B880F991FAA1FD3
:10153000BB1F880F991FAA1FBB1F880E991EAA1ECA
:10154000BB1E032C04C0880C991CAA1CBB1C0A944B
:10155000D2F7F2E08F0E911CA11CB11CB594A79498
:1015600097948794B594A794979487942D813E81FE
:101570004F815885281939094A095B0980E593ECA0
:10158000A0E0B0E0BC01CD0104C0959587957795AA
:1015900067953A94D2F70E94651E99238CF0C11486
:1015A000D104E104F10409F453C0660F771F881FCA
:1015B000991FA70196010E94751E49015A0110C08A
:1015C000C114D104E104F10409F446C0A701960155
:1015D0000E94751E49015A01880C991CAA1CBB1C4B
:1015E0009927B7FC9A958B2D7A2D692D9B01AC011B
:1015F0000E94651E9B01AC01AEEDBBE00E94C51EC2
:101600006B017C01A3E4B3EEA50194010E94D31EFB
:10161000BB2797FDB095AB2F6701FF24D7FCF09453
:10162000EF2C8C0D9D1DAE1DBF1D8153914FAF4FF3
:10163000BF4F689413F8B595A7959795879516941D
:10164000D1F7BC01CD01680D791D8A1D9B1D07C016
:1016500060E070E0CB0103C060E070E0CB012A964F
:101660000FB6F894DEBF0FBECDBFDF91CF911F91B3
:101670000F91FF90EF90DF90CF90BF90AF909F9031
:101680008F907F906F905F904F903F900895CF9391
:10169000DF9300D01F92CDB7DEB719821A828EE297
:1016A0008B83A0912F02B09130029896ED91FC911E
:1016B000999721E0AE014D5F5F4F64EF5A968C9190
:1016C0000995E0912F02F091300204A4F5A5E02DD8
:1016D00065E070E080E090E00995A0912F02B09164
:1016E00030029A96ED91FC919B9722E0AE014F5FFC
:1016F0005F4F66EF5A968C9109958981082E000CF0
:10170000990BAA0BBB0BBA2FA92F982F88272A81D8
:1017100030E0822B932B0F900F900F90DF91CF91A1
:1017200008954F925F926F927F928F929F92AF92A5
:10173000BF92CF92DF92EF92FF920F931F93CF93BE
:10174000DF9300D000D0CDB7DEB719821A821B829A
:101750001C82A0912F02B091300296968D919C919F
:1017600097978130910509F093C094968D919C9143
:101770009597039709F0F3C013E0C12CD12C7601A3
:101780000F2EF3E08F2E912CF02D6894AA24A3F84D
:10179000B12C412C512C32014394A0912F02B091D5
:1017A000300294968C9194978295880F880F807C54
:1017B0008C5C8C839896ED91FC91999721E0AE0119
:1017C0004C5F5F4F64EF5A968C910995E0912F0220
:1017D000F0913002B40104A002C0660F771F0A9492
:1017E000E2F76E5F7F4F072E000C880B990B04A465
:1017F000F5A5E02D0995A0912F02B09130029A969F
:10180000ED91FC919B9723E0AE014F5F5F4F66EF38
:101810005A968C910995E0912F02F091300229811E
:101820008A8190E0A0E0B0E0BA2FA92F982F8827F6
:10183000A22B2B81822B24A135A1A501421B530B86
:1018400004C0B695A795979587954A95D2F740A27B
:1018500051A262A273A2C80ED91EEA1EFB1E11502D
:1018600009F09BCFC701B6012BEA3AEA4AEA5AEAE5
:101870000E94D81E00E20E94051F822E932EA42EE5
:10188000B52EC501B40196958795779567956EC07D
:10189000892B09F068C094968C9194978295880F53
:1018A000880F807C8C5C8C839896ED91FC91999745
:1018B00021E0AE014C5F5F4F64EF5A968C91099521
:1018C000E0912F02F091300263E070E004A002C0CA
:1018D000660F771F0A94E2F76E5F7F4F072E000CAA
:1018E000880B990B04A4F5A5E02D0995A0912F0272
:1018F000B09130029A96ED91FC919B9723E0AE0156
:101900004F5F5F4F66EF5A968C910995E0912F02D9
:10191000F091300229816A81862F90E0A0E0B0E04A
:10192000BA2FA92F982F8827A22B2B81822B44A175
:1019300055A128E030E0241B350BBC01CD0104C0CB
:1019400096958795779567952A95D2F7C12CD12CD6
:101950007601C394C0A2D1A2E2A2F3A207C060E0C4
:1019600070E0CB0103C060E070E0CB010F900F90FE
:101970000F900F90DF91CF911F910F91FF90EF90FB
:10198000DF90CF90BF90AF909F908F907F906F909F
:101990005F904F90089510B8089516BE94EA96BFD0
:1019A00006B607FEFDCF91B1987F983079F483B9E0
:1019B00084E886BF06B607FEFDCF91B1987F9831C7
:1019C00039F081E0903429F480E0089581E00895B1
:1019D00080E00895CF93C82F8C2F0E94CD0C8111E9
:1019E000FBCFCF9108950E94CD0C089583B984E870
:1019F00086BF06B607FEFDCF91B1987F81E0983291
:101A000009F480E0089584EC86BF06B607FEFDCF9A
:101A100083B1089584E886BF06B607FEFDCF83B183
:101A2000089584E986BF0895982F92959F70990F25
:101A3000292F220F220F920F8F70890F0895DF92A6
:101A4000EF92FF920F931F93CF93DF937C01162F9A
:101A500082EA0E94CD0C882331F041E061E089E701
:101A600092E00E94A506F70180810E94F60C88236F
:101A700031F042E061E089E792E00E94A50683EA46
:101A80000E94F30CD82E811105C0112311F11130E1
:101A900089F40BC041E061E089E792E00E94A5066D
:101AA0000E94110DDD24D3941AC00E940A0DF70183
:101AB000808315C0E7011150612F70E06F5F7F4F89
:101AC000E60EF71E87010E94030D8993C017D10708
:101AD000D1F70E940A0DF70180830E94110D8D2D10
:101AE000DF91CF911F910F91FF90EF90DF900895BC
:101AF0000F931F93CF93DF938C01D62F82EA0E941E
:101B0000EA0CDD2319F1D13079F4F80180810E94CB
:101B1000F60C882331F043E061E089E792E00E940F
:101B2000A5060E94110D18C0C1E001C0CF5FF801E9
:101B300081918F010E94F60C882359F043E061E007
:101B400089E792E00E94A506CD1780F30E94110D4F
:101B500003C0CD1758F3FACF80E0DF91CF911F91EA
:101B60000F910895E1E3F2E092E090839DEC499FAC
:101B7000212D112426952695269530E1239FD0010D
:101B80001124220F322F330F330F230F421B4A2B06
:101B90004183699F212D112426952695269530E1B4
:101BA000239FA0011124220F322F330F330F230F55
:101BB000621B642B6283899F912D112496959695C3
:101BC000969540E1949F90011124990F392F330F7E
:101BD000330F930F891B822B83836BE0CF010E940D
:101BE000780D08950F931F93CF93DF93EC0101E3DA
:101BF00012E082E0D8018C936BE0C8010E941F0DB7
:101C0000D801EC91E88311967C9111977983129613
:101C10006C9112976A8313965C9113975C83149668
:101C20003C9114973D8315964C9115974B831696CE
:101C30008C91169790E09F838E8317962C9117971F
:101C4000288718969C911897998719968C911997BF
:101C50008A871A96FC91EF77E8837F7779836F7391
:101C60006A835F735C834F714B8337703D832F773B
:101C700028879F7799878F778A878F2F8F778B8792
:101C8000DF91CF911F910F9108956623D1F0FC0150
:101C90006150262F30E02F5F3F4FAC01420F531FA2
:101CA00080E021E39191892798E088231CF4880F34
:101CB000822701C0880F9150C1F7E417F50791F70B
:101CC000089580E00895DF92EF92FF920F931F93A3
:101CD000CF93DF937C01162F80E80E94EA0CF70176
:101CE00080810E94F60C882331F042E062E089E7AF
:101CF00092E00E94A50681E80E94F30CD82E811183
:101D000005C0112311F1113089F40BC041E062E0EC
:101D100089E792E00E94A5060E94110DDD24D3946C
:101D20001AC00E940A0DF701808315C0E701115007
:101D3000612F70E06F5F7F4FE60EF71E87010E94F4
:101D4000030D8993C017D107D1F70E940A0DF7013F
:101D500080830E94110D8D2DDF91CF911F910F91E6
:101D6000FF90EF90DF9008950F931F93CF93DF9331
:101D70008C01D62F80E80E94EA0CDD2319F1D130C6
:101D800079F4F80180810E94F60C882331F043E059
:101D900062E089E792E00E94A5060E94110D18C03A
:101DA000C1E001C0CF5FF80181918F010E94F60C64
:101DB000882359F043E062E089E792E00E94A5069B
:101DC000CD1780F30E94110D03C0CD1758F3FACF41
:101DD00080E0DF91CF911F910F910895DF92EF92F4
:101DE000FF920F931F93CF93DF9300D000D01F92E9
:101DF000CDB7DEB77C018B018EEF898361E0CE0128
:101E000001960E94B40E87EE898362E0CE010196AE
:101E10000E94630EDA8061E0CE0101960E94450EB9
:101E2000D81209C086EE8C8389818D8362E0CE0151
:101E300004960E94B40E83EE898363E0CE0101967E
:101E40000E94630EDB8062E0CE0101960E94450E87
:101E5000D81224C06981862F90E0A0E0B0E0BA2FAC
:101E6000A92F982F88272A81820F911DA11DB11DAE
:101E7000BC01CD016C7F0E946A1D22E538EB4FE268
:101E80005BE30E94F81D26E636E64BE352E40E942F
:101E9000C71C0E94341DF7017183608385EE89831E
:101EA00063E0CE0101960E94630EFB8062E0CE01EA
:101EB00001960E94450EF81224C06981862F90E099
:101EC000A0E0B0E0BA2FA92F982F88272A81820F8F
:101ED000911DA11DB11DBC01CD016C7F0E946A1D29
:101EE00020E030E04AEF5AE30E94F81D20E030E0A5
:101EF00040EC50E40E94C81C0E943B1DF801718315
:101F0000608380E00F900F900F900F900F90DF9103
:101F1000CF911F910F91FF90EF90DF900895DF9286
:101F2000EF92FF920F931F93CF93DF938C01D62FE5
:101F3000F89488E70E94CD0CD82E811106C0DD23CD
:101F400009F44BC0D13051F510C080913D02816041
:101F500080933D02E7ECF2E080818F5F80830E94F6
:101F6000110D7894DD24D3943FC0F80180810E9444
:101F7000F60C811103C010923C020CC010923C027E
:101F800080913D02886080933D02E7ECF2E083811E
:101F90008F5F83830E94110D789426C0C1E00F2EBD
:101FA000F7ECEF2EF2E0FF2EF02D01C0CF5FF8012D
:101FB00081918F010E94F60C80933C02882389F066
:101FC00010923C0280913D02886080933D02F701AF
:101FD00083818F5F8383CD1748F30E94110D78941E
:101FE00003C0CD1718F3F9CF8D2DDF91CF911F913D
:101FF0000F91FF90EF90DF900895EEE3F2E01082F2
:10200000818362E0CF010E948F0F0895EEE3F2E03A
:1020100090E49083818362E0CF010E948F0F089546
:102020000F931F93CF93DF93C8EDD0E004EF10E040
:1020300089910E94FD0FC017D107D1F7DF91CF9191
:102040001F910F910895CF93DF93D82FC62F80E073
:102050000E94FD0F80EB8D0F0E94FD0F8C2F82954B
:102060008F7080610E94FD0F8C2F8F700E94FD0F7A
:10207000DF91CF910895CF93DF93D0E060E08D2F73
:102080000E942310C0E080E00E940610CF5FC0389D
:10209000D1F7DF5FD83091F7DF91CF91089590931A
:1020A000CF028093CE0208958F929F92BF92CF92DB
:1020B000DF92EF92FF920F931F93CF93DF93B42E93
:1020C000C091CE02D091CF02A82FB0E0FE0134968D
:1020D0008491A81BB109FE01EA0FFB1F38963491C9
:1020E000FE013696449150E031968491813001F59D
:1020F000CD0101970AF4DAC03497E491E695E695AC
:10210000E695F0E08F010F5F1F4FDE011296FD0193
:102110002491209FD001219FB00D112420E04A0F6F
:102120005B1F2F5FE22FF0E08E179F07C4F7BEC042
:102130008111CAC011970AF4C7C020E0FE01E20F66
:10214000F11D3896849190E0880F991F480F591F10
:102150002F5F822F90E0A817B90784F7B5C0C62E6D
:10216000C694C694C6946B2D8C2D0E942310E091CA
:10217000CE02F091CF0233962491822F86958695D8
:10218000869590E000E010E0D12CC0E0D0E00F2E6A
:10219000FBECEF2EF2E0FF2EF02D4C01FFEF8F1A3B
:1021A0009F0A8016910669F0D70112962C91209F04
:1021B000C001219F900D1124C817D90708F441C010
:1021C00059C0293088F32091CD02289DC001299D56
:1021D000900D1124C817D90708F07CC08401000FA6
:1021E000111F000F111F000F111F0F2EFBECEF2E00
:1021F000F2E0FF2EF02DF701238134810190F08170
:10220000E02DE20FF31FEC0FFD1F8491F9013396CF
:1022100094919801291B31092150310901C0880F7F
:102220002A95EAF70E9406102196D70112962C9162
:10223000289DC001299D900D1124C817D907D8F2F7
:1022400049C0D7011396ED91FC9114978D919C9103
:10225000E80FF91FEC0FFD1F84910E9406102196D4
:10226000F7012281209FC001219F900D1124C817E2
:10227000D90738F36B2D8C2D8D0D0E942310D3942C
:102280000D2D10E0D7011396ED91FC911497339624
:102290002491822F86958695869590E0AC014E5FBD
:1022A0005F4F041715070CF478CF14C0ABECB2E005
:1022B00011965C934E9312963C931297FE013296C0
:1022C000849112968C934BCFEBECF2E051834083D8
:1022D000328345CFDF91CF911F910F91FF90EF9007
:1022E000DF90CF90BF909F908F900895CF92DF9214
:1022F000EF92FF920F931F93CF93DF93FC018081A6
:102300008823F1F0C42ED62E8F010F5F1F4FC0E03F
:10231000D0E00F2EFBECEF2EF2E0FF2EF02D4C2F35
:102320004C0D6D2D0E945410F701228130E02F5F7B
:102330003F4FC20FD31FF80181918F018111EFCF61
:10234000DF91CF911F910F91FF90EF90DF90CF9091
:102350000895EBEFF2E0108211828FEF08950E9452
:102360003B1080E496E00E944F1040E069E184EF6A
:1023700090E00E9476112FEF88E09DE3215080408D
:102380009040E1F700C00000E0E0F0E0099580E057
:102390000895CF93DF9384E590E00E944F1040E0D2
:1023A00060E08DEF90E00E9476118091FB02811138
:1023B00029C0CBEFD2E060E089E792E00E940C07F1
:1023C00040E068E10E94761161E089E792E00E94B6
:1023D0000C0740E060E20E94761162E089E792E03B
:1023E0000E940C0740E068E20E94761163E089E7F2
:1023F00092E00E940C0740E060E30E947611888121
:102400008823C9F280E0DF91CF910895CF92DF92C7
:10241000EF92FF920F931F93CF93DF9340E060E022
:1024200087E091E00E9476118CE392E00E944F10C9
:102430000F2EF5EFEF2EF2E0FF2EF02DC2E6D2E0E8
:102440000BEF12E0CC2EDD2EF701408151819A0175
:10245000329522952F7023273F702327A7E4B3E0FE
:102460000E94B61E96958795969587959695879521
:10247000805D88839A013695279536952795369500
:102480002795A5ECB0E20E94B61EFC01F295E295FC
:10249000EF70EF27FF70EF279F01ADECBCEC0E94BF
:1024A000B61E9695879596958795969587959C01E6
:1024B000220F331F880F991F880F991F880F991FAC
:1024C000820F931FE81BF90BE05DE9839A013695B3
:1024D000279536952795ABE7B4E10E94B61EFC011F
:1024E000F695E7959F01ADECBCEC0E94B61E969563
:1024F000879596958795969587959C01220F331F12
:10250000880F991F880F991F880F991F820F931F9B
:10251000E81BF90BE05DEA839A010E94B61EFC01FC
:10252000F695E795F695E795F695E7959F010E9454
:10253000B61E9695879596958795969587959C0155
:10254000220F331F880F991F880F991F880F991F1B
:10255000820F931F9F01281B390BC901805D8B835C
:10256000CF01880F991FEE0FFF1FEE0FFF1FEE0F19
:10257000FF1FE80FF91F4E1B5F0B405D4C831D8250
:1025800044E16EE18C2D9D2D0E947611F801818130
:10259000811104C08091F40280FF06C08091F40292
:1025A0008E7F8093F4022FC0F8018081882309F484
:1025B0004BCF1082809149028F5F809349028A300D
:1025C00008F442CF0E943B1084E590E00E944F1037
:1025D00040E06EE188E191E00E947611109249029C
:1025E00060E070E082E090E00E94A31F1092F6028B
:1025F0001092F502FFEF24E33CE0F1502040304020
:10260000E1F700C000000E943B1080E0DF91CF9115
:102610001F910F91FF90EF90DF90CF9008954F9210
:102620005F926F927F928F929F92AF92BF92CF9262
:10263000DF92EF92FF920F931F93CF93DF9300D01F
:1026400000D01F92CDB7DEB784E590E00E944F1016
:102650008DE290E090936302809362026091870024
:102660007091880082E692E00E942A1F40E060E0BC
:1026700082E692E00E9476111A821982FE01339658
:1026800083E0DF011D928A95E9F770900C038CE3DB
:1026900092E00E944F1080E006EC10E00F2EF0ED6B
:1026A0008F2EF2E09F2EF02D0F2EF4E64F2EF02D00
:1026B0000F2EFAE05F2EF02D6894AA24A5F8BA2C0C
:1026C0006894CC24C5F8D12C0F2EFBEFEF2EF2E04E
:1026D000FF2EF02DF8016088670C108A861519F01E
:1026E000D40112961C92B3E6B61510F4742C01C0F6
:1026F000762CEAE07E1608F4752C452DBE016F5F3E
:102700007F4F872D90E00E943C1FBE016F5F7F4F7F
:1027100082E692E00E94351FE2E6F2E0019000209E
:10272000E9F73197B182A082D382C28242E36EE19F
:1027300082E692E00E9476118BED0E94FD0F872DBC
:102740000E94FD0FD7018C91811105C09091F40278
:10275000862D90FFBFCF8091F4028E7F8093F4028C
:102760001092FB0270920C03672D81E090E00E94B2
:102770007F1F80E00F900F900F900F900F90DF91D0
:10278000CF911F910F91FF90EF90DF90CF90BF906E
:10279000AF909F908F907F906F905F904F90089533
:1027A0000F931F93CF93DF938C01EB01FC016585A1
:1027B00076858785908924E630E040E050E00E94ED
:1027C000751E8C859D85092E000CAA0BBB0B8217EC
:1027D0009307A407B5076CF4F801658576858785AE
:1027E000908924E630E040E050E00E94971E3D874B
:1027F0002C87F801658576858785908924E630E009
:1028000040E050E00E94751E8E859F85092E000CC9
:10281000AA0BBB0B281739074A075B076CF4F801B2
:10282000658576858785908924E630E040E050E034
:102830000E94971E3F872E87F801618572858385E8
:1028400094852AE030E040E050E00E94971E8C81A1
:102850009D81092E000CAA0BBB0B82179307A407BE
:10286000B5076CF4F80161857285838594852AE04B
:1028700030E040E050E00E94971E3D832C83F80139
:1028800061857285838594852AE030E040E050E0E0
:102890000E94971E8E819F81092E000CAA0BBB0BF4
:1028A000281739074A075B076CF4F80161857285C0
:1028B000838594852AE030E040E050E00E94971E36
:1028C0003F832E83F801438D548D658D768D8C8DDD
:1028D0009D8D092E000CAA0BBB0B84179507A6072C
:1028E000B70734F4838D948DA58DB68D9D8F8C8F15
:1028F000F801438D548D658D768D8E8D9F8D092EBB
:10290000000CAA0BBB0B481759076A077B0734F466
:10291000838D948DA58DB68D9F8F8E8FF801218D1F
:10292000328D8C899D898217930724F4818D928D35
:102930009D8B8C8BF801218D328D8E899F89281774
:10294000390724F4818D928D9F8B8E8BDF91CF91EF
:102950001F910F9108954F925F926F927F928F9285
:102960009F92AF92BF92CF92DF92EF92FF920F931E
:102970001F93CF93DF9300D01F92CDB7DEB78C01AA
:1029800087E189838BE38A838B838DEF92E00E94BA
:10299000F20D0F2EFDEFEF2EF2E0FF2EF02DF701DE
:1029A00082810E94140DF8018083F70181810E94C9
:1029B000140DF8018183F70180810E94140DF80144
:1029C000828384E590E00E944F100E943B1040E01B
:1029D00060E08BE291E00E9476118CE392E00E942D
:1029E0004F10F8014281618180810E94681C40E0A3
:1029F00069E10E9476118091F40280FDC0C0380127
:102A0000CE0101965C01412C0F2EF6ECCF2EF0E0AA
:102A1000DF2EF02D0F2EFBEFEF2EF2E0FF2EF02D2C
:102A20004301F3015080F6018089580E108AF701A6
:102A30008081882311F0108294C0F701818188235E
:102A400039F011828091F40281608093F40289C090
:102A5000F5018081581620F0F4011082512C02C03B
:102A6000F4015082F1E04F1671F14F1628F022E088
:102A7000421609F44FC0D7CFF801428161818081AD
:102A80000E94681C40E069E10E947611FFEF20E798
:102A900082E0F15020408040E1F700C00000F801E2
:102AA000428161818FEF0E94681C40E069E10E94D1
:102AB0007611FFEF20E782E0F15020408040E1F7FF
:102AC00000C00000B0CFF8014281618180810E9486
:102AD000681C40E069E10E947611FFEF20E782E088
:102AE000F15020408040E1F700C00000F801428131
:102AF0006FEF80810E94681C40E069E10E947611BE
:102B0000FFEF20E782E0F15020408040E1F700C075
:102B1000000089CFF8014281618180810E94681C98
:102B200040E069E10E947611FFEF20E782E0F1507A
:102B300020408040E1F700C000004FEFF8016181C4
:102B400080810E94681C40E069E10E947611FFEFDD
:102B500020E782E0F15020408040E1F700C0000013
:102B600062CF439493E0491651F08091F402EFEF65
:102B70006E1A7E0AFFEFAF1ABF0A80FF51CFF8012D
:102B80004281618180810E94B20D0E943B1080E0F1
:102B90000F900F900F90DF91CF911F910F91FF90A9
:102BA000EF90DF90CF90BF90AF909F908F907F90ED
:102BB0006F905F904F90089580EA90E00E94AB1470
:102BC00080E008952F923F924F925F926F927F9292
:102BD0008F929F92AF92BF92CF92DF92EF92FF922D
:102BE0000F931F93CF93DF9300D000D0CDB7DEB704
:102BF0006C017B018A0184E590E00E944F10809176
:102C0000F4028E7F8093F402212C480121E0821A85
:102C100091083FEF300F3A838BEF800F8983712C3F
:102C20000F2EFBEFAF2EF2E0BF2EF02DE4C0F70128
:102C3000808982301CF421E0208B09C0082E000C12
:102C4000990B8816990618F42A81F701208BF70151
:102C500020893DEF320F832F032E000C990B059630
:102C60008017910708F03981432E33230CF4472C49
:102C70008091540290E0422F022E000C550B8417D5
:102C8000950731F020935402E0EDF2E011821082BA
:102C9000472D672DF601808191810E9476110E9457
:102CA0007506472D6CE30E9476116894332434F83E
:102CB0006894662461F84A94542C560C672D862D2E
:102CC0000E942310FCE3FB83872D0E9406102B81BA
:102CD00021502B832111F8CF852D90E09C838B838D
:102CE00080179107B8F5F7012089422F022E000CBA
:102CF000550B84179507D9F4222E472D632D8EE3AB
:102D000091E00E9476118B819C81880F991F880F1A
:102D1000991F2B813C81280F391F2C0D3D1D4AE046
:102D2000632DF901808191810E94761113C08B81FE
:102D30009C81880F991F880F991F2B813C81280F38
:102D4000391F2C0D3D1D472D632DF9018081918187
:102D50000E9476116394F8E03F0E26E06212ACCF39
:102D6000F5018081882309F446C010821182809188
:102D7000F4028E7F8093F4020E943B10822D90E03B
:102D80009C01220F331F220F331F820F931FF60166
:102D9000E80FF91FFC83EB8382819381892BC1F0BB
:102DA000F701108AEB81FC8182819381FC010995F6
:102DB0008F3F71F484E590E00E944F108091F402FF
:102DC0008E7F8093F402EBEFF2E01082118217C045
:102DD00084E590E00E944F108091F4028E7F8093F2
:102DE000F402F501108211820E943B10EB81FC81FC
:102DF0008481F701808B8091F40280FF18CF0E94BC
:102E00003B101092770281E08093760280E00F9071
:102E10000F900F900F90DF91CF911F910F91FF9026
:102E2000EF90DF90CF90BF90AF909F908F907F906A
:102E30006F905F904F903F902F900895CF9360E0F8
:102E40000E942310C0E080E00E940610CF5FC038CF
:102E5000D1F7CF9108954F925F926F927F928F92A8
:102E60009F92AF92BF92CF92DF92EF92FF920F9319
:102E70001F93CF93DF938091F30282FF2EC160E610
:102E800072E08EE592E00E94EE0E0E94910B60933C
:102E90005A0270935B0280935C0290935D020E94E1
:102EA000E60960935A0270935B0280935C029093F0
:102EB0005D020E94470BBC0180E090E060935602E7
:102EC0007093570280935802909359020E947A0996
:102ED000092E000CAA0BBB0B80935602909357024D
:102EE000A0935802B09359022091530231E0320F5F
:102EF00030935302253009F0A5C010925302C4ED5F
:102F0000D2E069817A818B819C812DEC3CEC4CEC88
:102F10005CEC0E94D81E00E20E94051F822E932EB8
:102F2000A42EB52EB694A79497948794B694A7949C
:102F30009794879489829A82AB82BC826D817E81CC
:102F40008F8198850F2EF5E04F2E512C612C712C1E
:102F5000F02DA30192010E94971E2D833E834F8383
:102F600058876D897E898F89988D2DEC3CEC4CECCF
:102F70005CEC0E94D81E0E94051F822E932EA42E68
:102F8000B52EB694A79497948794B694A7949794E3
:102F900087948D8A9E8AAF8AB88E69897A898B894F
:102FA0009C89A30192010E94971E298B3A8B4B8B1F
:102FB0005C8B89819A81AB81BC818D879E87AF872D
:102FC000B88B8D819E81AF81B88589879A87AB87C1
:102FD000BC878D899E89AF89B88DAA27BB278B8F27
:102FE0009C8FAD8FBE8F89899A89AB89BC899A8F56
:102FF000898F19821A821B821C821D821E821F8267
:1030000018861D8A1E8A1F8A188E198A1A8A1B8A98
:103010001C8A80915202823020F48F5F809352028A
:1030200057C066EA70E084ED92E00E94D0131092DF
:10303000770281E080937602E4EDF2E0878D886389
:10304000878F46C0E4EDF2E0018112812381348153
:1030500040915A0250915B0260915C0270915D0256
:10306000400F511F621F731F418352836383748318
:103070004581568167817085840F951FA61FB71FF4
:1030800085839683A783B08785899689A789B08D24
:103090002091600230916102820F931FA11DB11D2A
:1030A000858B968BA78BB08F4189528963897489F0
:1030B00080915E0290915F02092E000CAA0BBB0B5F
:1030C000840F951FA61FB71F818B928BA38BB48B88
:1030D000E4EDF2E0878D8B7F878F8091F30284FF90
:1030E000D1C08091A50090917802981759F08093F3
:1030F000780285E00E941E1786E00E941E1787E076
:103100000E941E178091760290917702981709F419
:10311000C8C08093770284E590E00E944F108091B0
:10312000EF029091F002A091F102B091F202843688
:103130009105A105B10560F084E690E0A0E0B0E063
:103140008093EF029093F002A093F102B093F20209
:1031500004ED12E0F801658576858785908924E67F
:1031600030E040E050E00E94751EDA01C9014AE0FB
:103170006AE472E00E943C1FC2E6D2E08CE0E1E427
:10318000F1E0DE0101900D928A95E1F76AE472E0C8
:10319000CE010E942A1FDE010D900020E9F7119751
:1031A00085E0EDE4F1E001900D928A95E1F740E0D1
:1031B00063E2CE010E947611F801838D948DA58D76
:1031C000B68D4AE06AE472E00E943C1F8CE0E2E5C2
:1031D000F1E0DE0101900D928A95E1F76AE472E078
:1031E000CE010E942A1FFE0101900020E9F73197CD
:1031F00080E295E29183808380E290E093838283F2
:1032000040E068E2CE010E947611F801818D928D36
:103210004AE06AE472E00E943C1F8CE0EEE5F1E0D7
:10322000DE0101900D928A95E1F76AE472E0CE0129
:103230000E942A1FDE010D900020E9F7119787E018
:10324000EAE6F1E001900D928A95E1F740E062E351
:10325000CE010E9476118CE0E1E7F1E0DE01019001
:103260000D928A95E1F760E089E792E00E940C07F1
:10327000BC01CE010E942A1F40E06CE3CE010E94F7
:1032800076110FC084E590E00E944F1044E162E3A4
:103290008DE791E00E9476111092780281E0809390
:1032A000A500DF91CF911F910F91FF90EF90DF90DC
:1032B000CF90BF90AF909F908F907F906F905F90D6
:1032C0004F900895F894E9E0F3E09081892390818C
:1032D0009827908378940895F894E9E0F3E0928138
:1032E000892392819827928378940895DF92EF92B0
:1032F000FF920F931F93CF93DF93CDB7DEB72A973B
:103300000FB6F894DEBF0FBECDBF7C01D62E1A8259
:103310001982FE01339688E0DF011D928A95E9F754
:10332000F7016081718182E692E00E94351F02E61A
:1033300012E0D8010D900020E9F711978BE0ECE83E
:10334000F1E001900D928A95E1F740E060E0C8015C
:103350000E947611D70112966D917C911397C80146
:103360000E94351FD8010D900020E9F7119789E0E0
:10337000E7E9F1E001900D928A95E1F74AE0BE019C
:103380006F5F7F4FF701848195810E943C1FBE01D2
:103390006F5F7F4FC8010E942A1F40E06D2DC8015A
:1033A0000E947611D70112966D917C911397C801F6
:1033B0000E94351FD8010D900020E9F7119789E090
:1033C000E0EAF1E001900D928A95E1F74AE0BE0152
:1033D0006F5F7F4FF701868197810E943C1FBE017E
:1033E0006F5F7F4FC8010E942A1F6AE06D0D40E0A9
:1033F000C8010E94761180E02A960FB6F894DEBFCD
:103400000FBECDBFDF91CF911F910F91FF90EF9035
:10341000DF900895CF93DF938091F30284FD11C074
:1034200040E06EE189EA91E00E9476112FEF8EE98B
:1034300094E2215080409040E1F700C000008FEFFF
:1034400016C0CBEFD2E064E18EEA90E00E947619DC
:1034500068E286EA90E00E9476198881811104C0B2
:103460008091F40280FFEFCF0E943B1080E0DF915B
:10347000CF910895CF93DF938091F30284FD11C023
:1034800040E06EE189EA91E00E9476112FEF8EE92B
:1034900094E2215080409040E1F700C000008FEF9F
:1034A00016C0CBEFD2E064E18EEB90E00E9476197B
:1034B00068E286EB90E00E9476198881811104C051
:1034C0008091F40280FFEFCF0E943B1080E0DF91FB
:1034D000CF91089580E090E00E94711F91E08A3AB8
:1034E00009F490E0892F08950E946A1A882359F000
:1034F00060E070E082E090E00E94A31F6AEA80E052
:1035000090E00E94961F82E090E00E94791F9093C5
:10351000F6028093F50281E090E00E94711F809393
:103520000C030895FC01208131812230310510F413
:10353000D99808952330310511F4D99A0895293086
:10354000310511F4D99808952B30310511F4D99A29
:103550000895253F314018F0FC0111821082089532
:10356000D19AD99A0E94741A0E94CB0C0E94101012
:1035700089E992E00E94220989E792E00E9491067F
:103580008BE08EBD80E989BF81EE94E09BBD8ABD52
:1035900085B58C6085BD8CE783BD78940E943B1017
:1035A000EBEFF2E0118210828F010F2EF5EFEF2E7C
:1035B000F2E0FF2EF02DC4EDD2E0F80181818823E6
:1035C00061F0118210820E943B1049E050E066ECED
:1035D00070E083E790E00E94E215F7018481958115
:1035E0008C3C984258F0F701158214828091F402C5
:1035F00082608093F4028EEA0E94FD0F8091F402B3
:1036000081FF0DC0F8018081882349F08091F40288
:103610008D7F8093F40210828FEA0E94FD0F8F8DC0
:1036200080FF0AC08DEF92E00E94F20D8F8D8E7F99
:103630008F8F8F8D82608F8F8F8D81FF12C08CE373
:1036400092E00E944F10EDEFF2E0408161818281B3
:103650000E94481C40E060E00E9476118F8D8D7FB3
:103660008F8F0E942B17A9CF1F920F920FB60F9228
:1036700011242F933F934F935F936F937F938F9377
:103680009F93AF93BF93EF93FF93809147029091E5
:1036900048020196909348028093470287E492E0A3
:1036A0000E94921AE0EDF2E0808191819C012F5FEF
:1036B0003F4F31832083883E934048F01092D102DF
:1036C0001092D0028091F40281608093F402809184
:1036D00046028B3020F48F5F8093460207C0109221
:1036E0004602E4EDF2E0878D8160878F8091FD02D4
:1036F00090915502891799F180935502E5EFF2E018
:1037000084819581019695838483809145028630DA
:1037100020F48F5F8093450207C010924502E4EDCC
:10372000F2E0878D8460878FE5EFF2E0838191E09E
:10373000980F93838C3398F01382828191E0980FD5
:1037400092838C3360F01282808191810196918303
:1037500080836081718182E090E00E94901FE9E0A7
:10376000F3E0918189B38095282F29279091440215
:103770009223892F80958093440290914302922353
:1037800098279093430282238923918198279183DC
:10379000218190818223892B8083818188233CF041
:1037A00085E990E0909342028093410212C080919B
:1037B000410290914202019790934202809341020C
:1037C000892B39F4E9E0F3E0818192818078892BBB
:1037D000828380E80E946C19882319F081E080932D
:1037E000FC0280E80E946219882319F081E080932E
:1037F000FB02FF91EF91BF91AF919F918F917F91CC
:103800006F915F914F913F912F910F900FBE0F904D
:103810001F9018951F920F920FB60F9211242F939D
:103820008F939F93AF93BF93EF93FF93E6ECF0E0FA
:10383000818924E08202C00111248F70818BCE9B8C
:1038400003C081898260818BCD9B05C0E6ECF0E0EE
:1038500081898160818BA6ECB0E05196EC91519703
:103860000E2E000CFF0BEA53FF4F808150969C9167
:103870005097890F50968C93FF91EF91BF91AF9124
:103880009F918F912F910F900FBE0F901F901895C1
:10389000EDE0F3E0982F92959F70905D90838F708C
:1038A000805D81839AE39283862F82958F70805DFD
:1038B00083836F70605D64839583842F82958F709E
:1038C000805D86834F70405D47831086CF010895E9
:1038D0008F3F31F4EDE0F3E080E28083818314C018
:1038E000EDE0F3E09DEC899F912D1124969596953E
:1038F000969520E3290F2083990F292F220F220F5D
:10390000920F891B805D81838AE380930F036F3F51
:1039100031F4EDE0F3E080E28383848314C0EDE0D2
:10392000F3E08DEC689F812D112486958695869510
:1039300090E3980F9383880F982F990F990F890F11
:10394000681B605D64838AE3809312034F3F31F408
:10395000EDE0F3E080E28683878314C0EDE0F3E0DE
:103960008DEC489F812D112486958695869590E350
:10397000980F9683880F982F990F990F890F481BDE
:10398000405D4783109215038DE093E008955058F1
:10399000BB27AA270E94DF1C0C94BE1D0E94B01DED
:1039A00038F00E94B71D20F039F49F3F19F426F437
:1039B0000C94AD1D0EF4E095E7FB0C94A71DE92FC8
:1039C0000E94CF1D58F3BA17620773078407950743
:1039D00020F079F4A6F50C94F11D0EF4E0950B2E71
:1039E000BA2FA02D0B01B90190010C01CA01A00151
:1039F0001124FF27591B99F0593F50F4503E68F1AC
:103A00001A16F040A22F232F342F4427585FF3CFEC
:103A1000469537952795A795F0405395C9F77EF4BD
:103A20001F16BA0B620B730B840BBAF09150A1F006
:103A3000FF0FBB1F661F771F881FC2F70EC0BA0F8C
:103A4000621F731F841F48F4879577956795B79514
:103A5000F7959E3F08F0B0CF9395880F08F099270F
:103A6000EE0F9795879508950E943B1D6894B111BC
:103A70000C94F21D08950E94D71D88F09F5798F06E
:103A8000B92F9927B751B0F0E1F0660F771F881F63
:103A9000991F1AF0BA95C9F714C0B13091F00E947D
:103AA000F11DB1E008950C94F11D672F782F882740
:103AB000B85F39F0B93FCCF3869577956795B395A4
:103AC000D9F73EF490958095709561957F4F8F4F13
:103AD0009F4F0895E89409C097FB3EF49095809518
:103AE000709561957F4F8F4F9F4F9923A9F0F92FC4
:103AF00096E9BB279395F695879577956795B79542
:103B0000F111F8CFFAF4BB0F11F460FF1BC06F5F27
:103B10007F4F8F4F9F4F16C0882311F096E911C039
:103B2000772321F09EE8872F762F05C0662371F05A
:103B300096E8862F70E060E02AF09A95660F771F6E
:103B4000881FDAF7880F9695879597F9089597F962
:103B50009F6780E870E060E008959FEF80EC089533
:103B600000240A941616170618060906089500245C
:103B70000A9412161306140605060895092E0394D6
:103B8000000C11F4882352F0BB0F40F4BF2B11F44A
:103B900060FF04C06F5F7F4F8F4F9F4F089557FDA9
:103BA0009058440F551F59F05F3F71F04795880FAB
:103BB00097FB991F61F09F3F79F087950895121642
:103BC00013061406551FF2CF4695F1DF08C01616EE
:103BD00017061806991FF1CF86957105610508949F
:103BE0000895E894BB2766277727CB0197F90895B6
:103BF0000E940B1E0C94BE1D0E94B01D38F00E9446
:103C0000B71D20F0952311F00C94A71D0C94AD1D49
:103C100011240C94F21D0E94CF1D70F3959FC1F3E7
:103C2000950F50E0551F629FF001729FBB27F00D6A
:103C3000B11D639FAA27F00DB11DAA1F649F6627BF
:103C4000B00DA11D661F829F2227B00DA11D621F0E
:103C5000739FB00DA11D621F839FA00D611D221FC8
:103C6000749F3327A00D611D231F849F600D211DAC
:103C7000822F762F6A2F11249F5750409AF0F1F02F
:103C800088234AF0EE0FFF1FBB1F661F771F881F98
:103C900091505040A9F79E3F510580F00C94A71D0C
:103CA0000C94F21D5F3FE4F3983ED4F3869577952C
:103CB0006795B795F795E7959F5FC1F7FE2B880F3E
:103CC000911D9695879597F90895DB018F939F93A2
:103CD0000E94C51EBF91AF91A29F800D911DA39F11
:103CE000900DB29F900D11240895A1E21A2EAA1BE7
:103CF000BB1BFD010DC0AA1FBB1FEE1FFF1FA2179C
:103D0000B307E407F50720F0A21BB30BE40BF50B98
:103D1000661F771F881F991F1A9469F76095709521
:103D2000809590959B01AC01BD01CF010895052EB2
:103D300097FB1EF400940E94AE1E57FD07D00E9410
:103D4000751E07FC03D04EF40C94AE1E50954095A2
:103D5000309521953F4F4F4F5F4F08959095809537
:103D6000709561957F4F8F4F9F4F0895A29FB0012F
:103D7000B39FC001A39F700D811D1124911DB29F9F
:103D8000700D811D1124911D08950E94B61EA59FDE
:103D9000900DB49F900DA49F800D911D1124089546
:103DA000B7FF0C94C51E0E94C51E821B930B08957D
:103DB000E894DF93CF93FC01DB010E94B61E7F9352
:103DC0006F93E9019A01AC01BF93AF933F932F9397
:103DD000DF010E94B61E26F46C1B7D0B820B930B39
:103DE0009E01EB01FC010E94211FAF91BF912F9119
:103DF0003F910E94211FBE01CF01F9012F913F91F8
:103E0000CF91DF91089597FB10F8169400080F9357
:103E1000083098F00850232F342F452F562F672F46
:103E2000782F892F902DF4CF0594979587957795C6
:103E3000679557954795379527950A95AAF70F9156
:103E400008950E94B61E460F571FC81FD91F08F4B9
:103E500031960895FB01DC010D900020E9F71197E0
:103E600001900D920020E1F70895FB01DC01019023
:103E70000D920020E1F70895BB274A3031F49923D1
:103E800022F4BDE2909581959F4F0C94481FBB276B
:103E9000FB015527AA27880F991FAA1FA41710F006
:103EA000A41B83955051B9F7A05DAA3308F0A95D12
:103EB000A193009779F7B111B1931192CB010C94B2
:103EC000611FDC01FC01672F71917723E1F73297C5
:103ED00004C07C916D9370836291AE17BF07C8F3E5
:103EE0000895E199FECF9FBB8EBBE09A99278DB3D1
:103EF0000895A8E1B0E042E050E00C94AA1F262FFC
:103F0000E199FECF9FBB8EBBE09A01970DB20216DE
:103F100031F02DBB0FB6F894E29AE19A0FBE0895E6
:103F20000196272F0E94801F0C947F1F262FE19956
:103F3000FECF9FBB8EBB2DBB0FB6F894E29AE19AE1
:103F40000FBE019608950E94961F272F0C94971F6D
:103F5000DC01CB01FC01E199FECF06C0FFBBEEBB4B
:103F6000E09A31960DB20D9241505040B8F7089545
:043F7000F894FFCFF3
:103F7400303030303030303030303030303030303D
:103F8400303030C701000000D601DC1500FE010A04
:103F94001A0014023A1A00DE010F1300E601061299
:103FA40000EF01AF1100FE00C91100F801A911FFD3
:103FB400183B3B000001FD0105020180FF7FFD016C
:103FC4000B020180FF7F130205020180FF7F1302B1
:103FD4001A020180FF7F00000000000000000100C1
:103FE400000000FF00000000AE2000B0C800104038
:103FF40081FFA1A6A83FA4D300D5F0D900DA12DB33
:10400400208D04AF5265626F6F742E2E002D4572A1
:10401400726F72287329002D426574726965627328
:104024007374756E64656E005A6165686C657220A0
:1040340067656C6F657363687421002D5568727AC7
:10404400656974207374656C6C656E2E2E002D3E4C
:10405400004C756674647275636B3A200020687056
:1040640061004C7566746665752E203A20005465AF
:104074006D702E5B315D203A20002043656C2E204C
:10408400004572726F72287329203A2000536361CD
:104094006E6E696E67206E6F772E2E00205B6D61E9
:1040A400782F6D696E5D005B6D61785D2E3A20003E
:1040B4005B6D696E5D2E3A2000506C6561736520FE
:1040C400747279206C617465722E2E004279746565
:1040D4005B005D202D20002D45696E7374656C6C4A
:1040E400756E67656E005568727A65697400486517
:1040F4006C6C69672E00426574726965622E004EAD
:10410400657573746172740045786974002D424D4D
:10411400503138300054656D702E004C75667464EF
:10412400722E002D53485432310046657563682E53
:02413400000089
:00000001FF
