:100000000C945F030C947C030C947C030C947C0391
:100010000C9476090C947C030C947C030C94A0083B
:100020000C947C030C947C030C947C030C947C0354
:100030000C947C030C947C030C947C030C947C0344
:100040000C947C030C947C030C947C030C947C0334
:100050000C947C0330860A0F20600003070B090E06
:100060000B0305050609030503040806080809082B
:10007000080808080303090809080C0C09090909FC
:10008000080A0A03090C080C0A0A090A0A090B0AD9
:100090000C100C0B090504050808030909090909D6
:1000A00006090903040A030D0909090906080609D6
:1000B000090F0B09070602060908FEFEFE1D1D1D9D
:1000C0001E1E1E001E1E1E0000000000000030301C
:1000D000F0FE3E3030F0FE3E30061E1F0706061EC4
:1000E0001F070606387CFEE6FFC6CE8C0C040C1CEF
:1000F000183F191F0F073C7E42427E3C8060108CE7
:1001000082808000000000100C0201000F1F101000
:100110001F0F00809CFEFEE6BE3E9C8080070F1FE6
:100120001918191F0F0F1F1D1E1E1E000000E0F8DA
:10013000FC1E020F3F7FF080021EFCF8E080F07F83
:100140003F0F08683E3E6808000000000000C0C085
:10015000C0F8F8F8C0C0C00101010F0F0F01010184
:10016000000000DC7C3C808080808003030303036C
:100170000000001C1C1C0080780618070000F8FC1A
:10018000FE0606FEFCF8070F1F18181F0F07607009
:1001900038FEFEFE0000001F1F1F181C1E0686FEF4
:1001A000FC78181C1E1F1B191818081C1EC6C6FE3A
:1001B000FC38060E1E18181F0F0780C0F0381CFEF2
:1001C000FEFE0003030303031F1F1F03F0FEFE6672
:1001D00066E6C686060E1E18181F0F07F0FCFE46C0
:1001E00066EECE8C030F1F18181F0F070606068633
:1001F000E6F61E0600001C1F1F01000038FCFEC6AC
:10020000C6FEFC38070F1F18181F0F0778FCFE8664
:1002100086FEFCF0040C1D19181F0F037070701C73
:100220001C1C707070DC7C3CE0E0E0F0707070389A
:1002300038030303070707070E0E707070707070A5
:10024000707007070707070707073838707070F0E6
:10025000E0E0E00E0E07070707030303181C9EC625
:10026000E6FE7C3800001D1D1D000000E018C4F4EF
:100270003A0A0AF2FA7C08F00718272F48484C4F30
:100280004F2836110080E0F8FE1EFEF8E0800000E6
:100290001C1F0F07060606070F1F1C10FEFEFEC6DA
:1002A000C6FEBC98001F1F1F1818181F0F07F0FC70
:1002B000FC0E060E1E1C08030F1F1C181C1F0E062A
:1002C000FEFEFE06060EFEFCF01F1F1F18181C1F68
:1002D0000F03FEFEFEC6C6C6C6C6061F1F1F1818A1
:1002E00018181818FEFEFEC6C6C6C6061F1F1F0039
:1002F00000000000F0FCFC0E06C6CEDEDCC8030FDA
:100300000F1C18181C1F0F0FFEFEFEC0C0C0C0FE41
:10031000FEFE1F1F1F000000001F1F1FFEFEFE1F0E
:100320001F1F000000000000FEFEFE060F1F1C182D
:10033000181F0F07FEFEFEC0E0F0F8DC0E060200FC
:100340001F1F1F00000001071F1E1810FEFEFE00E9
:10035000000000001F1F1F1818181818FEFEFE3E90
:10036000F88080F83EFEFEFE1F1F1F00031F1F03C4
:10037000001F1F1FFEFEFE7CF0E080FEFEFE1F1F22
:100380001F0001030F1F1F1FF0FCFC0E06060EFCD2
:10039000FCF0030F0F1C18181C0F0F03FEFEFEC607
:1003A000C6C6FE7E3C1F1F1F000000000000F0FCC0
:1003B000FC0E06060EFCFCF0030F0F1C181E1C1F83
:1003C0001F33FEFEFEC6C6C6FE7E3C001F1F1F007A
:1003D00000030F1F1C10387CFEE6E6EEDEDC9806FC
:1003E0000E1E1C18191F0F0706060606FEFEFE0647
:1003F000060606000000001F1F1F00000000FEFE92
:10040000FE00000000FEFEFE070F1F1C18181C1F38
:100410000F071EFEFCF0800080F0FCFE1E020000B4
:10042000031F1F1C1F1F03000000FEFEF80080F8C2
:10043000FE3EFEF88000F8FEFE06000F1F1F1F079D
:10044000010001071F1F1F0F0000061E3CF8F0E00F
:10045000F0F83C1E0602181E0F07030103070F1ECB
:100460001810020E1E7EF8E0F87E1E0E020000003C
:10047000001F1F1F00000000000606C6E6F63E1E15
:100480000E1C1E1F1B1918181818FEFEFE0606FF6C
:10049000FFFFC0C006788000000007180606FEFEB9
:1004A000FEC0C0FFFFFF40707C1E1E7C704000003D
:1004B00000000000000000000000000000004040BC
:1004C0004040404040400206040000004060703060
:1004D000B0B0F0F0E00E1F1F1B19091F1F1FFEFE1A
:1004E000FE603030F0E0C01F1F1F0C18181F0F07F0
:1004F000C0E0F0703030706040070F1F1C18181CEF
:100500000C04C0E0F0303060FEFEFE070F1F18182C
:100510000C1F1F1FC0E0F0B0B0B0F0E0C0070F1F0D
:100520001D19191D0D0530FCFEFE3636001F1F1F5C
:100530000000C0E0F0303060F0F0F047CFDFD8D8F6
:10054000CCFF7F3FFEFEFE203030F0F0E01F1F1F8B
:100550000000001F1F1FF6F6F61F1F1F00F6F6F61D
:10056000C0FFFF7FFEFEFEC0E0F0F03010001F1F56
:100570001F0301071F1E1C10FEFEFE1F1F1FF0F0B1
:10058000F02030F0F0E02030F0F0E01F1F1F0000FE
:100590001F1F1F00001F1F1FF0F0F0203030F0F071
:1005A000E01F1F1F0000001F1F1FC0E0F070307011
:1005B000F0E0C0070F1F1C181C1F0F07F0F0F060C1
:1005C0003070F0E0C0FFFFFF0C18181F0F07C0E0ED
:1005D000F0303060F0F0F0070F1F18180CFFFFFF2D
:1005E000F0F0F02030101F1F1F000000E0F0F0902E
:1005F00090B0302008191B13131F1F0E30FCFCFE97
:100600003030000F1F1F1818F0F0F0000000F0F05D
:10061000F00F1F1F1818081F1F1F10F0F0C000E078
:10062000F0F0100000071F1C1F07000010F0F0E0A2
:100630000000F0F0F00000E0F0F0100000071F1ED6
:100640000F0300030F1E1F070000103070E0C08072
:10065000C0E070301010181E0F0703070F1E18108F
:1006600010F0F0C000C0F0F030C0C0C7FFFC3F0F7A
:100670000100303030F0F0F0301C1E1F1B1918182C
:100680000000FCFEFE0603037FFFFCC0FEFEFFFF32
:1006900006FEFEFC0000C0FCFF7F0303C0E0E0E0BC
:1006A000E0C0C0C0E0010000000101010100F80845
:1006B0000808080808F81F1010101010101F112447
:1006C0001FBECFE5D8E0DEBFCDBF14E0A0E6B0E0AE
:1006D000EAEFF3E102C005900D92AE38B107D9F709
:1006E00025E0AEE8B4E001C01D92A633B207E1F701
:1006F0000E946E080C94FB090C940000FC01DC01C4
:100700005C969C01285E3F4F8FEF80831D92118283
:1007100012821382148215823696E217F307A9F724
:1007200080E00895FC01628F438F808D918D84312C
:100730009105B8F4643088F4DF01A60FB11D5C9612
:100740002C91253008F048C0442349F038C0DF011F
:10075000A20FB31F5C961C9217C082E0089584E03C
:100760000895262F30E0D901AA0FBB1FA20FB31F97
:10077000AA0FBB1FAE0FBF1F6C93DF01A20FB31FE9
:100780005C965C91553018F7DF01A20FB31F5C96A1
:100790005C915C970196918F808F81E0850F5C96CC
:1007A0008C93C901880F991F820F931F880F991F7F
:1007B000E80FF91FE50FF11D418380E00895262F12
:1007C00030E0D901AA0FBB1FA20FB31FAA0FBB1F96
:1007D000AE0FBF1F6C93D8CF262F30E0D901AA0FE0
:1007E000BB1FA20FB31FAA0FBB1FAE0FBF1F6C937F
:1007F000AECFEF92FF920F931F93CF93DF93C62F4D
:100800007A01122F0E94E3058C2F0E94EC058823A9
:1008100031F042E063E080EA94E00E949203112309
:10082000B1F0E7011150012F10E00F5F1F4F0E0DC7
:100830001F1D89910E94EC05882331F043E063E09D
:1008400080EA94E00E949203C017D10791F70E94BA
:10085000070680E0DF91CF911F910F91FF90EF90FD
:100860000895DF92EF92FF920F931F93CF93DF9340
:10087000C82FD62F7A01D22E0E94E3058D2F0E9419
:10088000EC05882331F042E063E080EA94E00E94C6
:1008900092030E94070681E0D81208C08C0F0E94C4
:1008A000E3050E940006F70180831BC081E08C0FE6
:1008B0000E94E305DD2071F0E7010FEF0D0D10E060
:1008C0000F5F1F4F0E0D1F1D0E94F9058993C01762
:1008D000D107D1F7D394E701CD0DD11D0E940006B9
:1008E00088830E94070680E0DF91CF911F910F91CE
:1008F000FF90EF90DF900895AB01BC0141155105C9
:100900006105710589F080E090E0DC01EFECF7E033
:100910003197F1F700C000000196A11DB11D4817E5
:1009200059076A077B0791F70895E0ECF4E089EF37
:1009300093E091A780A781E394E093A782A78EEE2E
:10094000828F8CE794E095A784A780E00895CF93E9
:10095000DF93CDB7DEB766970FB6F894DEBF0FBE54
:10096000CDBFAE014F5F5F4F86E1FA0111928A95CC
:10097000E9F7A0918E04B0918F049A96ED91FC91C5
:100980009B9726E16AEA5A968C910995E0918E042C
:10099000F0918F044981042E000C550B660B770BE8
:1009A000762F652F542F44272A8130E0422B532B7A
:1009B000518340834B81042E000C550B660B770B43
:1009C000762F652F542F44272C8130E0422B532B58
:1009D000538342834D81042E000C550B660B770B1D
:1009E000762F652F542F44272E8130E0422B532B36
:1009F000558344832F8130E0322F22279885292B7D
:100A000037832683298530E0322F22279A85292BA8
:100A1000318720872B8530E0322F22279C85292B98
:100A2000338722874D85042E000C550B660B770B00
:100A3000762F652F542F44272E8530E0422B532BE1
:100A4000558744874F85042E000C550B660B770B9A
:100A5000762F652F542F4427288930E0422B532BC3
:100A6000578746874989042E000C550B660B770B78
:100A7000762F652F542F44272A8930E0422B532BA1
:100A8000518B408B4B89042E000C550B660B770B5A
:100A9000762F652F542F44272C8930E0422B532B7F
:100AA000538B428B4D89042E000C550B660B770B34
:100AB000762F652F542F44272E8930E0422B532B5D
:100AC000558B448B66960FB6F894DEBF0FBECDBF34
:100AD000DF91CF9108950F931F93CF93DF931F92D0
:100AE000CDB7DEB78C010E949504198210938F0454
:100AF00000938E04D8019A96ED91FC919B9721E08A
:100B0000AE014F5F5F4F60ED5A968C910995182F9B
:100B1000A0918E04B0918F04898157968C9357973A
:100B200041E050E060E070E090964D935D936D93EE
:100B30007C93939795961C921E92949797961C92ED
:100B40001E9296979A96ED91FC919B9721E0AE01AB
:100B50004F5F5F4F61ED5A968C910995180FE091A8
:100B60008E04F0918F049981892F8F70808F9295D8
:100B70009F70918F0E94A704810F0F90DF91CF91FA
:100B80001F910F91089582E080B9089516BE94EAEE
:100B900096BF06B607FEFDCF91B1987F983079F4E5
:100BA00083B984E886BF06B607FEFDCF91B1987F72
:100BB000983139F081E0903429F480E0089581E0A3
:100BC000089580E00895CF93C82F8C2F0E94C6050A
:100BD0008111FBCFCF91089583B984E886BF06B613
:100BE00007FEFDCF91B1987F81E0983209F480E053
:100BF000089584EC86BF06B607FEFDCF83B1089545
:100C000084E886BF06B607FEFDCF83B1089584E968
:100C100086BF0895BF92CF92DF92EF92FF920F931B
:100C20001F93CF93DF93EC017B01F89488E70E9438
:100C3000C605B82E811109C0E114F10409F44EC0B3
:100C400081E0E816F10449F510C0809193048160B9
:100C500080939304EEEEF4E080818F5F80830E94A6
:100C600007067894BB24B39441C088810E94EC05A8
:100C7000811103C0109292040CC0109292048091D2
:100C80009304886080939304EEEEF4E083818F5F99
:100C900083830E940706789429C08E01C0E0D0E0CB
:100CA0000F2EFEEECF2EF4E0DF2EF02D2196F80170
:100CB00081918F010E94EC0580939204882391F02A
:100CC0001092920480919304886080939304F601BB
:100CD00083818F5F8383CE15DF0540F30E94070673
:100CE000789404C0CE15DF0508F3F8CF8B2DDF9183
:100CF000CF911F910F91FF90EF90DF90CF90BF9019
:100D00000895E4E9F4E01082818362E070E0CF01AD
:100D10000E940A0608959093910480939004089588
:100D2000EF92FF920F931F93CF93DF93CDB7DEB770
:100D300027970FB6F894DEBF0FBECDBF0091900489
:100D400010919104F8013396649170E0DB011796DD
:100D5000B695A795B695A795B695A7953196949112
:100D6000891BF8019491992319F0811116C024C0B0
:100D7000F801319694919111F8CF3196449150E059
:100D8000A89FC0011124849F9001859F300D949FDE
:100D9000300D11242A5F3F4F24C0F80136962FEF03
:100DA000280F30E0295F3F4F200F311F9591490FE9
:100DB000511D2E173F07D1F7A49F7001A59FF00C7E
:100DC000112498012B5F3F4FF901249130E02A5FF5
:100DD0003F4F2E0D3F1DF801E80FF11D369644914F
:100DE00050E03A8329835C834B837E836D833A8111
:100DF0005C817E818A2F90E027960FB6F894DEBF43
:100E00000FBECDBFDF91CF911F910F91FF90EF905B
:100E1000089580E094E0E0E6F0E0DF019C011D929F
:100E200021503040E1F708950F931F93CF93DF9344
:100E3000C2E7D4E00EE814E089910E948106C01751
:100E4000D107D1F70E940907DF91CF911F910F9130
:100E50000895982F969596959695E62FF0E020E8C0
:100E6000929FE00DF11D1124E05AFF4F282F2770AB
:100E700081E090E002C0880F991F2A95E2F79081E7
:100E8000892B80830895982F969596959695E62FB1
:100E9000F0E020E8929FE00DF11D1124E05AFF4F91
:100EA000282F277081E090E002C0880F991F2A95B3
:100EB000E2F7809590818923808308952F923F9255
:100EC0004F925F926F927F928F929F92AF92BF925A
:100ED000CF92DF92EF92FF920F931F93CF93DF9306
:100EE000CDB7DEB727970FB6F894DEBF0FBECDBFE4
:100EF000362E242E0E94900629833A834B835C83EE
:100F00006D837E838F83AB80BC80682E712C6114CF
:100F1000710409F041C048C0E0919004F09191043F
:100F200089819A81E80FF91FEE0DFF1DEC0DFD1D63
:100F3000849190E0002E02C0959587950A94E2F77F
:100F400080FF05C0642D852D0E94290704C0642DF3
:100F5000852D0E9443070F5F1F4F539408301105E2
:100F6000D9F68FEFE81AF80A4394AE14BF0421F4BF
:100F700007C0422CE12CF12C532C00E010E0CCCF28
:100F8000CA0CDB1C8FEF881A980A80E8380E280EEE
:100F90008614970429F408C0812C912CC12CD12CE3
:100FA000A114B10431F7ECCFC50127960FB6F89420
:100FB000DEBF0FBECDBFDF91CF911F910F91FF908C
:100FC000EF90DF90CF90BF90AF909F908F907F90E9
:100FD0006F905F904F903F902F9008950F931F93C5
:100FE000CF93DF9380E00E94810680E10E9481061A
:100FF00080E40E948106F89488E70E94C60580E498
:101000000E94EC05C0E6D0E000E614E089910E9461
:10101000EC05C017D107D1F70E9407067894DF913D
:10102000CF911F910F910895F894EBE2F5E0908134
:10103000892390819827908378940895F894EBE21F
:10104000F5E092818923928198279283789408957C
:1010500080E090E00E94B40991E08A3A09F490E0BF
:10106000892F08950E942808882359F060E070E0D5
:1010700082E090E00E94E6096AEA80E090E00E9447
:10108000D90982E090E00E94BC09909318058093F2
:10109000170581E090E00E94B40980932E05089521
:1010A000FC01208131812230310510F4D998089556
:1010B0002330310511F4D99A08952930310511F4FE
:1010C000D99808952B30310511F4D99A0895253F08
:1010D000314018F0FC01118210820895D19AD99AFA
:1010E0000E9432080E94C3050E94140780EC94E01D
:1010F0000E946B0580EA94E00E947E038BE08EBD27
:1011000080E989BF81EE94E09BBD8ABD85B58C6086
:1011100085BD8CE783BD78940E9409070E94EE0785
:10112000EDE1F5E01182108284E590E00E948B06EB
:1011300040E060E087E60E945E070E94EE07F8CF7D
:101140001F920F920FB60F9211242F933F934F933C
:101150005F936F937F938F939F93AF93BF93EF931F
:10116000FF9380919D0490919E04019690939E041C
:1011700080939D048DE994E00E945008E2EFF4E032
:10118000808191819C012F5F3F4F31832083883E76
:10119000934048F01092F3041092F20480911605E7
:1011A00081608093160580919C048B3020F48F5FC2
:1011B00080939C0407C010929C04E6EFF4E0878DB6
:1011C0008160878F80911F0590919F04891799F105
:1011D00080939F04E7E1F5E08481958101969583F2
:1011E000848380919B04863020F48F5F80939B04DE
:1011F00007C010929B04E6EFF4E0878D8460878F30
:10120000E7E1F5E0838191E0980F93838C3398F0C8
:101210001382828191E0980F92838C3360F0128266
:10122000808191810196918380836081718182E0C8
:1012300090E00E94D309EBE2F5E0918189B38095BB
:10124000282F292790919A049223892F80958093A3
:101250009A04909199049223982790939904822359
:101260008923918198279183218190818223892BE1
:101270008083818188233CF085E990E090939804F5
:101280008093970412C080919704909198040197DD
:101290009093980480939704892B39F4EBE2F5E05E
:1012A000818192818078892B828380E80E941E0848
:1012B000882319F081E080931E0580E80E941408BD
:1012C000882319F081E080931D05FF91EF91BF9174
:1012D000AF919F918F917F916F915F914F913F91CE
:1012E0002F910F900FBE0F901F9018951F920F9285
:1012F0000FB60F9211242F938F939F93AF93BF93A9
:10130000EF93FF93E0E6F4E0818924E08202C001DC
:1013100011248F70818BCE9B03C081898260818B69
:10132000CD9B05C0E0E6F4E081898160818BA0E679
:10133000B4E05196EC9151970E2E000CFF0BE05A41
:10134000FB4F808150969C915097890F50968C93BB
:10135000FF91EF91BF91AF919F918F912F910F903E
:101360000FBE0F901F901895E199FECF9FBB8EBBCB
:10137000E09A99278DB30895A8E1B0E042E050E0EB
:101380000C94ED09262FE199FECF9FBB8EBBE09A0E
:1013900001970DB2021631F02DBB0FB6F894E29A08
:1013A000E19A0FBE08950196272F0E94C3090C945D
:1013B000C209262FE199FECF9FBB8EBB2DBB0FB676
:1013C000F894E29AE19A0FBE019608950E94D90915
:1013D000272F0C94DA09DC01CB01FC01E199FECF47
:1013E00006C0FFBBEEBBE09A31960DB20D924150A4
:0A13F0005040B8F70895F894FFCFBD
:1013FA0030784646000000000000000000000000AF
:10140A0000000000000000000000000000000000D2
:10141A0000000000000000000000000000000000C2
:10142A0000000000000000000000000000000000B2
:10143A0000000000000000000000000000000000A2
:1017FA0000000000000000000100000000FF0000DF
:10180A000000AE2000B0C800104081FFA1A6A83F8A
:0E181A00A4D300D5F0D900DA12DB208D04AF84
:00000001FF
