:100000000C94FF090C941C0A0C941C0A0C941C0AF6
:100010000C94D1100C941C0A0C941C0A0C94FB0F29
:100020000C941C0A0C941C0A0C941C0A0C941C0AB8
:100030000C941C0A0C941C0A0C941C0A0C941C0AA8
:100040000C941C0A0C941C0A0C941C0A0C941C0A98
:100050000C941C0A13AA0A20206006070B130F1425
:100060001105080808100408050B0E0A0D0E0F0EE6
:100070000E0C0E0E05050F0F0F0F17100F0F0F0BA5
:100080000B0F0F06090F0A140E0E0E0E0E0F0E0F99
:1000900010190E0F0C070D070F12070E0F0E0F0E83
:1000A000090F0F06070E06170F0E0F0F0A0D0A0F86
:1000B0000F150D0E0B0A030A0F10000000000000C0
:1000C0000000000000000000000000000000000030
:1000D0000000FCFCFCFCFCFCFC07FFFFFFFFFF0733
:1000E00000DFDFDFDFDFC000070707070707FCFCD3
:1000F000FCFCFC00FCFCFCFCFC0003030300000017
:1001000003030300000000000000000000000000E6
:10011000000000000000000000000000000000C01F
:10012000F0F0300000000000C0F0F030001C1C1C9B
:100130009CFCFF7F1F1C1C1C1C9CFCFF7F1F1C1CAD
:100140001C1CFCFFFF1F1C1C1C1C1CFCFFFF1F1C9D
:100150001C1C1C0007070700000000000007070721
:10016000000000000000E0F0F8F8FCFC3F3FFFFC5E
:10017000FCF8F0E000071F3F7F7FFFFCFCF9F1F186
:10018000E1C181007CFCFCFCFCFC808183FFFFFF63
:10019000FFFF7F0001030307071F1F1F070703035C
:1001A0000100F0F8FCFC0CFCFCF8F0000000E0FCA6
:1001B0001C04000000003F7FFFFFC0FFFF7F3FE007
:1001C000FC9FC7E0E060E0E0C080000000000000AD
:1001D000E0FC1F0700FFFFFFFF00FFFFFFFF000025
:1001E00000000407070000000001030707060707D7
:1001F00003010000008080C0C0C0C0C0C0800000FB
:10020000000000003E7FFFFFFFFFE1E1FFFFFF7FF7
:100210001E000000FCFEFEFFFFFF8F8FBFFFFFFFF1
:10022000FFF8F8BC3C0001030707070707070303B3
:10023000070707070706FCFCFCFCFC0003030300A0
:1002400000000000000000000000F0F8FCFCFCFCD6
:100250001C1CFFFFFFFFFFFF0000FFFFFFFFFFFF72
:10026000000001030707070707071C1CFCFCFCFC38
:10027000F8F00000FFFFFFFFFFFF0000FFFFFFFFA0
:10028000FFFF070707070707030110B0F0FCFCF0AA
:10029000B01000000100000100000000000000009C
:1002A000000000000000000000000000000000004E
:1002B000C0C0C0C0000000000000F0F0F0F0F0F09E
:1002C000FFFFFFFFF0F0F0F0F0F000000000000092
:1002D0003F3F3F3F00000000000000000000000022
:1002E000000000000000000000000000000000000E
:1002F0000000C0C0C0C0373F1F0F0000000000005A
:1003000000008080808080808080070707070707C3
:1003100007070000000000000000000000000000CF
:1003200000000000C0C0C0C0C007070707070000EA
:10033000000000E0FEFEFEFE1E000000F0FFFFFFDA
:10034000FF1F010080F0FFFFFFFF0F00000000070C
:1003500007070707000000000000C0F0F8F8FCFCE9
:100360003C3CFCFCF8F8F0C0FFFFFFFFFFFF000083
:10037000FFFFFFFFFFFF7FFFFFFFFFFF8080FFFF0B
:10038000FFFFFF7F000103030707070707070303BA
:100390000100C0C0E0E0F0F0F8FCFCFC010101034A
:1003A000FFFFFFFFFFFF00000000FFFFFFFFFFFF59
:1003B00000000000070707070707C0F0F8FCFC3C37
:1003C0003CFCFCF8F8F0C00707070707E0F8FFFF60
:1003D000FFFF3F0F00C0F0FCFFFFFFBF8F87818052
:1003E0000007070707070707070707070700F0F8D1
:1003F000F8FCFCFC3C3CFCFCFCF8F0E001010101D9
:10040000017978F8FFFFFFEFEFC7FEFEFEFEFEFE6C
:100410008080FFFFFFFFFF7F00010303070707073F
:1004200007070303010000000080F0FCFCFCFCFC5B
:10043000FCFCFC000000E0FCFF7F0700FFFFFFFF6B
:10044000FFFF00007F7F7F7F7E7E7EFFFFFFFFFF3D
:10045000FF7E7E0000000000000007070707070777
:100460000000FCFCFCFCFCFC3C3C3C3C3C3C3C3CC4
:100470007F7F7F7F7F7F1C1EFEFEFEFEFCF07CFCEC
:10048000FCFCFCFC8080FFFFFFFFFFFF000103037B
:1004900007070707070703030100C0F0F8F8FCFC93
:1004A0003C3CFCFCF8F8F0C0FFFFFFFFFFFF70785A
:1004B000F9F9F9F9F1E17FFFFFFFFFFF8080FFFF0E
:1004C000FFFFFFFF000103030707070707070303F9
:1004D00001003C3C3C3C3C3CFCFCFCFCFCFC0000CB
:1004E000000080F8FFFFFFFF3F01000000F0FFFF6A
:1004F000FFFFFF07000000000607070707070000CF
:100500000000E0F0F8F8FCFC3C3CFCFCFCF8F0E0FF
:1005100087EFFFFFFFFF7878FFFFFFEFEF877FFF99
:10052000FFFFFFFF8080FFFFFFFFFFFF00010303CE
:1005300007070707070703030100E0F0F8F8FCFCD2
:100540003C3CFCFCF8F8F0C0FFFFFFFFFFFFC0C021
:10055000FFFFFFFFFFFF70F1F3F3F3F38381FFFF72
:10056000FFFFFF7F000103030707070707070303D8
:1005700001000000000000F8F8F8F8F8C0C0C0C0A2
:10058000C007070707070000000000F8F8F8F8F8B0
:10059000C0C0C0C0C0373F1F0F07000000000000F0
:1005A000000000000000000080E0F0F0F0F8F8FC2F
:1005B000BCBC1E1E1F0F0F0700010101030307072C
:1005C000070F0F1F1E1E3C0000000000000000006F
:1005D000000000000000000000000000000000001B
:1005E00000000000009E9E9E9E9E9E9E9E9E9E9E41
:1005F0009E9E9E9E0707070707070707070707072F
:1006000007070700000000000000000000000000D5
:10061000000080000000000000000000000000005A
:1006200000070F0F1F1E1EBCBCFCF8F8F0F0F0E036
:100630003C1E1E1F0F0F07070703030101010000E7
:100640000000000000000000000000000000C0F0FA
:10065000F8F8FCFC3C3C3CFCFCF8F0E0C0C3C3C335
:10066000C3C3C3000000FFFFFFFFFFFFDFDFDFDFCB
:10067000DFDF070F0F0F0F0F070701070707070738
:1006800007000000000000000000000080C0E070D3
:1006900038989CCCCCCCCC8C0CDCD8F830E0C0802A
:1006A00000F8FE0701F0FCFF1F0301000000C3FF7C
:1006B000FFFF01000003FFFE073F78E0871F3F7048
:1006C000606060303C3F7F7F606030988E87810043
:1006D000000001010307060E0C0C0C0C0C0C0E069E
:1006E0000607030101000000C0FCFCFCFC7CFCFCD4
:1006F000FCFCC000000000F0FFFFFFFF1F001FFF19
:10070000FFFFFFF00000FCFFFFFFFF3F3C3C3C3FD2
:10071000FFFFFFFFFC0007070707070000000000BE
:10072000070707070707FCFCFCFCFCFC3C3C7CFCC7
:10073000FCF8F8F0E0FFFFFFFFFFFFF0F0F0FFFF35
:10074000FFDFDF0FFFFFFFFFFFFF808080FFFFFF66
:10075000FFFFFF0707070707070707070707070741
:100760000301C0F0F8F8FCFC3C3C3CFCFCF8F8F061
:10077000C0FFFFFFFFFFFF0000000F0F0F0F0F0F65
:100780007FFFFFFFFFFF808080FFFFFFFFFF7F00F5
:100790000103030707070707070703010000FCFC25
:1007A000FCFCFCFC3C3C3CFCFCF8F8F0E0FFFFFFF0
:1007B000FFFFFF000000FFFFFFFFFFFFFFFFFFFF46
:1007C000FFFF8080C0FFFFFFFFFFFF07070707074E
:1007D00007070707070707030301FCFCFCFCFCFCF9
:1007E0007C7C7C7C00FFFFFFFFFFFFF8F8F8F8003F
:1007F000FFFFFFFFFFFFC0C0C0C0C007070707071C
:10080000070707070707FCFCFCFCFCFC7C7C7C7CE6
:100810007CFFFFFFFFFFFFF8F8F8F8F8FFFFFFFF8E
:10082000FFFF0000000000070707070707000000A0
:100830000000C0F0F8F8FCFC3C3C3CFCF8F8F0F0A0
:10084000C0FFFFFFFFFFFF0000C0CFCFCFCFCFCF54
:100850007FFFFFFFFFFF808083FFFFFFFFFFFF00A1
:100860000103030707070707030107070707FCFC46
:10087000FCFCFCFC000000FCFCFCFCFCFCFFFFFFA3
:10088000FFFFFFF8F8F8FFFFFFFFFFFFFFFFFFFF8D
:10089000FFFF000000FFFFFFFFFFFF07070707073D
:1008A00007000000070707070707FCFCFCFCFCFC2F
:1008B000FFFFFFFFFFFFFFFFFFFFFFFF0707070728
:1008C0000707000000FCFCFCFCFCFC000000FFFF34
:1008D000FFFFFFFF808080FFFFFFFFFFFF0707078D
:1008E000070707070301FCFCFCFCFCFC0000E0FC24
:1008F000FCFCFCFC1CFFFFFFFFFFFFFCFFFFFFFFFA
:100900009F030000FFFFFFFFFFFF031FFFFFFFFF2D
:10091000FCE00007070707070700000007070707B5
:100920000707FCFCFCFCFCFC00000000FFFFFFFFD5
:10093000FFFF00000000FFFFFFFFFFFFC0C0C0C0BF
:1009400007070707070707070707FCFCFCFCFCFC79
:10095000FCFCFC800080FCFCFCFCFCFCFCFCFFFFC5
:10096000FFFFFFFF03FFFFFFC0FFFF03FFFFFFFFCE
:10097000FFFFFFFFFFFFFFFF001FFFFFFFFF1F0045
:10098000FFFFFFFFFFFF0707070707070000070735
:1009900007070000070707070707FCFCFCFCF8C077
:1009A0000000FCFCFCFCFCFCFFFFFFFFFFFFFEF077
:1009B000FFFFFFFFFFFFFFFFFFFFFFFF010F7FFFB5
:1009C000FFFFFFFF070707070707000000030707F0
:1009D0000707C0F0F8F8FCFC3C3CFCFCF8F8F0C061
:1009E000FFFFFFFFFFFF0000FFFFFFFFFFFF7FFF95
:1009F000FFFFFFFF8080FFFFFFFFFF7F000103037A
:100A000007070707070703030100FCFCFCFCFCFCCD
:100A10003C3CFCFCFCF8F8E0FFFFFFFFFFFFE0E0E0
:100A2000FFFFFFFFFF7FFFFFFFFFFFFF010101014E
:100A3000010000000707070707070000000000008B
:100A40000000C0F0F8F8FCFC3C3CFCFCF8F8F0C0FE
:100A5000FFFFFFFFFFFF0000FFFFFFFFFFFF7FFF24
:100A6000FFFFFFFF8080FFFFFFFFFF7F0001030309
:100A700007071F3F3F3F39393838FCFCFCFCFCFCC2
:100A80003C3CFCFCFCF8F0E0FFFFFFFFFFFFF0F058
:100A9000FFFFFFBFBF1FFFFFFFFFFFFF0000FFFFC4
:100AA000FFFFFFFF07070707070700000707070704
:100AB0000707E0F0F8F8FCFC3C3CFCFCF8F8F0E040
:100AC000000F1F3F7FFFFFFCFCFBF3F3E3C383003A
:100AD0007CFCFCFCFCFC818383FFFFFFFFFFFE002E
:100AE00001030307070707070707030301007C7CCF
:100AF0007C7CFCFCFCFCFCFC7C7C7C7C0000000026
:100B0000FFFFFFFFFFFF0000000000000000FFFFED
:100B1000FFFFFFFF000000000000000007070707BD
:100B2000070700000000FCFCFCFCFCFC000000FCD3
:100B3000FCFCFCFCFCFFFFFFFFFFFF000000FFFFD1
:100B4000FFFFFFFF7FFFFFFFFFFF808080FFFFFFB2
:100B5000FFFF7F00010303070707070707070303DA
:100B60000100FCFCFCFCFCE0000000E0FCFCFCFCE8
:100B7000FC3C07FFFFFFFFFFE000E0FFFFFFFFFF80
:100B80003F0000017FFFFFFFFFF0FFFFFFFFFF1FA0
:100B9000000000000007070707070707070707000F
:100BA00000003CFCFCFCFCFC000000F0FCFCFCFC3D
:100BB000FCF0000000FCFCFCFCFC3C003FFFFFFFE5
:100BC000FFFF00F0FFFFFF1FFFFFFFE000FFFFFF41
:100BD000FFFF3F0000003FFFFFFFFFF0FFFFFF07A9
:100BE0000007FFFFFFE0FFFFFFFF3F0000000000E6
:100BF00007070707070707030000000307070707A2
:100C0000070707000000FCFCFCFCF0800080F0FC03
:100C1000FCFCFC1C0003FFFFFFFFFCFFFFFFFF03CA
:100C20000000F0FEFFFFFF0F011FFFFFFFFEF000BF
:100C300007070707000000000107070707077CFCFC
:100C4000FCFCFC80000080FCFCFCFC7C0C00031F16
:100C5000FFFFFFF8F8FFFFFF1F0300000000000088
:100C6000FFFFFFFFFFFF0000000000000000000783
:100C700007070707070000000000007C7C7C7C7CE5
:100C8000FCFCFCFCFCFC000000E0F8FFFFFFFF3F69
:100C90000700C0F8FFFFFFFFFFCFC1C0C0C00707BC
:100CA00007070707070707070707FCFCFCFCFCFC16
:100CB0003CFFFFFFFFFFFF00FFFFFFFFFFFF80077D
:100CC000070707070707063EFEFEFEF8C000000004
:100CD0000000000000031FFFFFFFFEF00000000007
:100CE0000000000000077FFFFFFFF8C000000000C9
:100CF000000000000307070707063CFCFCFCFCFCA7
:100D0000FC00FFFFFFFFFFFF80FFFFFFFFFFFF076C
:100D100007070707070700000080E0F8FCFCFCF865
:100D2000E08000000020383E3F3F0F0300030F3FEC
:100D30003F3E3820000000000000000000000000DE
:100D400000000000000000000000000000000000A3
:100D50000000000000000000000000000000000093
:100D60000000000000000000000000000000000083
:100D70000000000000000000000000000000000073
:100D80000000000000000000606060606060606063
:100D9000606060606060606060600103070F0E0C5F
:100DA000080000000000000000000000000000003B
:100DB00000000000000000008080C0C0C0C0C0C0B3
:100DC000C08000003E3F3F3FBF83C3C3FFFFFFFF24
:100DD000FFFEFCFEFFFFFF838381FFFFFFFFFFFF9E
:100DE0000103070707070301070707070707FCFCBD
:100DF000FCFCFCFC0080C0C0C0C0C08000FFFFFF46
:100E0000FFFFFF030303FFFFFFFFFFFFFFFFFFFFE6
:100E1000FFFF808080FFFFFFFFFFFF070707070737
:100E20000701030707070707030100008080C0C010
:100E3000C0C0C0C080800000FEFFFFFFFFFF0303B3
:100E4000033F3F3F3F3C7FFFFFFFFFFF808080FC71
:100E5000FCFCFC7C000103030707070707070303EB
:100E600001000080C0C0C0C0C08000FCFCFCFCFCD5
:100E7000FCFFFFFFFFFFFF030303FFFFFFFFFFFF79
:100E8000FFFFFFFFFFFF808080FFFFFFFFFFFF01ED
:100E900003070707070703010707070707070000FE
:100EA0008080C0C0C0C0C0C080800000FCFFFFFFC9
:100EB000FFFFC3C3FFFFFFFFFFFC7FFFFFFFFFFF3D
:100EC0008181FDFDFDFDFD7D00010303070707078F
:100ED00007070303010080F0F8FCFCFC9C9C9C03CA
:100EE000FFFFFFFFFFFF030300FFFFFFFFFFFF0008
:100EF000000007070707070700000080C0C0C0C048
:100F0000C08000C0C0C0C0C0C0FFFFFFFFFFFF0324
:100F10000303FFFFFFFFFFFF3F7FFFFFFFFFF070B7
:100F200070FFFFFFFFFFFF061E1E3E3E3E3C3C3CA7
:100F30003F3F1F1F0F07FCFCFCFCFCFC8080C0C077
:100F4000C0C0C08000FFFFFFFFFFFF030303FFFFE0
:100F5000FFFFFFFFFFFFFFFFFFFF000000FFFFFF9E
:100F6000FFFFFF070707070707000000070707073E
:100F70000707DCDCDCDCDCDCFFFFFFFFFFFFFFFF43
:100F8000FFFFFFFF07070707070700DCDCDCDCDCEF
:100F9000DC00FFFFFFFFFFFF00FFFFFFFFFFFF3849
:100FA0003F3F3F3F1F0FFCFCFCFCFCFC000000C06F
:100FB000C0C0C040FFFFFFFFFFFFF0FCFFFF1F07A7
:100FC0000100FFFFFFFFFFFF031FFFFFFFF8C0004F
:100FD0000707070707070000000707070706FCFCCD
:100FE000FCFCFCFCFFFFFFFFFFFFFFFFFFFFFFFF1D
:100FF000070707070707C0C0C0C0C0C00080C0C047
:10100000C0C080000080C0C0C0C0C08000FFFFFF23
:10101000FFFFFF030303FFFFFFFFFF030303FFFFC8
:10102000FFFFFFFFFFFFFFFFFFFF000000FFFFFFCD
:10103000FFFF000000FFFFFFFFFFFF070707070795
:10104000070000000707070707000000070707075A
:101050000707C0C0C0C0C0C00080C0C0C0C0C08042
:1010600000FFFFFFFFFFFF030303FFFFFFFFFFFF83
:10107000FFFFFFFFFFFF000000FFFFFFFFFFFF0775
:101080000707070707000000070707070707000013
:101090008080C0C0C0C0C0C080800000FCFFFFFFD7
:1010A000FFFF0303FFFFFFFFFFFCFFFFFFFFFFFF4B
:1010B0008080FFFFFFFFFF7F000103030707070793
:1010C000070703030100C0C0C0C0C0C00080C0C08B
:1010D000C0C0C08000FFFFFFFFFFFF030303FFFF4F
:1010E000FFFFFFFFFFFFFFFFFFFF808080FFFFFF8D
:1010F000FFFFFF3F3F3F3F3F3F0103070707070752
:1011000003010080C0C0C0C0C08000C0C0C0C0C05B
:10111000C0FFFFFFFFFFFF030303FFFFFFFFFFFF12
:10112000FFFFFFFFFFFF808080FFFFFFFFFFFF004B
:1011300003030707070703013F3F3F3F3F3FC0C08F
:10114000C0C0C0C00080C0C0FFFFFFFFFFFF3F1F47
:101150001F1FFFFFFFFFFFFF00000000070707073B
:10116000070700000000008080C0C0C0C0C0C0C031
:101170008080007EFFFFFFFFFFE3C3839F1F1F1ED2
:10118000F0F0F1F1838787FFFFFFFFFEFC00030310
:101190000707070707070703030080F8F8F8F8F8C0
:1011A000F880808003FFFFFFFFFFFF03030300FFC2
:1011B000FFFFFFFFFF00000000010307070707070D
:1011C0000707C0C0C0C0C0C0000000C0C0C0C0C0D1
:1011D000C0FFFFFFFFFFFF000000FFFFFFFFFFFF5B
:1011E000FFFFFFFFFFFF808080FFFFFFFFFFFF018A
:1011F0000307070707070301070707070707C0C01B
:10120000C0C0C0C0000000C0C0C0C0C0C003FFFF5D
:10121000FFFFFFE000E0FFFFFFFFFF030001FFFF14
:10122000FFFFFFC0FFFFFFFFFF01000000000707F7
:1012300007070707070707000000C0C0C0C0C000BD
:101240000000C0C0C0C0C0000000C0C0C0C0C0011D
:10125000FFFFFFFFF800F0FFFFFFFFFFF000F8FFC8
:10126000FFFFFF0100003FFFFFFFF8FFFF3F003FD0
:10127000FFFFF8FFFFFF3F00000000000707070720
:101280000707000000070707070707000000C0C0A6
:10129000C0C0C0000000C0C0C0C0C0030F7FFFFFBF
:1012A000FCC0FCFFFF7F0F0380F0FEFFFFFF077F06
:1012B000FFFFFEF08007070707070000000707078A
:1012C0000707C0C0C0C0C000000000C0C0C0C0C090
:1012D000000FFFFFFFFC0000E0FFFFFFFF0000002A
:1012E000000FFFFFFFE0FFFFFFFF010000003838A5
:1012F000393F3F3F3F1F0F01000000C0C0C0C0C0CA
:10130000C0C0C0C0C0000303C3FBFFFFFFFF3F0F0F
:10131000E0F8FFFFFFFFBF8F818080070707070707
:10132000070707070707000000E0F8F8FC3C3C3C13
:101330008080C0FFFFFF3F00000007071FFFFFFC8A
:10134000F00000000000001F7F7FFFF0F0F0FCFCC9
:10135000FCFFFFFFFFFFFF7F7F7F3C3C3CFCF8F87A
:10136000E00000000000003FFFFFFFE08080000081
:1013700000F0FCFFFF0F0707F0F0F0FF7F7F1F007A
:10138000000000000000000000000000000000005D
:1013900000F0787C3C3C3C7C78F8F0F0F0F8783C4D
:1013A000000000000000000000000000000000003D
:1013B000000000000000000000000000000080802D
:1013C0008080808080808080808080808080FF001E
:1013D00000000000000000000000000000FFFF000F
:1013E00000000000000000000000000000FF0704F3
:1013F000040404040404040404040404040711247D
:101400001FBECFE5D8E0DEBFCDBF14E0A0E6B0E060
:10141000E0EBF2E202C005900D92AE38B107D9F7C9
:1014200025E0AEE8B4E001C01D92AD33B207E1F7AC
:101430000E94B50F0C9456110C940000FC01DC01C5
:101440005C969C01285E3F4F8FEF80831D92118236
:1014500012821382148215823696E217F307A9F7D7
:1014600080E00895FC01628F438F808D918D8431DF
:101470009105B8F4643088F4DF01A60FB11D5C96C5
:101480002C91253008F048C0442349F038C0DF01D2
:10149000A20FB31F5C961C9217C082E0089584E0EF
:1014A0000895262F30E0D901AA0FBB1FA20FB31F4A
:1014B000AA0FBB1FAE0FBF1F6C93DF01A20FB31F9C
:1014C0005C965C91553018F7DF01A20FB31F5C9654
:1014D0005C915C970196918F808F81E0850F5C967F
:1014E0008C93C901880F991F820F931F880F991F32
:1014F000E80FF91FE50FF11D418380E00895262FC5
:1015000030E0D901AA0FBB1FA20FB31FAA0FBB1F48
:10151000AE0FBF1F6C93D8CF262F30E0D901AA0F92
:10152000BB1FA20FB31FAA0FBB1FAE0FBF1F6C9331
:10153000AECFEF92FF920F931F93CF93DF93C62FFF
:101540007A01122F0E94830C8C2F0E948C0C88230E
:1015500031F042E063E08EEA94E00E94320A112307
:10156000B1F0E7011150012F10E00F5F1F4F0E0D7A
:101570001F1D89910E948C0C882331F043E063E0A9
:101580008EEA94E00E94320AC017D10791F70E94B8
:10159000A70C80E0DF91CF911F910F91FF90EF900A
:1015A0000895DF92EF92FF920F931F93CF93DF93F3
:1015B000C82FD62F7A01D22E0E94830C8D2F0E9425
:1015C0008C0C882331F042E063E08EEA94E00E94C4
:1015D000320A0E94A70C81E0D81208C08C0F0E942A
:1015E000830C0E94A00CF70180831BC081E08C0F4C
:1015F0000E94830CDD2071F0E7010FEF0D0D10E06C
:101600000F5F1F4F0E0D1F1D0E94990C8993C0176D
:10161000D107D1F7D394E701CD0DD11D0E94A00CC5
:1016200088830E94A70C80E0DF91CF911F910F91DA
:10163000FF90EF90DF900895AB01BC01411551057B
:101640006105710589F080E090E0DC01EFECF7E0E6
:101650003197F1F700C000000196A11DB11D481798
:1016600059076A077B0791F70895EEECF4E089E9E2
:101670009AE091A780A781ED9AE093A782A78EEECA
:10168000828F8CE19BE095A784A780E00895CF939B
:10169000DF93CDB7DEB766970FB6F894DEBF0FBE07
:1016A000CDBFAE014F5F5F4F86E1FA0111928A957F
:1016B000E9F7A0918E04B0918F049A96ED91FC9178
:1016C0009B9726E16AEA5A968C910995E0918E04DF
:1016D000F0918F044981042E000C550B660B770B9B
:1016E000762F652F542F44272A8130E0422B532B2D
:1016F000518340834B81042E000C550B660B770BF6
:10170000762F652F542F44272C8130E0422B532B0A
:10171000538342834D81042E000C550B660B770BCF
:10172000762F652F542F44272E8130E0422B532BE8
:10173000558344832F8130E0322F22279885292B2F
:1017400037832683298530E0322F22279A85292B5B
:10175000318720872B8530E0322F22279C85292B4B
:10176000338722874D85042E000C550B660B770BB3
:10177000762F652F542F44272E8530E0422B532B94
:10178000558744874F85042E000C550B660B770B4D
:10179000762F652F542F4427288930E0422B532B76
:1017A000578746874989042E000C550B660B770B2B
:1017B000762F652F542F44272A8930E0422B532B54
:1017C000518B408B4B89042E000C550B660B770B0D
:1017D000762F652F542F44272C8930E0422B532B32
:1017E000538B428B4D89042E000C550B660B770BE7
:1017F000762F652F542F44272E8930E0422B532B10
:10180000558B448B66960FB6F894DEBF0FBECDBFE6
:10181000DF91CF9108950F931F93CF93DF931F9282
:10182000CDB7DEB78C010E94350B198210938F045F
:1018300000938E04D8019A96ED91FC919B9721E03C
:10184000AE014F5F5F4F60ED5A968C910995182F4E
:10185000A0918E04B0918F04898157968C935797ED
:1018600041E050E060E070E090964D935D936D93A1
:101870007C93939795961C921E92949797961C92A0
:101880001E9296979A96ED91FC919B9721E0AE015E
:101890004F5F5F4F61ED5A968C910995180FE0915B
:1018A0008E04F0918F049981892F8F70808F92958B
:1018B0009F70918F0E94470B810F0F90DF91CF9106
:1018C0001F910F91089582E080B9089516BE94EAA1
:1018D00096BF06B607FEFDCF91B1987F983079F498
:1018E00083B984E886BF06B607FEFDCF91B1987F25
:1018F000983139F081E0903429F480E0089581E056
:10190000089580E00895CF93C82F8C2F0E94660C15
:101910008111FBCFCF91089583B984E886BF06B6C5
:1019200007FEFDCF91B1987F81E0983209F480E005
:10193000089584EC86BF06B607FEFDCF83B10895F7
:1019400084E886BF06B607FEFDCF83B1089584E91B
:1019500086BF0895BF92CF92DF92EF92FF920F93CE
:101960001F93CF93DF93EC017B01F89488E70E94EB
:10197000660CB82E811109C0E114F10409F44EC0BF
:1019800081E0E816F10449F510C080919A04816065
:1019900080939A04ECEFF4E080818F5F80830E9453
:1019A000A70C7894BB24B39441C088810E948C0C0E
:1019B000811103C0109299040CC010929904809177
:1019C0009A04886080939A04ECEFF4E083818F5F3F
:1019D00083830E94A70C789429C08E01C0E0D0E0D8
:1019E0000F2EFCEFCF2EF4E0DF2EF02D2196F80124
:1019F00081918F010E948C0C80939904882391F02F
:101A00001092990480919A04886080939A04F60158
:101A100083818F5F8383CE15DF0540F30E94A70C7F
:101A2000789404C0CE15DF0508F3F8CF8B2DDF9135
:101A3000CF911F910F91FF90EF90DF90CF90BF90CB
:101A40000895EBE9F4E01082818362E070E0CF0159
:101A50000E94AA0C08959093910480939004089595
:101A60001F93CF93DF93DB0113961C921E92129764
:101A700040919004509191049A012D5F3F4FF901DC
:101A8000249130E015963C932E931497C0919604C0
:101A9000D09197042796D695C795D695C795D69594
:101AA000C7951696CC9316979A012C5F3F4FF90174
:101AB0009491891BFA019491992331F0FA0135969A
:101AC000149181111DC037C09A012F5F3F4FF9015A
:101AD00094919111F3CF3196249130E013963C9379
:101AE0002E931297C89FE0011124C29FC001C39F8B
:101AF000900DD29F900D112406968D939C9339C022
:101B00006FEF680F70E0695F7F4F26E030E0E09193
:101B10009004F0919104E20FF31F94914D915C9128
:101B20001197490F511D11965C934E932F5F3F4FB4
:101B30006217730761F72D913C911197C29FA00125
:101B4000C39F500D1124212F30E02A5F3F4F240FF7
:101B5000351F11963C932E93E0919004F0919104DF
:101B6000E80FF11D3696849190E013969C938E9326
:101B70001297DF91CF911F91089580E094E0E0E605
:101B8000F0E0DF019C011D9221503040E1F7089503
:101B90000F931F93CF93DF93C2E7D4E00EE814E0D6
:101BA00089910E94210DC017D107D1F70E94BD0D68
:101BB000DF91CF911F910F910895FC01F695E79564
:101BC000F695E795F695E795F695FE2FEE27F795AE
:101BD000E795E60FF71FE05AFF4F9C012770332768
:101BE00081E090E002C0880F991F2A95E2F790816A
:101BF000892B8083089596958795969587959695D8
:101C000087959695982F882797958795805A9F4F07
:101C1000FC01E60FF71F10820895FC01F695E79589
:101C2000F695E795F695E795F695FE2FEE27F7954D
:101C3000E795E60FF71FE05AFF4F9C012770332707
:101C400081E090E002C0880F991F2A95E2F7809505
:101C500090818923808308950F931F93CF93DF93FF
:101C600080E00E94210D80E10E94210D80E40E940D
:101C7000210DF89488E70E94660C80E40E948C0C89
:101C8000C0E6D0E000E614E089910E948C0CC017F9
:101C9000D107D1F70E94A70C7894DF91CF911F91C3
:101CA0000F9108952F923F924F925F926F927F9281
:101CB0008F929F92AF92BF92CF92DF92EF92FF925C
:101CC0000F931F93CF93DF9300D000D01F92CDB717
:101CD000DEB769834A83109297041092960410929B
:101CE0009804A2E9B4E011961C921E9210929504F9
:101CF00010929404BD010E94300D809198048823B5
:101D000009F4C1C0212C0F2EF2E9EF2EF4E0FF2ED2
:101D1000F02D222D30E090E001972817390781F44B
:101D2000F70184818770782E89F088E090E0871928
:101D300091094424439401C0440C8A95EAF70BC0EE
:101D40006894772473F84424439405C068947724F6
:101D500073F844244394FA810F2F10E0D7011296B0
:101D60008D919C911397892B09F459C0B981AB2EA1
:101D7000B12C6501D694C794D694C794D694C794D1
:101D8000D694DC2CCC24D794C794C601800F911F25
:101D9000FC01E05AFF4F6F01512CB7703B2EE091D0
:101DA0009004F0919104D7018D919C9111979C0121
:101DB0002F5F3F4F2D933C93E80FF91F6490332022
:101DC00019F0711005C01CC0B8E07B12FACF16C024
:101DD00045014D821B828D81862121F0B801C4010D
:101DE0000E94DD0DED81EE0FED83FB81FF5FFB8334
:101DF0002FEF821A920A7F12EECF02C0D6016C92A8
:101E00000F5F1F4F5394BFEFCB1ADB0A252D30E035
:101E1000F701828193812817390708F4C0CF89819F
:101E2000877019F0711005C024C0F8E07F12FACF56
:101E30001AC03981232F30E03C832B837A946901C7
:101E40008FEFC81AD80AC70CD11CB8018B819C81AE
:101E50000E940D0EAB81BC811196BC83AB83CA1668
:101E6000DB0699F706C0B801B9818B2F90E00E947C
:101E7000FB0DE981E85FE9832394D70116968C91E5
:101E8000281608F446CF0F900F900F900F900F90E8
:101E9000DF91CF911F910F91FF90EF90DF90CF9046
:101EA000BF90AF909F908F907F906F905F904F907A
:101EB0003F902F900895F894E9E3F5E0908189230D
:101EC00090819827908378940895F894E9E3F5E059
:101ED000928189239281982792837894089580E053
:101EE00090E00E940F1191E08A3A09F490E0892F66
:101EF00008950E946F0F882359F060E070E082E03F
:101F000090E00E9441116AEA80E090E00E94341162
:101F100082E090E00E94171190932605809325059A
:101F200081E090E00E940F1180933C050895FC0130
:101F3000208131812230310510F4D9980895233061
:101F4000310511F4D99A08952930310511F4D99841
:101F500008952B30310511F4D99A0895253F314069
:101F600018F0FC01118210820895D19AD99A0E942A
:101F7000790F0E94630C0E94C80D8EEC94E00E94C1
:101F80000B0C8EEA94E00E941E0A8BE08EBD80E965
:101F900089BF81EE94E09BBD8ABD85B58C6085BD0F
:101FA0008CE783BD78940E94BD0D0E942C0EEBE25D
:101FB000F5E01182108284E590E00E942B0D40E054
:101FC0006AE081E30E94520E44E160E082E30E94F5
:101FD000520E48E26AE083E30E94520E4CE360E056
:101FE00084E30E94520E40E56AE085E30E94520EAF
:101FF0000E942C0EFFCF1F920F920FB60F9211244A
:102000002F933F934F935F936F937F938F939F9300
:10201000AF93BF93EF93FF938091AB049091AC0487
:1020200001969093AC048093AB048BEA94E00E94F9
:10203000970FE0E0F5E0808191819C012F5F3F4F99
:1020400031832083883E934048F01092010510921E
:102050000005809124058160809324058091AA0465
:102060008B3020F48F5F8093AA0407C01092AA04DB
:10207000E4E0F5E0878D8160878F80912D05909158
:10208000AD04891799F18093AD04E5E2F5E0848110
:1020900095810196958384838091A904863020F4EC
:1020A0008F5F8093A90407C01092A904E4E0F5E0D3
:1020B000878D8460878FE5E2F5E0838191E0980F5A
:1020C00093838C3398F01382828191E0980F9283EE
:1020D0008C3360F01282808191810196918380839C
:1020E0006081718182E090E00E942E11E9E3F5E0C9
:1020F000918189B38095282F29279091A804922354
:10210000892F80958093A8049091A7049223982703
:102110009093A70482238923918198279183218119
:1021200090818223892B8083818188233CF085E9FB
:1021300090E09093A6048093A50412C08091A5041A
:102140009091A60401979093A6048093A504892BEF
:1021500039F4E9E3F5E0818192818078892B8283EB
:1021600080E80E94650F882319F081E080932C0598
:1021700080E80E945B0F882319F081E080932B0593
:10218000FF91EF91BF91AF919F918F917F916F914F
:102190005F914F913F912F910F900FBE0F901F9025
:1021A00018951F920F920FB60F9211242F938F93B1
:1021B0009F93AF93BF93EF93FF93E0E6F4E08189A1
:1021C00024E08202C00111248F70818BCE9B03C05A
:1021D00081898260818BCD9B05C0E0E6F4E0818936
:1021E0008160818BA0E6B4E05196EC9151970E2E60
:1021F000000CFF0BE05AFB4F808150969C9150974A
:10220000890F50968C93FF91EF91BF91AF919F9161
:102210008F912F910F900FBE0F901F901895E199FD
:10222000FECF9FBB8EBBE09A99278DB30895A8E19E
:10223000B0E042E050E00C944811262FE199FECF27
:102240009FBB8EBBE09A01970DB2021631F02DBBF9
:102250000FB6F894E29AE19A0FBE08950196272FDF
:102260000E941E110C941D11262FE199FECF9FBBD9
:102270008EBB2DBB0FB6F894E29AE19A0FBE019681
:1022800008950E943411272F0C943511DC01CB01E5
:10229000FC01E199FECF06C0FFBBEEBBE09A319690
:1022A0000DB20D9241505040B8F70895F894FFCF09
:1022B00030784646000000000000000000000000EA
:1022C000000000000000000000000000000000000E
:1022D00000000000000000000000000000000000FE
:1022E00000000000000000000000000000000000EE
:1022F00000000000000000000000000000000000DE
:1026B00000000000000000000100000000FF00001A
:1026C0000000AE2000B0C800104081FFA1A6A83FC6
:0E26D000A4D300D5F0D900DA12DB208D04AFC0
:00000001FF
