:100000000C9453060C9470060C9470060C947006B5
:100010000C94BD1C0C9470060C9470060C94E71B99
:100020000C9470060C9470060C9470060C94700678
:100030000C9470060C9470060C9470060C94700668
:100040000C9470060C9470060C9470060C94700658
:100050000C94700600000507207F000000000000DF
:10006000005F00000007000700147F147F14242A9B
:100070007F2A122313086462364955225000050373
:100080000000001C2241000041221C00082A1C2AFA
:100090000808083E08080050300000080808080852
:1000A000006060000020100804023E5149453E00F7
:1000B000427F400042615149462141454B3118146D
:1000C000127F1027454545393C4A4949300171099D
:1000D00005033649494936064949291E0036360086
:1000E00000005636000000081422411414141414A1
:1000F00041221408000201510906324979413E7E2D
:100100001111117E7F494949363E414141227F41CB
:1001100041221C7F494949417F090901013E414172
:1001200051327F0808087F00417F41002040413F55
:10013000017F081422417F404040407F0204027F3B
:100140007F0408107F3E4141413E7F090909063E78
:100150004151215E7F09192946464949493101012A
:100160007F01013F4040403F1F2040201F7F20185B
:10017000207F631408146303047804036151494524
:100180004300007F4141020408102041417F0000EC
:1001900004020102044040404040000102040020EB
:1001A000545454787F4844443838444444203844B4
:1001B00044487F3854545418087E090102081454E6
:1001C000543C7F0804047800447D40002040443DB6
:1001D00000007F10284400417F40007C0418047810
:1001E0007C0804047838444444387C141414080807
:1001F0001414187C7C080404084854545420043F08
:100200004440203C4040207C1C2040201C3C40308E
:10021000403C44281028440C5050503C4464544CFA
:1002200044000836410000007F000000413608000D
:1002300008082A1C08081C2A080800000F1F2A1199
:1002400000000000000000000000000000000000AE
:10025000000000000000000000000000000000009E
:10026000000000000000000000000000000000008E
:10027000000000000000000000000000000000007E
:100280000000000000000000000000C0C0C0C0C0AE
:10029000C0FCFCFCFCC0C0C0C0C0000000000000EE
:1002A0000F0F0F0F00000000000000000000000012
:1002B000000000000000000000000000000000003E
:1002C000000000000000000000000000000000002E
:1002D000000000000000000000000000000000001E
:1002E0000000000000000000000000CFCF3F3F00F2
:1002F00000000000000000000000000000000000FE
:10030000000000C0C0C0C0C0C0C0C0C0C0C0C0C02D
:10031000C0C000000000000000000000000000005D
:1003200000000000000000000000000000000000CD
:1003300000000000000000000000000000000000BD
:1003400000000000000000000000000000000000AD
:10035000000000000000000000000000000000009D
:100360000000000F0F0F0F00000000000000000051
:10037000000000000000F0F0FFFF0F000000000090
:1003800000F0F0FFFF0F0F0000000000F0F0FFFF93
:100390000F0F00000000000000000F0F0F00000012
:1003A0000000000000000000F0F0FCFC0F0F030351
:1003B00003CFCFFCFCF0F0FFFFFFFF0000C0C03C0C
:1003C0003F03FFFFFFFFFFFFFFFF3C3C0303000075
:1003D00000FFFFFFFF000003030F0F0C0C0C0F0FBB
:1003E00003030000303030303C3CFFFFFFFF0000D3
:1003F000000000000000000000FFFFFFFF00000001
:100400000000000000000000FFFFFFFF00000000F0
:10041000000C0C0C0C0C0C0F0F0F0F0C0C0C0C0C1C
:10042000F0F0FCFC0F0F030303030FFFFCFCF000D4
:1004300000000000000000C0C0F0FF3F3F0FC0C040
:10044000F0F03C3C0F0F030300000000000F0F0F03
:100450000F0C0C0C0C0C0C0C0C0C0C0CF0F0FCFC31
:100460000F0F030303030F1FFCFCF000000000301C
:1004700030303030303030FFDF8FF0F0F0F00000FF
:10048000000000000080FFFFFF000003030F0F0CBF
:100490000C0C0C0F0F03030000000000F0F0FFFF36
:1004A0000F0F00000000000000FCFCFFFF0303C072
:1004B000C0C0C0000000FFFFFFFFC0C0C0C0FFFF02
:1004C000FFFFC0C0C000000000000000000F0F0FC1
:1004D0000F000000FFFFFFFF0303030303030303F9
:1004E0000303030F0F0F0F0C0C0C0C0C0C3CFCF057
:1004F000F0C0F0F0F0F000000000000000FFFFFF8F
:10050000FF000003030F0F0C0C0C0C0F0F03030074
:100510000000C0C0F0F03C3C0F0F0303030303FCDA
:10052000FCFFFF333330303030F0F0C0C000FFFF4D
:10053000FFFF00000000000000FFFFFFFF000003BE
:10054000030F0F0C0C0C0C0F0F030300030303032A
:1005500003030303030303FFFFFFFF00000000008A
:100560000000C0C0FFFF3F3F00000000000000F09F
:10057000F0FFFF0F0F0000000000000000000F0F51
:100580000F0F000000000000F0F0FCFC0F0F030351
:10059000030F0FFCFCF0F00303CFCFFCFC30303036
:1005A000FCFCCFCF0303FFFFFFFF000000000000B3
:1005B00000FFFFFFFF000003030F0F0C0C0C0F0FD9
:1005C00003030000E0F0FCFC0F0F0303030F0FFC1C
:1005D000FCF0E0070F3F3FF0F0C0C0C0C0C0FFFF1D
:1005E000FFFF0000000000000000C0C0FCFC3F3F17
:1005F000030C0C0C0C0C0C0F0F030300000000008C
:1006000000000000000000000000000000000000EA
:1006100000000000003C3C3C3C00000000000000EA
:1006200000000000000000000000000000000000CA
:100630000000000F0F0F0F000000000030860A0FAF
:1006400020600003070B090E0B03050506090305CF
:10065000030408060808090808080808030309082D
:1006600009080C0C09090909080A0A03090C080CF5
:100670000A0A090A0A090B0A0C100C0B09050405E1
:10068000080803090909090906090903040A030DF1
:100690000909090906080609090F0B0907060206D8
:1006A0000908FEFEFE1D1D1D1E1E1E001E1E1E0034
:1006B0000000000000003030F0FE3E3030F0FE3E22
:1006C00030061E1F0706061E1F070606387CFEE6BC
:1006D000FFC6CE8C0C040C1C183F191F0F073C7E64
:1006E00042427E3C8060108C8280800000000010BE
:1006F0000C0201000F1F10101F0F00809CFEFEE671
:10070000BE3E9C8080070F1F1918191F0F0F1F1D59
:100710001E1E1E000000E0F8FC1E020F3F7FF0804E
:10072000021EFCF8E080F07F3F0F08683E3E68083C
:10073000000000000000C0C0C0F8F8F8C0C0C00150
:1007400001010F0F0F010101000000DC7C3C8080E3
:1007500080808003030303030000001C1C1C008036
:10076000780618070000F8FCFE0606FEFCF8070FE6
:100770001F18181F0F07607038FEFEFE0000001FD4
:100780001F1F181C1E0686FEFC78181C1E1F1B1936
:100790001818081C1EC6C6FEFC38060E1E18181FA8
:1007A0000F0780C0F0381CFEFEFE000303030303A6
:1007B0001F1F1F03F0FEFE6666E6C686060E1E18A5
:1007C000181F0F07F0FCFE4666EECE8C030F1F18B5
:1007D000181F0F0706060686E6F61E0600001C1FF9
:1007E0001F01000038FCFEC6C6FEFC38070F1F18AC
:1007F000181F0F0778FCFE8686FEFCF0040C1D19FE
:10080000181F0F037070701C1C1C707070DC7C3C17
:10081000E0E0E0F070707038380303030707070763
:100820000E0E707070707070707007070707070702
:1008300007073838707070F0E0E0E00E0E07070729
:1008400007030303181C9EC6E6FE7C3800001D1D2E
:100850001D000000E018C4F43A0A0AF2FA7C08F01D
:100860000718272F48484C4F4F2836110080E0F8D2
:10087000FE1EFEF8E08000001C1F0F07060606079C
:100880000F1F1C10FEFEFEC6C6FEBC98001F1F1FD9
:100890001818181F0F07F0FCFC0E060E1E1C08038C
:1008A0000F1F1C181C1F0E06FEFEFE06060EFEFC89
:1008B000F01F1F1F18181C1F0F03FEFEFEC6C6C622
:1008C000C6C6061F1F1F181818181818FEFEFEC6E9
:1008D000C6C6C6061F1F1F0000000000F0FCFC0E6D
:1008E00006C6CEDEDCC8030F0F1C18181C1F0F0F26
:1008F000FEFEFEC0C0C0C0FEFEFE1F1F1F000000A7
:10090000001F1F1FFEFEFE1F1F1F00000000000033
:10091000FEFEFE060F1F1C18181F0F07FEFEFEC06E
:10092000E0F0F8DC0E0602001F1F1F0000000107A8
:100930001F1E1810FEFEFE00000000001F1F1F18E3
:1009400018181818FEFEFE3EF88080F83EFEFEFEE7
:100950001F1F1F00031F1F03001F1F1FFEFEFE7C23
:10096000F0E080FEFEFE1F1F1F0001030F1F1F1F70
:10097000F0FCFC0E06060EFCFCF0030F0F1C181812
:100980001C0F0F03FEFEFEC6C6C6FE7E3C1F1F1FC9
:10099000000000000000F0FCFC0E06060EFCFCF05F
:1009A000030F0F1C181E1C1F1F33FEFEFEC6C6C6FB
:1009B000FE7E3C001F1F1F0000030F1F1C10387C11
:1009C000FEE6E6EEDEDC98060E1E1C18191F0F0769
:1009D00006060606FEFEFE06060606000000001FCE
:1009E0001F1F00000000FEFEFE00000000FEFEFED5
:1009F000070F1F1C18181C1F0F071EFEFCF080009D
:100A000080F0FCFE1E020000031F1F1C1F1F0300BE
:100A10000000FEFEF80080F8FE3EFEF88000F8FEC2
:100A2000FE06000F1F1F1F07010001071F1F1F0FDA
:100A30000000061E3CF8F0E0F0F83C1E0602181E0E
:100A40000F07030103070F1E1810020E1E7EF8E0A9
:100A5000F87E1E0E02000000001F1F1F0000000095
:100A6000000606C6E6F63E1E0E1C1E1F1B191818B1
:100A70001818FEFEFE0606FFFFFFC0C006788000C5
:100A8000000007180606FEFEFEC0C0FFFFFF407014
:100A90007C1E1E7C70400000000000000000000072
:100AA000000000000000404040404040404002063E
:100AB0000400000040607030B0B0F0F0E00E1F1F86
:100AC0001B19091F1F1FFEFEFE603030F0E0C01F23
:100AD0001F1F0C18181F0F07C0E0F0703030706037
:100AE00040070F1F1C18181C0C04C0E0F0303060C9
:100AF000FEFEFE070F1F18180C1F1F1FC0E0F0B0EE
:100B0000B0B0F0E0C0070F1F1D19191D0D0530FC16
:100B1000FEFE3636001F1F1F0000C0E0F0303060C0
:100B2000F0F0F047CFDFD8D8CCFF7F3FFEFEFE20AD
:100B30003030F0F0E01F1F1F0000001F1F1FF6F6EF
:100B4000F61F1F1F00F6F6F6C0FFFF7FFEFEFEC079
:100B5000E0F0F03010001F1F1F0301071F1E1C10C4
:100B6000FEFEFE1F1F1FF0F0F02030F0F0E02030FE
:100B7000F0F0E01F1F1F00001F1F1F00001F1F1F9E
:100B8000F0F0F0203030F0F0E01F1F1F0000001FD9
:100B90001F1FC0E0F0703070F0E0C0070F1F1C187E
:100BA0001C1F0F07F0F0F0603070F0E0C0FFFFFF97
:100BB0000C18181F0F07C0E0F0303060F0F0F0079D
:100BC0000F1F18180CFFFFFFF0F0F02030101F1F50
:100BD0001F000000E0F0F09090B0302008191B13C7
:100BE000131F1F0E30FCFCFE3030000F1F1F1818A3
:100BF000F0F0F0000000F0F0F00F1F1F1818081FB1
:100C00001F1F10F0F0C000E0F0F0100000071F1CE4
:100C10001F07000010F0F0E00000F0F0F00000E02E
:100C2000F0F0100000071F1E0F0300030F1E1F0728
:100C30000000103070E0C080C0E070301010181E4E
:100C40000F0703070F1E181010F0F0C000C0F0F0DF
:100C500030C0C0C7FFFC3F0F0100303030F0F0F073
:100C6000301C1E1F1B1918180000FCFEFE06030393
:100C70007FFFFCC0FEFEFFFF06FEFEFC0000C0FC86
:100C8000FF7F0303C0E0E0E0E0C0C0C0E00100007F
:100C9000000101010100F8080808080808F81F1001
:100CA00010101010101F11241FBECFE5D8E0DEBFBA
:100CB000CDBF16E0A0E6B0E0E4E8F1E402C00590A4
:100CC0000D92A830B107D9F727E0A8E0B6E001C03F
:100CD0001D92A230B207E1F70E94541B0C94C02071
:100CE0000C940000E0E6F0E021E320839EE2918393
:100CF00080E382839383848385838683878380874D
:100D000091872287838735E334878587968727876E
:100D100089E3808B318B128ACF010895FC01DC01BD
:100D20005C969C01285E3F4F8FEF80831D9211825D
:100D300012821382148215823696E217F307A9F7FE
:100D400080E00895AF92BF92CF92DF92EF92FF9230
:100D50000F931F93CF93DF9300D0CDB7DEB71A82E6
:100D60001982E8E0F6E02DE0DF011D922A95E9F70F
:100D70002FE43BE6318320831282A62EB12CF501AD
:100D8000EE0FFF1FEA0DFB1DEE0FFF1FE80FF91F0F
:100D900020812F3F09F46BC07C014AE0BE016F5FE8
:100DA0007F4FC5010E94442008E016E08CE390E0EC
:100DB000F80191838083BE016F5F7F4FC8010E945D
:100DC0003220F80101900020E9F7319783E290E0AA
:100DD0009183808390E06701CA0CDB1CFCE1CF0E9D
:100DE000D11C8501000F111FA00EB11EAA0CBB1C47
:100DF00087010A0D1B1D0F2EFCE2AF2EB12CF02D2A
:100E000028C0FF24F394F90EF801E90FF11D818148
:100E10004AE0BE016F5F7F4F90E00E944420BE0118
:100E20006F5F7F4F88E096E00E943220F801EF0D5F
:100E3000F11D8181882361F0D6018C91F81640F470
:100E4000E8E0F6E001900020E9F73197B182A08256
:100E50009F2DF60180819817A0F2E8E0F6E001905E
:100E60000020E9F731978EE390E09183808388E05A
:100E700096E00F900F90DF91CF911F910F91FF900F
:100E8000EF90DF90CF90BF90AF900895CF93DF9316
:100E9000CDB7DEB728970FB6F894DEBF0FBECDBF33
:100EA0005A83498330E03C832B836E839FEF98877E
:100EB0008D83CE0101960E945C0C28960FB6F894A3
:100EC000DEBF0FBECDBFDF91CF910895CF93DF93EB
:100ED000CDB7DEB728970FB6F894DEBF0FBECDBFF3
:100EE0005A83498330E03C832B836E839FEF98873E
:100EF0008D83CE0101960E94990C28960FB6F89426
:100F0000DEBF0FBECDBFDF91CF910895AB01BC0115
:100F1000411551056105710589F080E090E0DC0123
:100F2000EFECF7E03197F1F700C000000196A11D4A
:100F3000B11D481759076A077B0791F70895E7E93C
:100F4000F6E086E497E091A780A786E697E093A76E
:100F500082A78EEE828F86E897E095A784A780E02F
:100F60000895CF93DF93CDB7DEB766970FB6F894A9
:100F7000DEBF0FBECDBFAE014F5F5F4F86E1FA010E
:100F800011928A95E9F7A0911506B09116069A96E6
:100F9000ED91FC919B9726E16AEA5A968C9109950E
:100FA000E0911506F09116064981042E000C550BB0
:100FB000660B770B762F652F542F44272A8130E05C
:100FC000422B532B518340834B81042E000C550B35
:100FD000660B770B762F652F542F44272C8130E03A
:100FE000422B532B538342834D81042E000C550B0F
:100FF000660B770B762F652F542F44272E8130E018
:10100000422B532B558344832F8130E0322F2227EC
:101010009885292B37832683298530E0322F222794
:101020009A85292B318720872B8530E0322F222784
:101030009C85292B338722874D85042E000C550B68
:10104000660B770B762F652F542F44272E8530E0C3
:10105000422B532B558744874F85042E000C550B8C
:10106000660B770B762F652F542F4427288930E0A5
:10107000422B532B578746874989042E000C550B6A
:10108000660B770B762F652F542F44272A8930E083
:10109000422B532B518B408B4B89042E000C550B4C
:1010A000660B770B762F652F542F44272C8930E061
:1010B000422B532B538B428B4D89042E000C550B26
:1010C000660B770B762F652F542F44272E8930E03F
:1010D000422B532B558B448B66960FB6F894DEBF8C
:1010E0000FBECDBFDF91CF9108950F931F93CF9384
:1010F000DF931F92CDB7DEB78C010E949F07198244
:101100001093160600931506D8019A96ED91FC915E
:101110009B9721E0AE014F5F5F4F60ED5A968C9137
:101120000995182FA0911506B0911606898157963A
:101130008C93579741E050E060E070E090964D93BB
:101140005D936D937C93939795961C921E929497C2
:1011500097961C921E9296979A96ED91FC919B976A
:1011600021E0AE014F5F5F4F61ED5A968C9109957A
:10117000180FE0911506F09116069981892F8F704E
:10118000808F92959F70918F0E94B107810F0F9071
:10119000DF91CF911F910F910895CF92DF92EF923F
:1011A000FF920F931F93CF93DF93C0911506D091B9
:1011B00016062A853B857B018C01E21AF30A010998
:1011C0001109A8019701A885B9850E94CD1F6B015F
:1011D0007C010B2EBFE0F594E794D794C794BA95A1
:1011E000D1F7B02DC114D104E104F10421F48C89AC
:1011F0009D890097A9F16A897B89CB01770FAA0B9A
:10120000BB0BBC01CD01052E5BE0660F771F881F6D
:10121000991F5A95D1F7502D2C893D898901330F9B
:10122000220B330BA90198012C0D3D1D4E1D5F1D96
:101230000E949F1FC20ED31EE41EF51ECC8EDD8EB3
:10124000EE8EFF8E08E0C00ED11CE11CF11C6894EC
:1012500013F8F594E794D794C7941694D1F7C60180
:10126000DF91CF911F910F91FF90EF90DF90CF9082
:1012700008953F924F925F926F927F928F929F92CA
:10128000AF92BF92CF92DF92EF92FF920F931F9394
:10129000CF93DF93CDB7DEB72A970FB6F894DEBFB2
:1012A0000FBECDBF6D837E838F8398870091150617
:1012B00010911606D8015C96CD90DD90ED90FC90D3
:1012C0005F97B0EACB1ABFE0DB0AE108F108A7019B
:1012D0009601C701B6010E946D1F2B013C01032E30
:1012E0003CE075946794579447943A95D1F7302D24
:1012F000F801A685B785A30192010E94D81F6983D2
:101300007A838B839C83A281B381A70196010E947B
:10131000D81F4B015C0134A0A481B5810E94D81F65
:101320006B017C010B2EBDE0F594E794D794C79434
:10133000BA95D1F7B02DA485B585A30192010E947D
:10134000D81FBB2797FDB095AB2F8C0D9D1DAE1DF3
:10135000BF1D0296A11DB11DB595A79597958795BF
:10136000B595A795979587959C01AD0130584F4F3E
:101370005F4FA681B7810E94CD1F6B017C010B2EB0
:10138000BFE0F694E794D794C794BA95D1F7B02DFF
:1013900089819A81AB81BC81072E7BE0B595A795A9
:1013A000979587957A95D1F7702D072E7BE0B594A8
:1013B000A794979487947A95D1F7702D880E991EEB
:1013C000AA1EBB1E80819181092E000CAA0BBB0BAB
:1013D000880F991FAA1FBB1F880F991FAA1FBB1F29
:1013E000880E991EAA1EBB1E032C04C0880C991CD3
:1013F000AA1CBB1C0A94D2F7F2E08F0E911CA11C10
:10140000B11CB594A79497948794B594A794979496
:1014100087942D813E814F815885281939094A09C1
:101420005B0980E593ECA0E0B0E0BC01CD0104C015
:1014300095958795779567953A94D2F70E946D1F99
:1014400099238CF0C114D104E104F10409F453C0D0
:10145000660F771F881F991FA70196010E947D1FA5
:1014600049015A0110C0C114D104E104F10409F486
:1014700046C0A70196010E947D1F49015A01880CB0
:10148000991CAA1CBB1C9927B7FC9A958B2D7A2D09
:10149000692D9B01AC010E946D1F9B01AC01AEED5B
:1014A000BBE00E94CD1F6B017C01A3E4B3EEA5015C
:1014B00094010E94DB1FBB2797FDB095AB2F6701FE
:1014C000FF24D7FCF094EF2C8C0D9D1DAE1DBF1D8D
:1014D0008153914FAF4FBF4F689413F8B595A795BF
:1014E000979587951694D1F7BC01CD01680D791DAC
:1014F0008A1D9B1D07C060E070E0CB0103C060E067
:1015000070E0CB012A960FB6F894DEBF0FBECDBFB8
:10151000DF91CF911F910F91FF90EF90DF90CF90CF
:10152000BF90AF909F908F907F906F905F904F9003
:101530003F900895CF93DF9300D01F92CDB7DEB7D1
:1015400019821A828EE28B83A0911506B09116063D
:101550009896ED91FC91999721E0AE014D5F5F4F18
:1015600064EF5A968C910995E0911506F091160654
:1015700004A4F5A5E02D65E070E080E090E0099519
:10158000A0911506B09116069A96ED91FC919B9745
:1015900022E0AE014F5F5F4F66EF5A968C9109953E
:1015A0008981082E000C990BAA0BBB0BBA2FA92F0F
:1015B000982F88272A8130E0822B932B0F900F9051
:1015C0000F90DF91CF9108954F925F926F927F922B
:1015D0008F929F92AF92BF92CF92DF92EF92FF9243
:1015E0000F931F93CF93DF9300D000D0CDB7DEB71A
:1015F00019821A821B821C82A0911506B0911606D0
:1016000096968D919C9197978130910509F093C0A2
:1016100094968D919C919597039709F0F3C013E0F0
:10162000C12CD12C76010F2EF3E08F2E912CF02DB2
:101630006894AA24A3F8B12C412C512C3201439474
:10164000A0911506B091160694968C919497829568
:10165000880F880F807C8C5C8C839896ED91FC9130
:10166000999721E0AE014C5F5F4F64EF5A968C91E1
:101670000995E0911506F0911606B40104A002C088
:10168000660F771F0A94E2F76E5F7F4F072E000CFC
:10169000880B990B04A4F5A5E02D0995A0911506DA
:1016A000B09116069A96ED91FC919B9723E0AE01BE
:1016B0004F5F5F4F66EF5A968C910995E091150642
:1016C000F091160629818A8190E0A0E0B0E0BA2F5F
:1016D000A92F982F8827A22B2B81822B24A135A1FB
:1016E000A501421B530B04C0B695A7959795879506
:1016F0004A95D2F740A251A262A273A2C80ED91E87
:10170000EA1EFB1E115009F09BCFC701B6012BEA60
:101710003AEA4AEA5AEA0E94E01F00E20E940D20DB
:10172000822E932EA42EB52EC501B40196958795D1
:10173000779567956EC0892B09F068C094968C9157
:1017400094978295880F880F807C8C5C8C83989608
:10175000ED91FC91999721E0AE014C5F5F4F64EFF2
:101760005A968C910995E0911506F091160663E062
:1017700070E004A002C0660F771F0A94E2F76E5F64
:101780007F4F072E000C880B990B04A4F5A5E02DC4
:101790000995A0911506B09116069A96ED91FC91C7
:1017A0009B9723E0AE014F5F5F4F66EF5A968C9197
:1017B0000995E0911506F091160629816A81862F18
:1017C00090E0A0E0B0E0BA2FA92F982F8827A22B95
:1017D0002B81822B44A155A128E030E0241B350B3E
:1017E000BC01CD0104C096958795779567952A959C
:1017F000D2F7C12CD12C7601C394C0A2D1A2E2A20F
:10180000F3A207C060E070E0CB0103C060E070E0CD
:10181000CB010F900F900F900F90DF91CF911F9100
:101820000F91FF90EF90DF90CF90BF90AF909F907F
:101830008F907F906F905F904F9008958DEF80B95B
:10184000089516BE94EA96BF06B607FEFDCF91B185
:10185000987F983079F483B984E886BF06B607FE8E
:10186000FDCF91B1987F983139F081E0903429F41F
:1018700080E0089581E0089580E008950E94210CA1
:10188000089583B984E886BF06B607FEFDCF91B1FF
:10189000987F81E0983209F480E0089584EC86BF57
:1018A00006B607FEFDCF83B1089584E886BF06B66D
:1018B00007FEFDCF83B108950F931F93CF93DF935E
:1018C0008C01DC0114968C910E94210C882321F05C
:1018D00084E986BF80E028C0F80187818F3F19F432
:1018E00085810E94410CD80112968D919C9113978D
:1018F000892BB9F0C0E0D0E0D801ED91FC91EC0F5C
:10190000FD1F80810E94410C882321F084E986BF5D
:1019100080E00AC02196F80182819381C817D90717
:1019200058F384E986BF81E0DF91CF911F910F9139
:101930000895EF92FF921F93CF93DF937C01DC0118
:1019400014968C910E94210C882321F084E986BF93
:1019500080E03DC0F70187818F3F21F485810E949F
:10196000410C06C00190F081E02D80810E94410C65
:10197000F70184818F5F0E943E0CD70112968D91F2
:101980009C91139782309105C8F0892BE9F080E093
:1019900090E010E0F701C081D181C80FD91F0E94EB
:1019A0004E0C88831F5F812F90E0D70112962D91F6
:1019B0003C9113978217930768F306C0F701C08123
:1019C000D1810E94550C888384E986BF81E0DF9134
:1019D000CF911F91FF90EF900895982F92959F704F
:1019E000990F292F220F220F920F8F70890F0895C0
:1019F000CF93DF93CDB7DEB728970FB6F894DEBF4D
:101A00000FBECDBF9A83898370E07C836B83FC011A
:101A100080818E8382EA8D83CE0101960E94990C8B
:101A200028960FB6F894DEBF0FBECDBFDF91CF91E1
:101A30000895CF93DF93CDB7DEB728970FB6F8940C
:101A4000DEBF0FBECDBF9A83898370E07C836B833A
:101A5000FC0180818E8382EA8D83CE0101960E94F3
:101A60005C0C28960FB6F894DEBF0FBECDBFDF9199
:101A7000CF910895E7E1F6E092E090839DEC499FD5
:101A8000212D112426952695269530E1239FD001FE
:101A90001124220F322F330F330F230F421B4A2BF7
:101AA0004183699F212D112426952695269530E1A5
:101AB000239FA0011124220F322F330F330F230F46
:101AC000621B642B6283899F912D112496959695B4
:101AD000969540E1949F90011124990F392F330F6F
:101AE000330F930F891B822B83836BE0CF010E94FE
:101AF000190D08950F931F93CF93DF93EC0107E126
:101B000016E082E0D8018C936BE0C8010E94F80CCB
:101B1000D801EC91E88311967C9111977983129604
:101B20006C9112976A8313965C9113975C83149659
:101B30003C9114973D8315964C9115974B831696BF
:101B40008C91169790E09F838E8317962C91179710
:101B5000288718969C911897998719968C911997B0
:101B60008A871A96FC91EF77E8837F7779836F7382
:101B70006A835F735C834F714B8337703D832F772C
:101B800028879F7799878F778A878F2F8F778B8783
:101B9000DF91CF911F910F910895AF92BF92CF9295
:101BA000DF92EF92FF921F93CF93DF93CDB7DEB713
:101BB0002D970FB6F894DEBF0FBECDBF7C016B0131
:101BC0008EEF8983CE0101965C019D838C8381E039
:101BD00090E09F838E8310E81887CE0104960E94C0
:101BE0005C0C87EE8983BD82AC8282E090E09F83AB
:101BF0008E831887CE0104960E94990C3A818981C0
:101C000098E021E388231CF4880F822701C0880F05
:101C10009150C1F7381312C086EE8C8789818D8769
:101C2000CE010C969D838C8382E090E09F838E830F
:101C300080E88887CE0104960E945C0C83EE89833D
:101C4000CE0101969D838C8383E090E09F838E83F9
:101C500080E88887CE0104960E94990C3B81898197
:101C600098E021E3882314F0880F02C0880F8227B0
:101C70009150C1F79A81892798E021E388231CF4C9
:101C8000880F822701C0880F9150C1F7381324C0F4
:101C90006981862F90E0A0E0B0E0BA2FA92F982F9D
:101CA00088272A81820F911DA11DB11DBC01CD0184
:101CB0006C7F0E94721E22E538EB4FE25BE30E94CC
:101CC000001F26E636E64BE352E40E94CF1D0E9439
:101CD0003C1EF7017183608385EE8983CE010196F6
:101CE0009D838C8383E090E09F838E8380E8888748
:101CF000CE0104960E94990C3B81898198E021E3F2
:101D0000882314F0880F02C0880F82279150C1F7F2
:101D10009A81892798E021E388231CF4880F822781
:101D200001C0880F9150C1F7381324C06981862FF4
:101D300090E0A0E0B0E0BA2FA92F982F88272A8141
:101D4000820F911DA11DB11DBC01CD016C7F0E94B0
:101D5000721E20E030E04AEF5AE30E94001F20E0AC
:101D600030E040EC50E40E94D01D0E94431EF6017A
:101D70007183608380E02D960FB6F894DEBF0FBEAE
:101D8000CDBFDF91CF911F91FF90EF90DF90CF906B
:101D9000BF90AF900895CF93DF93CDB7DEB728976C
:101DA0000FB6F894DEBF0FBECDBF8823A9F08130F7
:101DB00029F5EBE2F6E010828EEA8183FA83E9836B
:101DC00082E090E09C838B831E8288E78D83CE0126
:101DD00001960E945C0C12C0EBE2F6E010828FEAE2
:101DE0008183FA83E98382E090E09C838B831E8267
:101DF00088E78D83CE0101960E945C0C28960FB671
:101E0000F894DEBF0FBECDBFDF91CF9108958F92C2
:101E10009F92AF92BF92DF92EF92FF920F931F9328
:101E2000CF93DF93CDB7DEB76B970FB6F894DEBFD5
:101E30000FBECDBF81E00E94CB0E83E1E8EDF4E060
:101E4000DE01119601900D928A95E1F780E00E94E3
:101E5000CB0E8E010F5F1F4F4E0184E1880E911C47
:101E60000F2EFBE2EF2EF6E0FF2EF02D6894AA2451
:101E7000A1F8B12C0F2EF8E7DF2EF02DF80181919B
:101E80008F01F70110828183FD8AEC8ABF8AAE8AB6
:101E9000198ED88ECE0144960E945C0C0815190547
:101EA00069F76B960FB6F894DEBF0FBECDBFDF911A
:101EB000CF911F910F91FF90EF90DF90BF90AF9067
:101EC0009F908F9008959093230680932206089503
:101ED00080E094E0E3E7F0E0DF019C011D922150F7
:101EE0003040E1F70895FC01F695E795F695E79502
:101EF000F695E795F695FE2FEE27F795E795E60F11
:101F0000F71FED58FF4F9C012770332781E090E0C9
:101F100002C0880F991F2A95E2F79081892B808350
:101F20000895969587959695879596958795969514
:101F3000982F8827979587958D589F4FFC01E60F1E
:101F4000F71F10820895FC01F695E795F695E79541
:101F5000F695E795F695FE2FEE27F795E795E60FB0
:101F6000F71FED58FF4F9C012770332781E090E069
:101F700002C0880F991F2A95E2F7809590818923E6
:101F8000808308951F93CF93DF93CDB7DEB7679714
:101F90000FB6F894DEBF0FBECDBF27E0EBEEF4E046
:101FA000CE010196DC0101900D922A95E1F7998B03
:101FB000888B87E090E09B8B8A8B1D8A18E71C8BAF
:101FC000CE0140960E945C0C83E790E09987888759
:101FD00080E094E09B878A8780E48D871C878FEF61
:101FE0008F87CE0108960E945C0C67960FB6F89416
:101FF000DEBF0FBECDBFDF91CF911F9108952F920D
:102000003F924F925F926F927F928F929F92AF9288
:10201000BF92CF92DF92EF92FF920F931F93CF93D5
:10202000DF93CDB7DEB729970FB6F894DEBF0FBEAA
:10203000CDBF3B015F834E83A4E2B6E015961C92B0
:102040001E92149716961C92169711961C921E9229
:1020500013961C921E92129760912206709123068D
:102060009B012D5F3F4FF901249130E015963C9381
:102070002E931497295F3F4F7901F694E794F694D5
:10208000E794F694E7941696EC9232961491319771
:102090009491891BFB019491911104C03196949104
:1020A000992319F0811117C031C0FB013296249198
:1020B00030E0E4E2F6E033832283E89EA0011124BD
:1020C000429FC001439F900D529F900D1124069690
:1020D0009183808338C0FB0136964FEF480F50E064
:1020E000495F5F4F460F571FA4E2B6E0FA82E982CC
:1020F00095912D913C911197290F311D11963C938B
:102100002E934E175F07A1F7E980FA80A4E2B6E0AC
:102110002D913C911197E29EA001E39E500D112458
:10212000212F30E02A5F3F4F240F351F11963C933B
:102130002E93680F711DFB013696849190E01396E3
:102140009C938E931297E0912206F091230684913E
:10215000882329F080912A0681116EC049C13196E9
:1021600084918111F7CF80912A0681114DC040C121
:10217000E0912206F0912306D8018D919C91E80F01
:10218000F91F29813A81E20FF31FEC0DFD1D8491A7
:1021900090E0062C02C0959587950A94E2F780FF9F
:1021A00007C0B701C3018A0D9B1D0E94730F06C0B3
:1021B000B701C3018A0D9B1D0E94A30F3FEF631A55
:1021C000730A48E06416710499F689819A81019630
:1021D0009A838983D80112968D919C911397E981F6
:1021E000FA81E817F90738F4E980FA80E80CF91C5D
:1021F000612C712CBDCFC80ED91E5394D8011696F0
:102200008C91581638F0F4C0512CC12CD12C04E21A
:1022100016E01301F80182819381009761F3F0E8E1
:102220005F9E500111248E809F808A0C9B1CA20C03
:10223000B31C1A821982D8CF1D820F2EF4E28F2E82
:10224000F6E09F2EF02D4D81242F30E090E0019795
:102250002817390799F4D40114968C9187708C83D0
:10226000882389F088E090E0BC818B1B9109E1E034
:1022700001C0EE0F8A95EAF7EB8309C0F8E0FC8312
:1022800021E02B8304C038E03C8341E04B83D40140
:1022900012968D919C911397892B09F474C0630158
:1022A000D694C794D694C794D694C794D694DC2C6D
:1022B000CC24D794C7948E819F818C0D9D1DFC01E9
:1022C000ED58FF4F6F012E813F8139872887E12C20
:1022D000F12C530137E0A322BB2483010F5F1F4F72
:1022E0008C818150080F111D7A8269827C80E09177
:1022F0002206F0912306D4018D919C9111979C01A7
:102300002F5F3F4F2D933C93E80FF91F2490A114AA
:10231000B10419F0711005C01FC0B8E07B12FACFEC
:1023200019C049805A803B80822D832131F0688515
:102330007985C2010E94730F05C068857985C20145
:102340000E94A30F330CFFEF4F1A5F0A0415150507
:1023500059F702C0D6012C92E885F9853196F987A4
:10236000E887FFEFEF1AFF0A2FEFC21AD20AD40153
:1023700012968D919C911397E816F90608F4B7CF41
:1023800069807A8004C02E813F8139872887C30104
:1023900087709927892B21F03C81311105C01DC020
:1023A0004C814830C9F714C08C81815083010F5F84
:1023B0001F4F080F111D730168857985C7010E94A1
:1023C000A30F9FEFE91AF90A0E151F05A9F705C01B
:1023D00068857985C3010E94910FA8E06A0E711C7F
:1023E000BD81BF5FBD83F4018681B81708F42BCF90
:1023F0008091260690912706019629960FB6F894AB
:10240000DEBF0FBECDBFDF91CF911F910F91FF9027
:10241000EF90DF90CF90BF90AF909F908F907F9084
:102420006F905F904F903F902F900895CF92DF92E2
:10243000EF92FF920F931F93CF93DF93FC01808164
:102440008823B1F08F010F5F1F4FC0E0D0E0C42E92
:10245000D12CE62EF12CA6014C0F5D1FB7010E9476
:10246000FF0FC80FD91FF80181918F018111F3CFA0
:10247000DF91CF911F910F91FF90EF90DF90CF9060
:102480000895E0EFF6E0108211828FEF08958CE35B
:1024900096E00E94630F40E069E182EF94E00E94C1
:1024A00016122FEF88E09DE3215080409040E1F725
:1024B00000C00000E0E0F0E0099580E00895CF92D0
:1024C000DF92EF92FF920F931F93CF93DF9340E041
:1024D00060E08BEF94E00E9416128AE392E00E9483
:1024E000630F0F2EFAEEEF2EF6E0FF2EF02DC0E573
:1024F000D6E000EF16E0CC2EDD2EF70140815181B1
:102500009A01329522952F7023273F702327A7E445
:10251000B3E00E94BE1F96958795969587959695F0
:102520008795805D88839A013695279536952795FE
:1025300036952795A5ECB0E20E94BE1FFC01F295EE
:10254000E295EF70EF27FF70EF279F01ADECBCEC39
:102550000E94BE1F96958795969587959695879527
:102560009C01220F331F880F991F880F991F880F16
:10257000991F820F931FE81BF90BE05DE9839A0115
:102580003695279536952795ABE7B4E10E94BE1F97
:10259000FC01F695E7959F01ADECBCEC0E94BE1FD7
:1025A0009695879596958795969587959C01220F88
:1025B000331F880F991F880F991F880F991F820F4B
:1025C000931FE81BF90BE05DEA839A010E94BE1F8E
:1025D000FC01F695E795F695E795F695E7959F0149
:1025E0000E94BE1F96958795969587959695879597
:1025F0009C01220F331F880F991F880F991F880F86
:10260000991F820F931F9F01281B390BC901805D01
:102610008B83CF01880F991FEE0FFF1FEE0FFF1F57
:10262000EE0FFF1FE80FF91F4E1B5F0B405D4C8341
:102630001D8244E16EE18C2D9D2D0E941612F80141
:102640008181811104C08091E90680FF06C08091DC
:10265000E9068E7F8093E9062DC0F80180818823EA
:1026600009F44BCF1082809137068F5F8093370635
:102670008A3008F442CF84E590E00E94630F40E086
:102680006EE18CE095E00E9416121092370660E031
:1026900070E082E090E00E94AB201092EB06109276
:1026A000EA06FFEF24E33CE0F15020403040E1F740
:1026B00000C0000080E0DF91CF911F910F91FF904B
:1026C000EF90DF90CF9008954F925F926F927F923C
:1026D0008F929F92AF92BF92CF92DF92EF92FF9232
:1026E0000F931F93CF93DF9300D000D01F92CDB7ED
:1026F000DEB784E590E00E94630F8DE290E0909356
:10270000510680935006609187047091880480E59B
:1027100096E00E94322040E060E080E596E00E9472
:1027200016121A821982FE01339683E0DF011D9290
:102730008A95E9F7709001078AE392E00E94630F9F
:1027400080E006EC14E00F2EF5EC8F2EF6E09F2EC5
:10275000F02D0F2EF4E64F2EF02D0F2EFAE05F2E07
:10276000F02D6894AA24A5F8BA2C6894CC24C5F856
:10277000D12C0F2EF0EFEF2EF6E0FF2EF02DF8010A
:102780006088670C108A861519F0D40112961C9285
:10279000B3E6B61510F4742C01C0762CEAE07E1670
:1027A00008F4752C452DBE016F5F7F4F872D90E09B
:1027B0000E944420BE016F5F7F4F80E596E00E943B
:1027C0003D20E0E5F6E001900020E9F73197B18285
:1027D000A082D382C28242E36EE180E596E00E944D
:1027E0001612D7018C91811105C09091E906862DB2
:1027F00090FFC5CF8091E9068E7F8093E906109205
:10280000F00670920107672D81E090E00E9487201A
:1028100080E00F900F900F900F900F90DF91CF916D
:102820001F910F91FF90EF90DF90CF90BF90AF90EE
:102830009F908F907F906F905F904F900895CF936F
:10284000DF9384E590E00E94630F40E060E08FE159
:1028500095E00E9416128091F006811129C0C0EF08
:10286000D6E060E087E796E00E94A20640E068E1DB
:102870000E94161261E087E796E00E94A20640E0FF
:1028800060E20E94161262E087E796E00E94A206CC
:1028900040E068E20E94161263E087E796E00E943B
:1028A000A20640E060E30E94161288818823C9F2E4
:1028B00080E0DF91CF9108950F931F93CF93DF9323
:1028C00098E0899F80011124C0E0D0E0BE01C801DA
:1028D0000E94910F2196C038D105C1F7DF91CF91A9
:1028E0001F910F9108950F931F93CF93DF938C0146
:1028F000EB01FC01658576858785908924E630E0CB
:1029000040E050E00E947D1F8C859D85092E000CC3
:10291000AA0BBB0B82179307A407B5076CF4F80149
:10292000658576858785908924E630E040E050E033
:102930000E949F1F3D872C87F801658576858785D6
:10294000908924E630E040E050E00E947D1F8E85B3
:102950009F85092E000CAA0BBB0B281739074A07C5
:102960005B076CF4F801658576858785908924E698
:1029700030E040E050E00E949F1F3F872E87F80123
:1029800061857285838594852AE030E040E050E0DF
:102990000E949F1F8C819D81092E000CAA0BBB0BEE
:1029A00082179307A407B5076CF4F8016185728557
:1029B000838594852AE030E040E050E00E949F1F2C
:1029C0003D832C83F80161857285838594852AE097
:1029D00030E040E050E00E949F1F8E819F81092ED1
:1029E000000CAA0BBB0B281739074A075B076CF4CE
:1029F000F80161857285838594852AE030E040E0A6
:102A000050E00E949F1F3F832E83F801438D548D19
:102A1000658D768D8C8D9D8D092E000CAA0BBB0BC0
:102A200084179507A607B70734F4838D948DA58D79
:102A3000B68D9D8F8C8FF801438D548D658D768D6D
:102A40008E8D9F8D092E000CAA0BBB0B48175907C2
:102A50006A077B0734F4838D948DA58DB68D9F8F87
:102A60008E8FF801218D328D8C899D898217930775
:102A700024F4818D928D9D8B8C8BF801218D328D6C
:102A80008E899F892817390724F4818D928D9F8B19
:102A90008E8BDF91CF911F910F9108954F925F928E
:102AA0006F927F928F929F92AF92BF92CF92DF925E
:102AB000EF92FF920F931F93CF93DF9300D01F925B
:102AC000CDB7DEB78C0187E189838BE38A838B8363
:102AD00082EF96E00E947A0D0F2EF2EFEF2EF6E0D5
:102AE000FF2EF02DF70182810E94ED0CF80180830A
:102AF000F70181810E94ED0CF8018183F70180814B
:102B00000E94ED0CF801828384E590E00E94630F3F
:102B100040E060E089E295E00E9416128AE392E0CC
:102B20000E94630FF8014281618180810E94701DC3
:102B300040E069E10E9416128091E90680FDDDC047
:102B40003801CE0101965C01412C0F2EF6ECCF2E00
:102B5000F4E0DF2EF02D0F2EF0EFEF2EF6E0FF2E3B
:102B6000F02D4301F3018081F6015088580E108A40
:102B7000F7018081811104C08181811108C00FC0DB
:102B8000F7011082ACC0F7018181882341F0F70181
:102B900011828091E90681608093E906A0C0F50169
:102BA0008081581620F0F4011082512C02C0F401EB
:102BB0005082F894F1E04F1691F14F1628F022E080
:102BC000421609F457C080C0F801428161818081BA
:102BD0000E94701D40E069E10E9416120E94C20F1F
:102BE000FFEF20E782E0F15020408040E1F700C095
:102BF0000000F801428161818FEF0E94701D40E06A
:102C000069E10E9416120E94C20FFFEF20E782E0E6
:102C1000F15020408040E1F700C0000055C0F801AD
:102C20004281618180810E94701D40E069E10E94C3
:102C300016120E94C20FFFEF20E782E0F150204001
:102C40008040E1F700C00000F80142816FEF808111
:102C50000E94701D40E069E10E9416120E94C20F9E
:102C6000FFEF20E782E0F15020408040E1F700C014
:102C700000002AC0F8014281618180810E94701D9C
:102C800040E069E10E9416120E94C20FFFEF20E7A8
:102C900082E0F15020408040E1F700C000004FEF9B
:102CA000F801618180810E94701D40E069E10E940D
:102CB00016120E94C20FFFEF20E782E0F150204081
:102CC0008040E1F700C000007894F6018089580E3A
:102CD000108AF7018081882309F455CF51CF43949E
:102CE000F3E04F1651F08091E9062FEF621A720A55
:102CF0009FEFA91AB90A80FF34CFF80142816181A0
:102D000080810E943A0D80E00F900F900F90DF912C
:102D1000CF911F910F91FF90EF90DF90CF90BF90D8
:102D2000AF909F908F907F906F905F904F9008959D
:102D300080EA94E00E944E1580E008953F924F9201
:102D40005F926F927F928F929F92AF92BF92CF923B
:102D5000DF92EF92FF921F93CF93DF9300D000D0CA
:102D600000D0CDB7DEB76C017B015A83498384E57F
:102D700090E00E94630F8091E9068E7F8093E906C0
:102D8000412C89809A8021E0821A91083981315042
:102D90003C83498145504B83512C0F2EF5EC6F2E0F
:102DA000F6E07F2EF02D0F2EF0EFAF2EF6E0BF2EC7
:102DB000F02DE4C0D70150968C915097823024F4C6
:102DC000E1E05096EC930AC0082E000C990B88168F
:102DD000990620F4EC81D7015096EC93D7015096D8
:102DE0002C913DEF320F832F032E000C990B05968B
:102DF000E981FA818E179F0708F03B81332E332338
:102E00000CF4352C8091420690E0422F022E000CEB
:102E1000550B8417950731F020934206D301119684
:102E20001C921E920E94680F452D652DF60180812F
:102E300091810E9416120E947206452D62E30E9443
:102E40001612339410E1232D30E03E832D83498107
:102E50005A8124173507C8F5D70150962C91832D38
:102E600090E0422F022E000C550B84179507D1F4E9
:102E7000422E452D612F8CE395E00E9416128D8124
:102E80009E81880F991F880F991FED81FE81E80FA1
:102E9000F91FEC0DFD1D4AE0612F808191810E9498
:102EA000161213C08D819E81880F991F880F991F5C
:102EB0002D813E81280F391F2C0D3D1D452D612F81
:102EC000D9018D919C910E9416123394185F103392
:102ED00009F0B9CF0E94C20FF5018081882309F45F
:102EE0004DC0108211828091E9068E7F8093E906A1
:102EF0000E94680F0E94C20F842D90E09C01220F57
:102F0000331F220F331F280F391F2C0D3D1D3E8309
:102F10002D83D90112968D919C911397892BB9F02D
:102F2000F701108A1296ED91FC91139709958F3F46
:102F300071F484E590E00E94630F8091E9068E7F32
:102F40008093E906E0EFF6E0108211821BC084E571
:102F500090E00E94630F8091E9068E7F8093E906DE
:102F6000D5011C9211961C920E94680F0E94C20FFC
:102F7000ED81FE818481D70150968C938091E90682
:102F800080FF18CF0E94680F0E94C20F1092650642
:102F900081E08093640680E026960FB6F894DEBF49
:102FA0000FBECDBFDF91CF911F91FF90EF90DF90CB
:102FB000CF90BF90AF909F908F907F906F905F90D9
:102FC0004F903F9008954F925F926F927F928F92B1
:102FD0009F92AF92BF92CF92DF92EF92FF920F93A8
:102FE0001F93CF93DF938091E80682FF2EC16EE49A
:102FF00076E08CE496E00E94CD0D0E94E40A609396
:1030000048067093490680934A0690934B060E94A7
:103010003909609348067093490680934A06909355
:103020004B060E949A0ABC0180E090E0609344063F
:103030007093450680934606909347060E94CD08FC
:10304000092E000CAA0BBB0B8093440690934506F7
:10305000A0934606B09347062091410631E0320F17
:1030600030934106253009F0A5C010924106C9EC05
:10307000D6E069817A818B819C812DEC3CEC4CEC13
:103080005CEC0E94E01F00E20E940D20822E932E35
:10309000A42EB52EB694A79497948794B694A7942B
:1030A0009794879489829A82AB82BC826D817E815B
:1030B0008F8198850F2EF5E04F2E512C612C712CAD
:1030C000F02DA30192010E949F1F2D833E834F8309
:1030D00058876D897E898F89988D2DEC3CEC4CEC5E
:1030E0005CEC0E94E01F0E940D20822E932EA42EE5
:1030F000B52EB694A79497948794B694A794979472
:1031000087948D8A9E8AAF8AB88E69897A898B89DD
:103110009C89A30192010E949F1F298B3A8B4B8BA4
:103120005C8B89819A81AB81BC818D879E87AF87BB
:10313000B88B8D819E81AF81B88589879A87AB874F
:10314000BC878D899E89AF89B88DAA27BB278B8FB5
:103150009C8FAD8FBE8F89899A89AB89BC899A8FE4
:10316000898F19821A821B821C821D821E821F82F5
:1031700018861D8A1E8A1F8A188E198A1A8A1B8A27
:103180001C8A80914006823020F48F5F8093400635
:1031900057C066EA74E089EC96E00E9473141092BE
:1031A000650681E080936406E9ECF6E0878D88632C
:1031B000878F46C0E9ECF6E00181128123813481DA
:1031C000409148065091490660914A0670914B061D
:1031D000400F511F621F731F4183528363837483A7
:1031E0004581568167817085840F951FA61FB71F83
:1031F00085839683A783B08785899689A789B08DB3
:1032000020914E0630914F06820F931FA11DB11DD4
:10321000858B968BA78BB08F41895289638974897E
:1032200080914C0690914D06092E000CAA0BBB0B09
:10323000840F951FA61FB71F818B928BA38BB48B16
:10324000E9ECF6E0878D8B7F878F8091E80684FF1D
:10325000BDC08091A50490916606981759F080939F
:10326000660685E00E945C1486E00E945C1487E09C
:103270000E945C148091640690916506981709F489
:10328000B6C08093650684E590E00E94630F80914C
:10329000E4069091E506A091E606B091E706843633
:1032A0009105A105B10560F084E690E0A0E0B0E0F2
:1032B0008093E4069093E506A093E606B093E706B4
:1032C00009EC16E0F801658576858785908924E606
:1032D00030E040E050E00E947D1FDA01C9014AE081
:1032E00068E376E00E944420C0E5D6E08CE0EFE39E
:1032F000F5E0DE0101900D928A95E1F768E376E052
:10330000CE010E943220DE010D900020E9F71197D6
:1033100085E0EBE4F5E001900D928A95E1F740E05D
:1033200063E2CE010E941612F801838D948DA58D63
:10333000B68D4AE068E376E00E9444208CE0E0E548
:10334000F5E0DE0101900D928A95E1F768E376E001
:10335000CE010E943220FE0101900020E9F7319752
:1033600080E295E29183808380E290E09383828380
:1033700040E06DE2CE010E941612F801818D928D1F
:103380004AE068E376E00E9444208CE0ECE5F5E05A
:10339000DE0101900D928A95E1F768E376E0CE01B7
:1033A0000E943220DE010D900020E9F7119787E09E
:1033B000E8E6F5E001900D928A95E1F740E067E3D9
:1033C000CE010E9416120E94C20F11C084E590E047
:1033D0000E94630F44E162E38FE695E00E941612BB
:1033E0000E94C20F1092660681E08093A504DF91CF
:1033F000CF911F910F91FF90EF90DF90CF90BF90F2
:10340000AF909F908F907F906F905F904F900895B6
:10341000F894EEEFF6E090818923908198279083CD
:1034200078940895F894EEEFF6E0928189239281E2
:103430009827928378940895DF92EF92FF920F93EA
:103440001F93CF93DF93CDB7DEB72A970FB6F894CB
:10345000DEBF0FBECDBF7C01D62E1A821982FE01BF
:10346000339688E0DF011D928A95E9F7F7016081C4
:10347000718180E596E00E943D2000E516E0D801CC
:103480000D900020E9F711978BE0EEE7F5E0019051
:103490000D928A95E1F740E060E0C8010E941612A3
:1034A000D70112966D917C911397C8010E943D201F
:1034B000D8010D900020E9F7119789E0E9E8F5E0DF
:1034C00001900D928A95E1F74AE0BE016F5F7F4F50
:1034D000F701848195810E944420BE016F5F7F4F78
:1034E000C8010E94322040E06D2DC8010E941612D2
:1034F000D70112966D917C911397C8010E943D20CF
:10350000D8010D900020E9F7119789E0E2E9F5E094
:1035100001900D928A95E1F74AE0BE016F5F7F4FFF
:10352000F701868197810E944420BE016F5F7F4F23
:10353000C8010E9432206AE06D0D40E0C8010E947F
:10354000161280E02A960FB6F894DEBF0FBECDBFEC
:10355000DF91CF911F910F91FF90EF90DF90089531
:10356000CF93DF938091E80684FD11C040E06EE1C7
:103570008BE995E00E9416122FEF8EE994E221501C
:1035800080409040E1F700C000008FEF15C0C0EF11
:10359000D6E064E18EEA94E00E941C1A68E286EAB2
:1035A00094E00E941C1A8881811105C09091E9065F
:1035B00090FFEFCF01C080E0DF91CF910895CF93CE
:1035C000DF938091E80684FD11C040E06EE18BE955
:1035D00095E00E9416122FEF8EE994E22150804070
:1035E0009040E1F700C000008FEF15C0C0EFD6E0BB
:1035F00064E18EEB94E00E941C1A68E286EB94E092
:103600000E941C1A8881811105C09091E90690FFE3
:10361000EFCF01C080E0DF91CF91089580E090E08E
:103620000E94792091E08A3A09F490E0892F089568
:103630000E940E1B882359F060E070E082E090E069
:103640000E94AB206AEA80E090E00E949E2082E027
:1036500090E00E9481209093EB068093EA0681E03F
:1036600090E00E947920809301070895FC01208159
:1036700031812230310510F4D99808952330310575
:1036800011F4D99A08952930310511F4D998089583
:103690002B30310511F4D99A0895253F314018F0A7
:1036A000FC01118210820895D19AD99A0E94181BA8
:1036B0000E941E0C0E94070F87E996E00E94750881
:1036C00087E796E00E948E068BE08EBD80E989BF79
:1036D00081EE94E09BBD8ABD85B58A6085BD8CE78F
:1036E00083BD78940E94680F0E94C20FE0EFF6E05D
:1036F000118210828F010F2EFAEEEF2EF6E0FF2ED0
:10370000F02DC9ECD6E0F8018181882371F0118297
:1037100010820E94680F0E94C20F49E050E066ECE0
:1037200074E083E794E00E949E16F70184819581FE
:103730008C3C984258F0F701158214828091E9067A
:1037400082608093E90681E00E94CB0E8091E906B9
:1037500081FF0DC0F8018081882349F08091E9063E
:103760008D7F8093E906108280E00E94CB0E8F8DC2
:1037700080FF0AC082EF96E00E947A0D8F8D8E7FC7
:103780008F8F8F8D82608F8F8F8D81FF1DC0809175
:10379000F306909136068917A1F0809336068AE3E6
:1037A00092E00E94630FE2EFF6E023E04081618146
:1037B00082810E94FB1C46E160E00E9416120E947A
:1037C000C20F8F8D8D7F8F8F0E94E3179CCF1F922A
:1037D0000F920FB60F9211242F933F934F935F9345
:1037E0006F937F938F939F93AF93BF93EF93FF93C9
:1037F000809134069091350601969093350680931A
:10380000340684E396E00E94361BE5ECF6E0808106
:1038100091819C012F5F3F4F31832083883E9340ED
:1038200048F01092C6061092C5068091E9068160A4
:103830008093E90680913306873920F48F5F809367
:10384000330607C010923306E9ECF6E0878D8160FD
:10385000878F8091F20690914306891799F18093A2
:103860004306EAEEF6E08481958101969583848390
:1038700080913206863020F48F5F8093320607C035
:1038800010923206E9ECF6E0878D8460878FEAEECD
:10389000F6E0838191E0980F93838C3398F0138244
:1038A000828191E0980F92838C3360F01282808144
:1038B00091810196918380836081718182E090E0A3
:1038C0000E949820EEEFF6E0918189B38095282F31
:1038D0002927909131069223892F80958093310674
:1038E0009091300692239827909330068223892363
:1038F000918198279183218190818223892B8083D4
:10390000818188233CF085E990E090932F06809395
:103910002E0612C080912E0690912F06019790934B
:103920002F0680932E06892B39F4EEEFF6E0818185
:1039300092818078892B828380E80E94121A8823E2
:1039400019F081E08093F10680E80E94081A88232C
:1039500019F081E08093F006FF91EF91BF91AF9154
:103960009F918F917F916F915F914F913F912F9197
:103970000F900FBE0F901F9018951F920F920FB6C9
:103980000F9211242F938F939F93AF93BF93EF9335
:10399000FF93E6ECF4E0818924E08202C001112467
:1039A0008F70818BCE9B03C081898260818BCD9B80
:1039B00005C0E6ECF4E081898160818BA6ECB4E07F
:1039C0005196EC9151970E2E000CFF0BEA53FB4FD2
:1039D000808150969C915097890F50968C93FF91BF
:1039E000EF91BF91AF919F918F912F910F900FBE4B
:1039F0000F901F901895253008F06CC0223031F1DF
:103A000028F4222349F02130A1F067C0233059F176
:103A1000243009F43FC061C0E7E6F6E0982F9295A4
:103A20009F70905D90838F70805D81831282CF0143
:103A30000895E7E6F6E0862F82958F70805D80839B
:103A40006F70605D61831282CF010895E7E6F6E052
:103A5000842F82958F70805D80834F70405D41839D
:103A60001282CF010895E7E6F6E0982F92959F70B5
:103A7000905D90838F70805D81838AE38283862F3F
:103A800082958F70805D83836F70605D6483158223
:103A9000CF010895E7E6F6E0982F92959F70905D2C
:103AA00090838F70805D81839AE39283862F8295C5
:103AB0008F70805D83836F70605D64839583842FD6
:103AC00082958F70805D86834F70405D478310863E
:103AD000CF01089580E090E0089587E696E008958C
:103AE0008F3F31F4E7E6F6E080E38083818314C002
:103AF000E7E6F6E09DEC899F912D11249695969529
:103B0000969520E3290F2083990F292F220F220F4A
:103B1000920F891B805D81838AE3809369066F3FE2
:103B200031F4E7E6F6E080E38383848314C0E7E6BC
:103B3000F6E08DEC689F812D1124869586958695FB
:103B400090E3980F9383880F982F990F990F890FFF
:103B5000681B605D64838AE380936C064F3F31F499
:103B6000E7E6F6E080E38683878314C0E7E6F6E0C5
:103B70008DEC489F812D112486958695869590E33E
:103B8000980F9683880F982F990F990F890F481BCC
:103B9000405D478310926F0687E696E0089550587F
:103BA000BB27AA270E94E71D0C94C61E0E94B81EC0
:103BB00038F00E94BF1E20F039F49F3F19F426F41C
:103BC0000C94B51E0EF4E095E7FB0C94AF1EE92FA4
:103BD0000E94D71E58F3BA17620773078407950728
:103BE00020F079F4A6F50C94F91E0EF4E0950B2E56
:103BF000BA2FA02D0B01B90190010C01CA01A0013F
:103C00001124FF27591B99F0593F50F4503E68F199
:103C10001A16F040A22F232F342F4427585FF3CFDA
:103C2000469537952795A795F0405395C9F77EF4AB
:103C30001F16BA0B620B730B840BBAF09150A1F0F4
:103C4000FF0FBB1F661F771F881FC2F70EC0BA0F7A
:103C5000621F731F841F48F4879577956795B79502
:103C6000F7959E3F08F0B0CF9395880F08F09927FD
:103C7000EE0F9795879508950E94431E6894B111A1
:103C80000C94FA1E08950E94DF1E88F09F5798F04A
:103C9000B92F9927B751B0F0E1F0660F771F881F51
:103CA000991F1AF0BA95C9F714C0B13091F00E946B
:103CB000F91EB1E008950C94F91E672F782F88271C
:103CC000B85F39F0B93FCCF3869577956795B39592
:103CD000D9F73EF490958095709561957F4F8F4F01
:103CE0009F4F0895E89409C097FB3EF49095809506
:103CF000709561957F4F8F4F9F4F9923A9F0F92FB2
:103D000096E9BB279395F695879577956795B7952F
:103D1000F111F8CFFAF4BB0F11F460FF1BC06F5F15
:103D20007F4F8F4F9F4F16C0882311F096E911C027
:103D3000772321F09EE8872F762F05C0662371F048
:103D400096E8862F70E060E02AF09A95660F771F5C
:103D5000881FDAF7880F9695879597F9089597F950
:103D60009F6780E870E060E008959FEF80EC089521
:103D700000240A941616170618060906089500244A
:103D80000A9412161306140605060895092E0394C4
:103D9000000C11F4882352F0BB0F40F4BF2B11F438
:103DA00060FF04C06F5F7F4F8F4F9F4F089557FD97
:103DB0009058440F551F59F05F3F71F04795880F99
:103DC00097FB991F61F09F3F79F087950895121630
:103DD00013061406551FF2CF4695F1DF08C01616DC
:103DE00017061806991FF1CF86957105610508948D
:103DF0000895E894BB2766277727CB0197F90895A4
:103E00000E94131F0C94C61E0E94B81E38F00E9418
:103E1000BF1E20F0952311F00C94AF1E0C94B51E1C
:103E200011240C94FA1E0E94D71E70F3959FC1F3C3
:103E3000950F50E0551F629FF001729FBB27F00D58
:103E4000B11D639FAA27F00DB11DAA1F649F6627AD
:103E5000B00DA11D661F829F2227B00DA11D621FFC
:103E6000739FB00DA11D621F839FA00D611D221FB6
:103E7000749F3327A00D611D231F849F600D211D9A
:103E8000822F762F6A2F11249F5750409AF0F1F01D
:103E900088234AF0EE0FFF1FBB1F661F771F881F86
:103EA00091505040A9F79E3F510580F00C94AF1EF1
:103EB0000C94FA1E5F3FE4F3983ED4F38695779511
:103EC0006795B795F795E7959F5FC1F7FE2B880F2C
:103ED000911D9695879597F90895DB018F939F9390
:103EE0000E94CD1FBF91AF91A29F800D911DA39FF6
:103EF000900DB29F900D11240895A1E21A2EAA1BD5
:103F0000BB1BFD010DC0AA1FBB1FEE1FFF1FA21789
:103F1000B307E407F50720F0A21BB30BE40BF50B86
:103F2000661F771F881F991F1A9469F7609570950F
:103F3000809590959B01AC01BD01CF010895052EA0
:103F400097FB1EF400940E94B61F57FD07D00E94F5
:103F50007D1F07FC03D04EF40C94B61F509540957E
:103F6000309521953F4F4F4F5F4F08959095809525
:103F7000709561957F4F8F4F9F4F0895A29FB0011D
:103F8000B39FC001A39F700D811D1124911DB29F8D
:103F9000700D811D1124911D08950E94BE1FA59FC3
:103FA000900DB49F900DA49F800D911D1124089534
:103FB000B7FF0C94CD1F0E94CD1F821B930B089559
:103FC000E894DF93CF93FC01DB010E94BE1F7F9337
:103FD0006F93E9019A01AC01BF93AF933F932F9385
:103FE000DF010E94BE1F26F46C1B7D0B820B930B1E
:103FF0009E01EB01FC010E942920AF91BF912F91FE
:104000003F910E942920BE01CF01F9012F913F91DC
:10401000CF91DF91089597FB10F8169400080F9345
:10402000083098F00850232F342F452F562F672F34
:10403000782F892F902DF4CF0594979587957795B4
:10404000679557954795379527950A95AAF70F9144
:1040500008950E94BE1F460F571FC81FD91F08F49E
:1040600031960895FB01DC010D900020E9F71197CE
:1040700001900D920020E1F70895FB01DC01019011
:104080000D920020E1F70895BB274A3031F49923BF
:1040900022F4BDE2909581959F4F0C945020BB2750
:1040A000FB015527AA27880F991FAA1FA41710F0F4
:1040B000A41B83955051B9F7A05DAA3308F0A95D00
:1040C000A193009779F7B111B1931192CB010C94A0
:1040D0006920DC01FC01672F71917723E1F73297AA
:1040E00004C07C916D9370836291AE17BF07C8F3D3
:1040F0000895E199FECF9FBB8EBBE09A99278DB3BF
:104100000895A8E1B0E042E050E00C94B220262FE0
:10411000E199FECF9FBB8EBBE09A01970DB20216CC
:1041200031F02DBB0FB6F894E29AE19A0FBE0895D4
:104130000196272F0E9488200C948720262FE19932
:10414000FECF9FBB8EBB2DBB0FB6F894E29AE19ACF
:104150000FBE019608950E949E20272F0C949F2049
:10416000DC01CB01FC01E199FECF06C0FFBBEEBB39
:10417000E09A31960DB20D9241505040B8F7089533
:04418000F894FFCFE1
:10418400303030303030303030303030303030302B
:104194003030303078464600000000000000000057
:1041A400000000000000000000000000000000000B
:1041B40000000000000000000000000000000000FB
:1041C40000000000000000000000000000000000EB
:1041D40000000000000000000000000000000000DB
:10459400000000AE05000000BD05981600E505B05A
:1045A4001A00FB05DF1A00C505641300CD055F1270
:1045B40000D60547120020051F1400DF054112FF35
:1045C400183B3B000001E405EC050180FF7FE40596
:1045D400F2050180FF7FFA05EC050180FF7FFA05F3
:1045E40001060180FF7F00000000000000000100C0
:1045F400000000FF00000000A83FD300402000A1FD
:10460400C8DA1281FFA4A6D5808D140021007F2270
:1046140000075265626F6F742E2E002D426574720E
:10462400696562737374756E64656E005A6165685A
:104634006C65722067656C6F657363687421002D07
:104644004572726F72287329002D5568727A6569F4
:1046540074207374656C6C656E2E2E002D3E004CB8
:10466400756674647275636B3A200020687061002B
:104674004C7566746665752E203A200054656D701D
:104684002E5B315D203A20002043656C2E200053C0
:1046940063616E6E696E67206E6F772E2E00205BED
:1046A4006D61782F6D696E5D005B6D61785D2E3A8A
:1046B40020005B6D696E5D2E3A2000506C6561735D
:1046C4006520747279206C617465722E2E002D45FC
:1046D400696E7374656C6C756E67656E005568728F
:1046E4007A6569740048656C6C69672E004265746C
:1046F400726965622E004E6575737461727400454B
:10470400786974002D424D503138300054656D7015
:104714002E004C75667464722E002D534854323149
:084724000046657563682E0074
:00000001FF
