:100000000C94AF080C94CC080C94CC080C94CC083D
:100010000C94811E0C94CC080C94CC080C94AB1D51
:100020000C94CC080C94CC080C94CC080C94CC0800
:100030000C94CC080C94CC080C94CC080C94CC08F0
:100040000C94CC080C94CC080C94CC080C94CC08E0
:100050000C94CC0800000507207F08010000000078
:100060000000005F00000007000700147F147F14E9
:10007000242A7F2A1223130864623649552250002D
:1000800005030000001C2241000041221C00082A38
:100090001C2A0808083E080800503000000808081C
:1000A0000808006060000020100804023E51494525
:1000B0003E00427F400042615149462141454B315B
:1000C0001814127F1027454545393C4A49493001EB
:1000D000710905033649494936064949291E003642
:1000E0003600000056360000000814224114141493
:1000F00014144122140800020151090632497941C1
:100100003E7E1111117E7F494949363E41414122CF
:100110007F4141221C7F494949417F090901013E34
:10012000414151327F0808087F00417F4100204053
:10013000413F017F081422417F404040407F02043C
:10014000027F7F0408107F3E4141413E7F0909093B
:10015000063E4151215E7F091929464649494931E8
:1001600001017F01013F4040403F1F2040201F7F91
:100170002018207F6314081463030478040361517A
:1001800049454300007F4141020408102041417F5E
:10019000000004020102044040404040000102040B
:1001A0000020545454787F48444438384444442010
:1001B000384444487F3854545418087E09010208D2
:1001C0001454543C7F0804047800447D40002040CF
:1001D000443D00007F10284400417F40007C04180B
:1001E00004787C0804047838444444387C1414149B
:1001F00008081414187C7C0804040848545454203B
:10020000043F4440203C4040207C1C2040201C3CBB
:100210004030403C44281028440C5050503C44642A
:10022000544C44000836410000007F000000413675
:10023000080008082A1C08081C2A080800000F1FCC
:100240002A1108010000000000000000000000006A
:10025000000000000000000000000000000000009E
:10026000000000000000000000000000000000008E
:10027000000000000000000000000000000000007E
:10028000000000000000000000000000000000C0AE
:10029000C0C0C0C0C0FCFCFCFCC0C0C0C0C00000EE
:1002A000000000000F0F0F0F000000000000000012
:1002B000000000000000000000000000000000003E
:1002C000000000000000000000000000000000002E
:1002D000000000000000000000000000000000001E
:1002E000000000000000000000000000000000CF3F
:1002F000CF3F3F00000000000000000000000000B1
:1003000000000000000000C0C0C0C0C0C0C0C0C02D
:10031000C0C0C0C0C0C0000000000000000000005D
:1003200000000000000000000000000000000000CD
:1003300000000000000000000000000000000000BD
:1003400000000000000000000000000000000000AD
:10035000000000000000000000000000000000009D
:10036000000000000000000F0F0F0F000000000051
:1003700000000000000000000000F0F0FFFF0F0090
:100380000000000000F0F0FFFF0F0F000000000071
:10039000F0F0FFFF0F0F00000000000000000F0F43
:1003A0000F0000000000000000000000F0F0FCFC66
:1003B0000F0F030303CFCFFCFCF0F0FFFFFFFF00A4
:1003C00000C0C03C3F03FFFFFFFFFFFFFFFF3C3CBF
:1003D0000303000000FFFFFFFF000003030F0F0CEB
:1003E0000C0C0F0F03030000303030303C3CFFFF9B
:1003F000FFFF0000000000000000000000FFFFFF02
:10040000FF0000000000000000000000FFFFFFFFF1
:1004100000000000000C0C0C0C0C0C0F0F0F0F0C4C
:100420000C0C0C0CF0F0FCFC0F0F030303030FFF8C
:10043000FCFCF00000000000000000C0C0F0FF3F26
:100440003F0FC0C0F0F03C3C0F0F03030000000062
:10045000000F0F0F0F0C0C0C0C0C0C0C0C0C0C0CDC
:10046000F0F0FCFC0F0F030303030F1FFCFCF00074
:100470000000003030303030303030FFDF8FF0F0AF
:10048000F0F00000000000000080FFFFFF0000030C
:10049000030F0F0C0C0C0C0F0F03030000000000E7
:1004A000F0F0FFFF0F0F00000000000000FCFCFF59
:1004B000FF0303C0C0C0C0000000FFFFFFFFC0C0BB
:1004C000C0C0FFFFFFFFC0C0C00000000000000070
:1004D000000F0F0F0F000000FFFFFFFF03030303D8
:1004E000030303030303030F0F0F0F0C0C0C0C0C7F
:1004F0000C3CFCF0F0C0F0F0F0F000000000000058
:1005000000FFFFFFFF000003030F0F0C0C0C0C0F8C
:100510000F0303000000C0C0F0F03C3C0F0F0303CA
:10052000030303FCFCFFFF333330303030F0F0C006
:10053000C000FFFFFFFF00000000000000FFFFFF02
:10054000FF000003030F0F0C0C0C0C0F0F03030034
:100550000303030303030303030303FFFFFFFF007E
:10056000000000000000C0C0FFFF3F3F000000008F
:10057000000000F0F0FFFF0F0F000000000000007F
:1005800000000F0F0F0F000000000000F0F0FCFC57
:100590000F0F0303030F0FFCFCF0F00303CFCFFC9E
:1005A000FC303030FCFCCFCF0303FFFFFFFF000027
:1005B0000000000000FFFFFFFF000003030F0F0C0F
:1005C0000C0C0F0F03030000E0F0FCFC0F0F030303
:1005D000030F0FFCFCF0E0070F3F3FF0F0C0C0C07E
:1005E000C0C0FFFFFFFF0000000000000000C0C00F
:1005F000FCFC3F3F030C0C0C0C0C0C0F0F03030016
:1006000000000000000000000000000000000000EA
:100610000000000000000000003C3C3C3C000000EA
:1006200000000000000000000000000000000000CA
:10063000000000000000000F0F0F0F00000000007E
:1006400030860A0F206068000003070B090E0B03B9
:100650000505060903050304080608080908080833
:1006600008080303090809080C0C09090909080A04
:100670000A03090C080C0A0A090A0A090B0A0C10D9
:100680000C0B0905040508080309090909090609ED
:100690000903040A030D0909090906080609090FD7
:1006A0000B090706020609080000000000001E1ED4
:1006B0001E001E1E1E000000000000003030F0FE74
:1006C0003E3030F0FE3E30061E1F0706061E1F0796
:1006D0000606387CFEE6FFC6CE8C0C040C1C183FC8
:1006E000191F0F073C7E42427E3C8060108C828046
:1006F0008000000000100C0201000F1F10101F0FDF
:1007000000809CFEFEE6BE3E9C8080070F1F1918ED
:10071000191F0F0F1F1D1E1E1E000000E0F8FC1EFB
:10072000020F3F7FF080021EFCF8E080F07F3F0F59
:1007300008683E3E6808000000000000C0C0C0F825
:10074000F8F8C0C0C00101010F0F0F010101000046
:1007500000DC7C3C80808080800303030303000076
:10076000001C1C1C0080780618070000F8FCFE0620
:1007700006FEFCF8070F1F18181F0F07607038FEE1
:10078000FEFE0000001F1F1F181C1E0686FEFC78C0
:10079000181C1E1F1B191818081C1EC6C6FEFC3884
:1007A000060E1E18181F0F0780C0F0381CFEFEFE34
:1007B0000003030303031F1F1F03F0FEFE6666E62C
:1007C000C686060E1E18181F0F07F0FCFE4666EEC2
:1007D000CE8C030F1F18181F0F0706060686E6F6B5
:1007E0001E0600001C1F1F01000038FCFEC6C6FECE
:1007F000FC38070F1F18181F0F0778FCFE8686FEAF
:10080000FCF0040C1D19181F0F037070701C1C1CC9
:10081000707070DC7C3CE0E0E0F0707070383803A1
:100820000303070707070E0E70707070707070700A
:1008300007070707070707073838707070F0E0E010
:10084000E00E0E07070707030303181C9EC6E6FE0B
:100850007C3800001D1D1D000000E018C4F43A0A99
:100860000AF2FA7C08F00718272F48484C4F4F2807
:1008700036110080E0F8FE1EFEF8E08000001C1F2C
:100880000F07060606070F1F1C10FEFEFEC6C6FE5B
:10089000BC98001F1F1F1818181F0F07F0FCFC0E34
:1008A000060E1E1C08030F1F1C181C1F0E06FEFE42
:1008B000FE06060EFEFCF01F1F1F18181C1F0F035C
:1008C000FEFEFEC6C6C6C6C6061F1F1F181818188D
:1008D0001818FEFEFEC6C6C6C6061F1F1F00000073
:1008E0000000F0FCFC0E06C6CEDEDCC8030F0F1CB9
:1008F00018181C1F0F0FFEFEFEC0C0C0C0FEFEFE7B
:100900001F1F1F000000001F1F1FFEFEFE1F1F1FD6
:10091000000000000000FEFEFE060F1F1C18181F3E
:100920000F07FEFEFEC0E0F0F8DC0E0602001F1FFF
:100930001F00000001071F1E1810FEFEFE00000031
:1009400000001F1F1F1818181818FEFEFE3EF88022
:1009500080F83EFEFEFE1F1F1F00031F1F03001F27
:100960001F1FFEFEFE7CF0E080FEFEFE1F1F1F002C
:1009700001030F1F1F1FF0FCFC0E06060EFCFCF00F
:10098000030F0F1C18181C0F0F03FEFEFEC6C6C671
:10099000FE7E3C1F1F1F000000000000F0FCFC0E4C
:1009A00006060EFCFCF0030F0F1C181E1C1F1F3345
:1009B000FEFEFEC6C6C6FE7E3C001F1F1F000003D3
:1009C0000F1F1C10387CFEE6E6EEDEDC98060E1EDD
:1009D0001C18191F0F0706060606FEFEFE06060671
:1009E00006000000001F1F1F00000000FEFEFE00AA
:1009F000000000FEFEFE070F1F1C18181C1F0F072B
:100A00001EFEFCF0800080F0FCFE1E020000031FB2
:100A10001F1C1F1F03000000FEFEF80080F8FE3EB2
:100A2000FEF88000F8FEFE06000F1F1F1F070100E2
:100A300001071F1F1F0F0000061E3CF8F0E0F0F832
:100A40003C1E0602181E0F07030103070F1E181095
:100A5000020E1E7EF8E0F87E1E0E02000000001F4F
:100A60001F1F00000000000606C6E6F63E1E0E1C14
:100A70001E1F1B1918181818FEFEFE0606FFFFFFA2
:100A8000C0C006788000000007180606FEFEFEC003
:100A9000C0FFFFFF40707C1E1E7C70400000000005
:100AA0000000000000000000000000004040404046
:100AB0004040404002060400000040607030B0B08A
:100AC000F0F0E00E1F1F1B19091F1F1FFEFEFE6026
:100AD0003030F0E0C01F1F1F0C18181F0F07C0E0B8
:100AE000F0703030706040070F1F1C18181C0C0489
:100AF000C0E0F0303060FEFEFE070F1F18180C1F1C
:100B00001F1FC0E0F0B0B0B0F0E0C0070F1F1D190C
:100B1000191D0D0530FCFEFE3636001F1F1F00009C
:100B2000C0E0F0303060F0F0F047CFDFD8D8CCFF35
:100B30007F3FFEFEFE203030F0F0E01F1F1F000060
:100B4000001F1F1FF6F6F61F1F1F00F6F6F6C0FF68
:100B5000FF7FFEFEFEC0E0F0F03010001F1F1F03FD
:100B600001071F1E1C10FEFEFE1F1F1FF0F0F020CD
:100B700030F0F0E02030F0F0E01F1F1F00001F1FDA
:100B80001F00001F1F1FF0F0F0203030F0F0E01FBA
:100B90001F1F0000001F1F1FC0E0F0703070F0E04A
:100BA000C0070F1F1C181C1F0F07F0F0F0603070FB
:100BB000F0E0C0FFFFFF0C18181F0F07C0E0F03077
:100BC0003060F0F0F0070F1F18180CFFFFFFF0F077
:100BD000F02030101F1F1F000000E0F0F09090B0D8
:100BE000302008191B13131F1F0E30FCFCFE303081
:100BF000000F1F1F1818F0F0F0000000F0F0F00FC9
:100C00001F1F1818081F1F1F10F0F0C000E0F0F0A1
:100C1000100000071F1C1F07000010F0F0E000008C
:100C2000F0F0F00000E0F0F0100000071F1E0F03CE
:100C300000030F1E1F070000103070E0C080C0E0EE
:100C400070301010181E0F0703070F1E181010F039
:100C5000F0C000C0F0F030C0C0C7FFFC3F0F010083
:100C6000303030F0F0F0301C1E1F1B191818000037
:100C7000FCFEFE0603037FFFFCC0FEFEFFFF06FE38
:100C8000FEFC0000C0FCFF7F0303C0E0E0E0E0C02A
:100C9000C0C0E0010000000101010100F8080808DF
:100CA000080808F81F1010101010101F1E6C0A0EF4
:100CB0002060680000010308070A08010303050714
:100CC00001040104060306060706060606060101DE
:100CD000060606060D0907080807070907010508A3
:100CE00007090709070908070707090D0809080286
:100CF00004020508020606050606040606010206A9
:100D00000109060606060405040607090607060388
:100D100001030707FE141E001E0000009090F896C5
:100D200090F89690001C00001C000000182422FF80
:100D30004242840810103C1008041C22221CC030BF
:100D40008C4240800000100C00000C10100C805CE5
:100D50002262920C80000C101010100C08101E0063
:100D6000F00C021C6080020CF080601C04140E1455
:100D7000040000000000404040F8404040000000F7
:100D80000C000000007080808080000000000010D7
:100D900000C0380618040000FC02020202FC0C101D
:100DA0001010100C0804FE00001C0C020282423CD1
:100DB0001018141010100C02222222DC0C1010103B
:100DC000100C8040300804FE0004040404041C04D9
:100DD0003816121212E20C1010101804F8442222D5
:100DE00022C40C101010100C020202E21A060000BD
:100DF0001C000000DC22222222DC0C101010100C3F
:100E00003C42424222FC08101010080408100870EE
:100E100040A0A010100800000004040890909090DA
:100E20009090000000000000081010A0A0400804EE
:100E3000040000000C028242221C0000140000008A
:100E4000E01804C422121212A2720408F00C3040FE
:100E50004C909090889C90504C200080E09C829C0C
:100E6000E08000180400000000000418FE22222286
:100E70002222DC1C10101010100CF80402020202D6
:100E800004080408101010100804FE0202020202F6
:100E900004F81C10101010100804FE222222222236
:100EA000221C101010101010FE2222222222021CDE
:100EB000000000000000F804020202424244C8049C
:100EC0000810101010100804FE2020202020FE1C06
:100ED00000000000001CFE1C00000000FE0C1010B2
:100EE000100CFE804020508804021C00000000040A
:100EF0000810FE0000000000001C10101010101060
:100F0000FE0C30C000C0300CFE1C000004180400B1
:100F1000001CFE0418608000FE1C00000004081C79
:100F2000F804020202020204F80408101010101063
:100F30000804FE42424242423C1C00000000000005
:100F4000F804020202020204F80408101010140847
:100F50001C10FE424242C242423C1C0000000004FF
:100F600008101C22222242428C0C10101010100C6F
:100F7000020202FE0202020000001C000000FE004D
:100F800000000000FE04081010100804061860801D
:100F900000806018060000000418040000000638F5
:100FA000C000C03C023CC000C03806000004180469
:100FB0000000000418040000020C906060900C0215
:100FC000100C000000040C1002041820C0201804AB
:100FD00002000000001C0000000000028242221AF1
:100FE00006021018141010101010FE02FC800638B3
:100FF000C0000000041802FE80FC201C021C20001F
:1010000000000000000000000000000080808080E0
:1010100080808080020400001088484848F00C104E
:101020001010081CFE10080808F01C081010100C06
:10103000F0080808100C10101008F008080810FE3E
:101040000C101010081CF048484848700C10101084
:10105000100808FC0A0A001C0000F008080810F834
:101060004C909090887CFE10080808F01C0000004E
:10107000001CFA1C00FA807CFE8040A010081C00B6
:1010800000000C10FE1CF8100808F0100808F01CF6
:101090000000001C0000001CF810080808F01C00EC
:1010A0000000001CF008080808F00C101010100CCC
:1010B000F810080808F0FC081010100CF0080808D8
:1010C00010F80C10101008FCF81008081C000000A4
:1010D0003048484890081010100C08FE0808001C02
:1010E0001010F800000000F80C101010081C186018
:1010F00080008060180000041804000018E000E080
:1011000018E000E018000418040004180400083077
:10111000C0C03008100C00000C1018608000806007
:101120001800808C700C00000808886818081018D7
:1011300014101010807C02007C80FEFC027C8080F9
:101140007C004020206040402000000000000000A3
:10115000FC0404040404FC1C10101010101C1124C6
:101160001FBECFE5D8E0DEBFCDBF16E0A0E6B0E001
:10117000E2E6F4E402C005900D92A232B107D9F77D
:1011800027E0A2E2B6E001C01D92A832B207E1F763
:101190000E94221D0C942F220C940000E0E6F0E047
:1011A00021E320839EE2918380E38283938384837F
:1011B000858386838783808791872287238782E33D
:1011C000848785879687878785E3808B818B128AC2
:1011D000CF010895FC01DC015C969C01285E3F4F25
:1011E0008FEF80831D9211821282138214821582E6
:1011F0003696E217F307A9F780E00895FC01628FA5
:10120000438F808D918D84319105B8F4643088F4DA
:10121000DF01A60FB11D5C962C91253008F048C067
:10122000442349F038C0DF01A20FB31F5C961C9223
:1012300017C082E0089584E00895262F30E0D90198
:10124000AA0FBB1FA20FB31FAA0FBB1FAE0FBF1F5A
:101250006C93DF01A20FB31F5C965C91553018F7B9
:10126000DF01A20FB31F5C965C915C970196918F92
:10127000808F81E0850F5C968C93C901880F991F40
:10128000820F931F880F991FE80FF91FE50FF11DBB
:10129000418380E00895262F30E0D901AA0FBB1FBB
:1012A000A20FB31FAA0FBB1FAE0FBF1F6C93D8CFE7
:1012B000262F30E0D901AA0FBB1FA20FB31FAA0F20
:1012C000BB1FAE0FBF1F6C93AECFAF92BF92CF923A
:1012D000DF92EF92FF920F931F93CF93DF9300D093
:1012E000CDB7DEB71A821982E2E2F6E02DE0DF0127
:1012F0001D922A95E9F72FE43BE631832083128281
:10130000A62EB12CF501EE0FFF1FEA0DFB1DEE0F0F
:10131000FF1FE80FF91F20812F3F09F46BC07C01EC
:101320004AE0BE016F5F7F4FC5010E94B32102E218
:1013300016E08CE390E0F80191838083BE016F5F3B
:101340007F4FC8010E94A121F80101900020E9F718
:10135000319783E290E09183808390E06701CA0C2B
:10136000DB1CFCE1CF0ED11C8501000F111FA00E6C
:10137000B11EAA0CBB1C87010A0D1B1D0F2EFCE21F
:10138000AF2EB12CF02D28C0FF24F394F90EF801F4
:10139000E90FF11D81814AE0BE016F5F7F4F90E050
:1013A0000E94B321BE016F5F7F4F82E296E00E94F0
:1013B000A121F801EF0DF11D8181882361F0D60193
:1013C0008C91F81640F4E2E2F6E001900020E9F793
:1013D0003197B182A0829F2DF60180819817A0F2EB
:1013E000E2E2F6E001900020E9F731978EE390E029
:1013F0009183808382E296E00F900F90DF91CF91EE
:101400001F910F91FF90EF90DF90CF90BF90AF9022
:101410000895EF92FF920F931F93CF93DF93C62F00
:101420007A01122F0E94440F8C2F0E94500F8823A4
:1014300031F042E063E089E796E00E94FE08112364
:10144000B1F0E7011150012F10E00F5F1F4F0E0D9B
:101450001F1D89910E94500F882331F043E063E003
:1014600089E796E00E94FE08C017D10791F70E9415
:101470006B0F80E0DF91CF911F910F91FF90EF9064
:101480000895DF92EF92FF920F931F93CF93DF9314
:10149000C82FD62F7A01D22E0E94440F8D2F0E9482
:1014A000500F882331F042E063E089E796E00E9424
:1014B000FE080E946B0F81E0D81208C08C0F0E94BA
:1014C000440F0E94640FF70180831BC081E08C0FE2
:1014D0000E94440FDD2071F0E7010FEF0D0D10E0C9
:1014E0000F5F1F4F0E0D1F1D0E945D0F8993C017C8
:1014F000D107D1F7D394E701CD0DD11D0E94640F20
:1015000088830E946B0F80E0DF91CF911F910F9134
:10151000FF90EF90DF900895AB01BC01411551059C
:101520006105710589F080E090E0DC01EFECF7E007
:101530003197F1F700C000000196A11DB11D4817B9
:1015400059076A077B0791F70895E9E9F6E089E012
:101550009AE091A780A781E49AE093A782A78EEEF4
:10156000828F8CE89AE095A784A780E00895CF93B6
:10157000DF93CDB7DEB766970FB6F894DEBF0FBE28
:10158000CDBFAE014F5F5F4F86E1FA0111928A95A0
:10159000E9F7A0912F06B09130069A96ED91FC9153
:1015A0009B9726E16AEA5A968C910995E0912F065D
:1015B000F09130064981042E000C550B660B770B19
:1015C000762F652F542F44272A8130E0422B532B4E
:1015D000518340834B81042E000C550B660B770B17
:1015E000762F652F542F44272C8130E0422B532B2C
:1015F000538342834D81042E000C550B660B770BF1
:10160000762F652F542F44272E8130E0422B532B09
:10161000558344832F8130E0322F22279885292B50
:1016200037832683298530E0322F22279A85292B7C
:10163000318720872B8530E0322F22279C85292B6C
:10164000338722874D85042E000C550B660B770BD4
:10165000762F652F542F44272E8530E0422B532BB5
:10166000558744874F85042E000C550B660B770B6E
:10167000762F652F542F4427288930E0422B532B97
:10168000578746874989042E000C550B660B770B4C
:10169000762F652F542F44272A8930E0422B532B75
:1016A000518B408B4B89042E000C550B660B770B2E
:1016B000762F652F542F44272C8930E0422B532B53
:1016C000538B428B4D89042E000C550B660B770B08
:1016D000762F652F542F44272E8930E0422B532B31
:1016E000558B448B66960FB6F894DEBF0FBECDBF08
:1016F000DF91CF9108950F931F93CF93DF931F92A4
:10170000CDB7DEB78C010E94A50A1982109330066E
:1017100000932F06D8019A96ED91FC919B9721E0BA
:10172000AE014F5F5F4F60ED5A968C910995182F6F
:10173000A0912F06B0913006898157968C935797C8
:1017400041E050E060E070E090964D935D936D93C2
:101750007C93939795961C921E92949797961C92C1
:101760001E9296979A96ED91FC919B9721E0AE017F
:101770004F5F5F4F61ED5A968C910995180FE0917C
:101780002F06F09130069981892F8F70808F929566
:101790009F70918F0E94B70A810F0F90DF91CF91B8
:1017A0001F910F910895CF92DF92EF92FF920F93C6
:1017B0001F93CF93DF93C0912F06D09130062A85D7
:1017C0003B857B018C01E21AF30A01091109A8018A
:1017D0009701A885B9850E943C216B017C010B2EE5
:1017E000BFE0F594E794D794C794BA95D1F7B02D9C
:1017F000C114D104E104F10421F48C899D8900977E
:10180000A9F16A897B89CB01770FAA0BBB0BBC01BD
:10181000CD01052E5BE0660F771F881F991F5A9533
:10182000D1F7502D2C893D898901330F220B330BC1
:10183000A90198012C0D3D1D4E1D5F1D0E940E211A
:10184000C20ED31EE41EF51ECC8EDD8EEE8EFF8EF4
:1018500008E0C00ED11CE11CF11C689413F8F5944B
:10186000E794D794C7941694D1F7C601DF91CF912E
:101870001F910F91FF90EF90DF90CF9008953F92CE
:101880004F925F926F927F928F929F92AF92BF9290
:10189000CF92DF92EF92FF920F931F93CF93DF933C
:1018A000CDB7DEB72A970FB6F894DEBF0FBECDBF17
:1018B0006D837E838F83988700912F061091300669
:1018C000D8015C96CD90DD90ED90FC905F97B0EAEA
:1018D000CB1ABFE0DB0AE108F108A7019601C701B6
:1018E000B6010E94DC202B013C01032E3CE07594E4
:1018F0006794579447943A95D1F7302DF801A6850F
:10190000B785A30192010E94472169837A838B8363
:101910009C83A281B381A70196010E9447214B01BC
:101920005C0134A0A481B5810E9447216B017C0138
:101930000B2EBDE0F594E794D794C794BA95D1F7F0
:10194000B02DA485B585A30192010E944721BB2734
:1019500097FDB095AB2F8C0D9D1DAE1DBF1D029642
:10196000A11DB11DB595A79597958795B595A79597
:10197000979587959C01AD0130584F4F5F4FA681D9
:10198000B7810E943C216B017C010B2EBFE0F694D5
:10199000E794D794C794BA95D1F7B02D89819A81ED
:1019A000AB81BC81072E7BE0B595A7959795879570
:1019B0007A95D1F7702D072E7BE0B594A794979474
:1019C00087947A95D1F7702D880E991EAA1EBB1E9A
:1019D00080819181092E000CAA0BBB0B880F991FE7
:1019E000AA1FBB1F880F991FAA1FBB1F880E991E15
:1019F000AA1EBB1E032C04C0880C991CAA1CBB1C6D
:101A00000A94D2F7F2E08F0E911CA11CB11CB59480
:101A1000A79497948794B594A794979487942D81CD
:101A20003E814F815885281939094A095B0980E5AB
:101A300093ECA0E0B0E0BC01CD0104C09595879582
:101A4000779567953A94D2F70E94DC2099238CF021
:101A5000C114D104E104F10409F453C0660F771FE7
:101A6000881F991FA70196010E94EC2049015A0185
:101A700010C0C114D104E104F10409F446C0A70167
:101A800096010E94EC2049015A01880C991CAA1C5D
:101A9000BB1C9927B7FC9A958B2D7A2D692D9B013C
:101AA000AC010E94DC209B01AC01AEEDBBE00E94CA
:101AB0003C216B017C01A3E4B3EEA50194010E94DB
:101AC0004A21BB2797FDB095AB2F6701FF24D7FCB8
:101AD000F094EF2C8C0D9D1DAE1DBF1D8153914FB9
:101AE000AF4FBF4F689413F8B595A7959795879515
:101AF0001694D1F7BC01CD01680D791D8A1D9B1D7F
:101B000007C060E070E0CB0103C060E070E0CB0193
:101B10002A960FB6F894DEBF0FBECDBFDF91CF91EE
:101B20001F910F91FF90EF90DF90CF90BF90AF90FB
:101B30009F908F907F906F905F904F903F9008950F
:101B4000CF93DF9300D01F92CDB7DEB719821A82F0
:101B50008EE28B83A0912F06B09130069896ED917E
:101B6000FC91999721E0AE014D5F5F4F64EF5A966B
:101B70008C910995E0912F06F091300604A4F5A50B
:101B8000E02D65E070E080E090E00995A0912F06DF
:101B9000B09130069A96ED91FC919B9722E0AE01B0
:101BA0004F5F5F4F66EF5A968C9109958981082E99
:101BB000000C990BAA0BBB0BBA2FA92F982F8827C3
:101BC0002A8130E0822B932B0F900F900F90DF91A2
:101BD000CF9108954F925F926F927F928F929F92D2
:101BE000AF92BF92CF92DF92EF92FF920F931F932B
:101BF000CF93DF9300D000D0CDB7DEB719821A8221
:101C00001B821C82A0912F06B091300696968D9172
:101C10009C9197978130910509F093C094968D918E
:101C20009C919597039709F0F3C013E0C12CD12C38
:101C300076010F2EF3E08F2E912CF02D6894AA24BC
:101C4000A3F8B12C412C512C32014394A0912F06C2
:101C5000B091300694968C9194978295880F880F56
:101C6000807C8C5C8C839896ED91FC91999721E017
:101C7000AE014C5F5F4F64EF5A968C910995E091ED
:101C80002F06F0913006B40104A002C0660F771F42
:101C90000A94E2F76E5F7F4F072E000C880B990BBA
:101CA00004A4F5A5E02D0995A0912F06B09130066A
:101CB0009A96ED91FC919B9723E0AE014F5F5F4FA9
:101CC00066EF5A968C910995E0912F06F0913006B7
:101CD00029818A8190E0A0E0B0E0BA2FA92F982F47
:101CE0008827A22B2B81822B24A135A1A501421B81
:101CF000530B04C0B695A795979587954A95D2F74B
:101D000040A251A262A273A2C80ED91EEA1EFB1EF7
:101D1000115009F09BCFC701B6012BEA3AEA4AEA13
:101D20005AEA0E944F2100E20E947C21822E932ECB
:101D3000A42EB52EC501B401969587957795679524
:101D40006EC0892B09F068C094968C919497829507
:101D5000880F880F807C8C5C8C839896ED91FC9129
:101D6000999721E0AE014C5F5F4F64EF5A968C91DA
:101D70000995E0912F06F091300663E070E004A031
:101D800002C0660F771F0A94E2F76E5F7F4F072E3F
:101D9000000C880B990B04A4F5A5E02D0995A091E2
:101DA0002F06B09130069A96ED91FC919B9723E017
:101DB000AE014F5F5F4F66EF5A968C910995E091A7
:101DC0002F06F091300629816A81862F90E0A0E0ED
:101DD000B0E0BA2FA92F982F8827A22B2B81822B16
:101DE00044A155A128E030E0241B350BBC01CD01F6
:101DF00004C096958795779567952A95D2F7C12C5B
:101E0000D12C7601C394C0A2D1A2E2A2F3A207C052
:101E100060E070E0CB0103C060E070E0CB010F90A8
:101E20000F900F900F90DF91CF911F910F91FF9026
:101E3000EF90DF90CF90BF90AF909F908F907F906A
:101E40006F905F904F90089580E280B9089516BE1C
:101E500094EA96BF06B607FEFDCF91B1987F983001
:101E600079F483B984E886BF06B607FEFDCF91B149
:101E7000987F983139F081E0903429F480E008951A
:101E800081E0089580E00895CF93C82F8C2F0E94A1
:101E9000270F8111FBCFCF9108950E94270F08953E
:101EA00083B984E886BF06B607FEFDCF91B1987F5F
:101EB00081E0983209F480E0089584EC86BF06B68C
:101EC00007FEFDCF83B1089584E886BF06B607FEFE
:101ED000FDCF83B1089584E986BF0895982F929528
:101EE0009F70990F292F220F220F920F8F70890F49
:101EF0000895DF92EF92FF920F931F93CF93DF939A
:101F00007C01162F82EA0E94270F882331F041E0DE
:101F100061E089E796E00E94FE08F70180810E9457
:101F2000500F882331F042E061E089E796E00E949B
:101F3000FE0883EA0E944D0FD82E811105C011239F
:101F400011F1113089F40BC041E061E089E796E0BE
:101F50000E94FE080E946B0FDD24D3941AC00E94D9
:101F6000640FF701808315C0E7011150612F70E005
:101F70006F5F7F4FE60EF71E87010E945D0F89930A
:101F8000C017D107D1F70E94640FF70180830E9428
:101F90006B0F8D2DDF91CF911F910F91FF90EF90DF
:101FA000DF9008950F931F93CF93DF938C01D62F6B
:101FB00082EA0E94440FDD2319F1D13079F4F8014F
:101FC00080810E94500F882331F043E061E089E76F
:101FD00096E00E94FE080E946B0F18C0C1E001C08D
:101FE000CF5FF80181918F010E94500F882359F033
:101FF00043E061E089E796E00E94FE08CD1780F398
:102000000E946B0F03C0CD1758F3FACF80E0DF9129
:10201000CF911F910F910895E1E3F6E092E0908354
:102020009DEC499F212D112426952695269530E17A
:10203000239FD0011124220F322F330F330F230F90
:10204000421B4A2B4183699F212D112426952695F9
:10205000269530E1239FA0011124220F322F330F48
:10206000330F230F621B642B6283899F912D1124F0
:1020700096959695969540E1949F90011124990F1D
:10208000392F330F330F930F891B822B83836BE020
:10209000CF010E94D20F08950F931F93CF93DF9328
:1020A000EC0101E316E082E0D8018C936BE0C801FB
:1020B0000E94790FD801EC91E88311967C911197D9
:1020C000798312966C9112976A8313965C91139799
:1020D0005C8314963C9114973D8315964C9115970B
:1020E0004B8316968C91169790E09F838E8317965C
:1020F0002C911797288718969C911897998719966D
:102100008C9119978A871A96FC91EF77E8837F77ED
:1021100079836F736A835F735C834F714B8337700E
:102120003D832F7728879F7799878F778A878F2F8F
:102130008F778B87DF91CF911F910F910895662341
:10214000D1F0FC016150262F30E02F5F3F4FAC01F2
:10215000420F531F80E021E39191892798E0882363
:102160001CF4880F822701C0880F9150C1F7E41733
:10217000F50791F7089580E00895DF92EF92FF92BE
:102180000F931F93CF93DF937C01162F80E80E945B
:10219000440FF70180810E94500F882331F042E004
:1021A00062E089E796E00E94FE0881E80E944D0FF8
:1021B000D82E811105C0112311F1113089F40BC003
:1021C00041E062E089E796E00E94FE080E946B0F02
:1021D000DD24D3941AC00E94640FF701808315C0D8
:1021E000E7011150612F70E06F5F7F4FE60EF71E21
:1021F00087010E945D0F8993C017D107D1F70E9414
:10220000640FF70180830E946B0F8D2DDF91CF91BA
:102210001F910F91FF90EF90DF9008950F931F9300
:10222000CF93DF938C01D62F80E80E94440FDD23EB
:1022300019F1D13079F4F80180810E94500F882380
:1022400031F043E062E089E796E00E94FE080E94D8
:102250006B0F18C0C1E001C0CF5FF80181918F0101
:102260000E94500F882359F043E062E089E796E02E
:102270000E94FE08CD1780F30E946B0F03C0CD179C
:1022800058F3FACF80E0DF91CF911F910F9108951D
:10229000DF92EF92FF920F931F93CF93DF9300D0C3
:1022A00000D01F92CDB7DEB77C018B018EEF898302
:1022B00061E0CE0101960E940E1187EE898362E0F3
:1022C000CE0101960E94BD10DA8061E0CE01019638
:1022D0000E949F10D81209C086EE8C8389818D835D
:1022E00062E0CE0104960E940E1183EE898363E0C2
:1022F000CE0101960E94BD10DB8062E0CE01019606
:102300000E949F10D81224C06981862F90E0A0E01F
:10231000B0E0BA2FA92F982F88272A81820F911D0C
:10232000A11DB11DBC01CD016C7F0E94E11F22E502
:1023300038EB4FE25BE30E946F2026E636E64BE384
:1023400052E40E943E1F0E94AB1FF701718360831D
:1023500085EE898363E0CE0101960E94BD10FB806B
:1023600062E0CE0101960E949F10F81224C069819C
:10237000862F90E0A0E0B0E0BA2FA92F982F8827F1
:102380002A81820F911DA11DB11DBC01CD016C7F61
:102390000E94E11F20E030E04AEF5AE30E946F20E4
:1023A00020E030E040EC50E40E943F1F0E94B21F4A
:1023B000F8017183608380E00F900F900F900F9071
:1023C0000F90DF91CF911F910F91FF90EF90DF90D1
:1023D0000895BF92CF92DF92EF92FF920F931F93D7
:1023E000CF93DF93EC017B01F89488E70E94270FDD
:1023F000B82E811109C0E114F10409F44EC081E046
:10240000E816F10449F510C080913D068160809383
:102410003D06E7ECF6E080818F5F80830E946B0FC2
:102420007894BB24B39441C088810E94500F8111DD
:1024300003C010923C060CC010923C0680913D06F1
:10244000886080933D06E7ECF6E083818F5F8383AD
:102450000E946B0F789429C08E01C0E0D0E00F2E4F
:10246000F7ECCF2EF6E0DF2EF02D2196F8018191CA
:102470008F010E94500F80933C06882391F01092A8
:102480003C0680913D06886080933D06F60183817D
:102490008F5F8383CE15DF0540F30E946B0F789426
:1024A00004C0CE15DF0508F3F8CF8B2DDF91CF9157
:1024B0001F910F91FF90EF90DF90CF90BF90089504
:1024C000EEE3F6E01082818362E070E0CF010E94CB
:1024D000E9110895EEE3F6E090E49083818362E0F1
:1024E00070E0CF010E94E9110895CF93DF93D82FB8
:1024F000C62F80E00E94601280EB8D0F0E94601258
:102500008C2F82958F7080610E9460128C2F8F704B
:102510000E946012DF91CF910895CF93DF93D0E0B6
:1025200060E08D2F0E947512C0E080E00E946A1268
:10253000CF5FC038D1F7DF5FD83091F7DF91CF910F
:1025400008959093CF068093CE0608958F929F9220
:10255000BF92CF92DF92EF92FF920F931F93CF9390
:10256000DF93B42EC091CE06D091CF06A82FB0E055
:10257000FE0134968491A81BB109FE01EA0FFB1FEE
:1025800038963491FE013696449150E0319684910C
:10259000813001F5CD0101970AF4DAC03497E49156
:1025A000E695E695E695F0E08F010F5F1F4FDE019F
:1025B0001296FD012491209FD001219FB00D11247E
:1025C00020E04A0F5B1F2F5FE22FF0E08E179F077E
:1025D000C4F7BEC08111CAC011970AF4C7C020E079
:1025E000FE01E20FF11D3896849190E0880F991F4B
:1025F000480F591F2F5F822F90E0A817B90784F763
:10260000B5C0C62EC694C694C6946B2D8C2D0E9460
:102610007512E091CE06F091CF0633962491822F69
:1026200086958695869590E000E010E0D12CC0E07C
:10263000D0E00F2EFBECEF2EF6E0FF2EF02D4C013C
:10264000FFEF8F1A9F0A8016910669F0D701129644
:102650002C91209FC001219F900D1124C817D907EC
:1026600008F441C059C0293088F32091CD06289D37
:10267000C001299D900D1124C817D90708F07CC00E
:102680008401000F111F000F111F000F111F0F2ECB
:10269000FBECEF2EF6E0FF2EF02DF70123813481C5
:1026A0000190F081E02DE20FF31FEC0FFD1F8491EC
:1026B000F901339694919801291B31092150310970
:1026C00001C0880F2A95EAF70E946A122196D70165
:1026D00012962C91289DC001299D900D1124C81798
:1026E000D907D8F249C0D7011396ED91FC91149700
:1026F0008D919C91E80FF91FEC0FFD1F84910E94B2
:102700006A122196F7012281209FC001219F900D1E
:102710001124C817D90738F36B2D8C2D8D0D0E940D
:102720007512D3940D2D10E0D7011396ED91FC9105
:10273000149733962491822F86958695869590E0FE
:10274000AC014E5F5F4F041715070CF478CF14C02F
:10275000ABECB6E011965C934E9312963C931297B5
:10276000FE013296849112968C934BCFEBECF6E0FF
:1027700051834083328345CFDF91CF911F910F91D9
:10278000FF90EF90DF90CF90BF909F908F90089533
:10279000CF92DF92EF92FF920F931F93CF93DF932D
:1027A000FC0180818823F1F0C42ED62E8F010F5FAB
:1027B0001F4FC0E0D0E00F2EFBECEF2EF6E0FF2E17
:1027C000F02D4C2F4C0D6D2D0E94A612F701228189
:1027D00030E02F5F3F4FC20FD31FF80181918F016F
:1027E0008111EFCFDF91CF911F910F91FF90EF906B
:1027F000DF90CF90089580E094E0E3E7F0E0DF0120
:102800009C011D9221503040E1F708950F931F93D2
:10281000CF93DF93C8EDD4E004EF14E089910E94D8
:102820006012C017D107D1F70E94FB13DF91CF913F
:102830001F910F910895EBEFF6E0108211828FEF58
:1028400008950E948D1280E496E00E94A11240E05B
:1028500069E184EF94E00E94C8132FEF88E09DE3C4
:10286000215080409040E1F700C00000E0E0F0E03F
:10287000099580E00895CF93DF9384E590E00E946E
:10288000A11240E060E08DEF94E00E94C8138091B7
:10289000FB06811129C0CBEFD6E060E089E796E026
:1028A0000E94650940E068E10E94C81361E089E781
:1028B00096E00E94650940E060E20E94C81362E071
:1028C00089E796E00E94650940E068E20E94C8132B
:1028D00063E089E796E00E94650940E060E30E94BA
:1028E000C81388818823C9F280E0DF91CF910895D1
:1028F000CF92DF92EF92FF920F931F93CF93DF93CC
:1029000040E060E087E095E00E94C8138CE392E02D
:102910000E94A1120F2EF5EFEF2EF6E0FF2EF02D04
:10292000C2E6D6E00BEF16E0CC2EDD2EF70140819B
:1029300051819A01329522952F7023273F702327CA
:10294000A7E4B3E00E942D219695879596958795EB
:1029500096958795805D88839A013695279536955B
:10296000279536952795A5ECB0E20E942D21FC0114
:10297000F295E295EF70EF27FF70EF279F01ADEC26
:10298000BCEC0E942D2196958795969587959695F6
:1029900087959C01220F331F880F991F880F991F5D
:1029A000880F991F820F931FE81BF90BE05DE983E5
:1029B0009A013695279536952795ABE7B4E10E94A5
:1029C0002D21FC01F695E7959F01ADECBCEC0E9432
:1029D0002D219695879596958795969587959C0137
:1029E000220F331F880F991F880F991F880F991F77
:1029F000820F931FE81BF90BE05DEA839A010E94A6
:102A00002D21FC01F695E795F695E795F695E79566
:102A10009F010E942D21969587959695879596956D
:102A200087959C01220F331F880F991F880F991FCC
:102A3000880F991F820F931F9F01281B390BC90113
:102A4000805D8B83CF01880F991FEE0FFF1FEE0F64
:102A5000FF1FEE0FFF1FE80FF91F4E1B5F0B405DBE
:102A60004C831D8244E16EE18C2D9D2D0E94C81384
:102A7000F8018181811104C08091F40680FF06C0B5
:102A80008091F4068E7F8093F4062FC0F801808138
:102A9000882309F44BCF1082809149068F5F809381
:102AA00049068A3008F442CF0E948D1284E590E0F6
:102AB0000E94A11240E06EE188E195E00E94C813F7
:102AC0001092490660E070E082E090E00E941A22D5
:102AD0001092F6061092F506FFEF24E33CE0F15069
:102AE00020403040E1F700C000000E948D1280E0DD
:102AF000DF91CF911F910F91FF90EF90DF90CF90DA
:102B000008954F925F926F927F928F929F92AF92B1
:102B1000BF92CF92DF92EF92FF920F931F93CF93CA
:102B2000DF9300D000D01F92CDB7DEB784E590E0F0
:102B30000E94A1128DE290E090936306809362065A
:102B4000609187047091880482E696E00E94A1213A
:102B500040E060E082E696E00E94C8131A82198283
:102B6000FE01339683E0DF011D928A95E9F77090AC
:102B70000C078CE392E00E94A11280E006EC14E0C6
:102B80000F2EF0ED8F2EF6E09F2EF02D0F2EF4E697
:102B90004F2EF02D0F2EFAE05F2EF02D6894AA2410
:102BA000A5F8BA2C6894CC24C5F8D12C0F2EFBEFD5
:102BB000EF2EF6E0FF2EF02DF8016088670C108AEA
:102BC000861519F0D40112961C92B3E6B61510F4CE
:102BD000742C01C0762CEAE07E1608F4752C452D85
:102BE000BE016F5F7F4F872D90E00E94B321BE0131
:102BF0006F5F7F4F82E696E00E94AC21E2E6F6E04E
:102C000001900020E9F73197B182A082D382C2827D
:102C100042E36EE182E696E00E94C8138BED0E94CB
:102C20006012872D0E946012D7018C91811105C01E
:102C30009091F406862D90FFBFCF8091F4068E7F91
:102C40008093F4061092FB0670920C07672D81E0CA
:102C500090E00E94F62180E00F900F900F900F906F
:102C60000F90DF91CF911F910F91FF90EF90DF9028
:102C7000CF90BF90AF909F908F907F906F905F901C
:102C80004F9008950F931F93CF93DF938C01EB0127
:102C9000FC01658576858785908924E630E040E0F3
:102CA00050E00E94EC208C859D85092E000CAA0B1B
:102CB000BB0B82179307A407B5076CF4F801658571
:102CC00076858785908924E630E040E050E00E94D8
:102CD0000E213D872C87F80165857685878590894B
:102CE00024E630E040E050E00E94EC208E859F8595
:102CF000092E000CAA0BBB0B281739074A075B07E4
:102D00006CF4F801658576858785908924E630E046
:102D100040E050E00E940E213F872E87F801618538
:102D20007285838594852AE030E040E050E00E947F
:102D30000E218C819D81092E000CAA0BBB0B8217E2
:102D40009307A407B5076CF4F80161857285838544
:102D500094852AE030E040E050E00E940E213D835F
:102D60002C83F80161857285838594852AE030E0A3
:102D700040E050E00E940E218E819F81092E000CC0
:102D8000AA0BBB0B281739074A075B076CF4F8013D
:102D900061857285838594852AE030E040E050E0CB
:102DA0000E940E213F832E83F801438D548D658D43
:102DB000768D8C8D9D8D092E000CAA0BBB0B841774
:102DC0009507A607B70734F4838D948DA58DB68D2E
:102DD0009D8F8C8FF801438D548D658D768D8E8DF2
:102DE0009F8D092E000CAA0BBB0B481759076A07C9
:102DF0007B0734F4838D948DA58DB68D9F8F8E8F38
:102E0000F801218D328D8C899D898217930724F4D6
:102E1000818D928D9D8B8C8BF801218D328D8E89C9
:102E20009F892817390724F4818D928D9F8B8E8B73
:102E3000DF91CF911F910F9108954F925F926F9202
:102E40007F928F929F92AF92BF92CF92DF92EF923A
:102E5000FF920F931F93CF93DF9300D01F92CDB7B4
:102E6000DEB78C0187E189838BE38A838B838DEFC7
:102E700096E00E944C100F2EFDEFEF2EF6E0FF2E95
:102E8000F02DF70182810E946E0FF8018083F70117
:102E900081810E946E0FF8018183F70180810E9479
:102EA0006E0FF801828384E590E00E94A1120E94D7
:102EB0008D1240E060E08BE295E00E94C8138CE345
:102EC00092E00E94A112F8014281618180810E94FA
:102ED000DF1E40E069E10E94C8138091F40680FD86
:102EE000C0C03801CE0101965C01412C0F2EF6ECDA
:102EF000CF2EF4E0DF2EF02D0F2EFBEFEF2EF6E0BD
:102F0000FF2EF02D4301F3015080F6018089580E09
:102F1000108AF7018081882311F0108294C0F70194
:102F20008181882339F011828091F4068160809339
:102F3000F40689C0F5018081581620F0F401108252
:102F4000512C02C0F4015082F1E04F1671F14F167E
:102F500028F022E0421609F44FC0D7CFF801428191
:102F6000618180810E94DF1E40E069E10E94C813F8
:102F7000FFEF20E782E0F15020408040E1F700C001
:102F80000000F801428161818FEF0E94DF1E40E066
:102F900069E10E94C813FFEF20E782E0F150204072
:102FA0008040E1F700C00000B0CFF80142816181AC
:102FB00080810E94DF1E40E069E10E94C813FFEF9C
:102FC00020E782E0F15020408040E1F700C000009F
:102FD000F80142816FEF80810E94DF1E40E069E1CD
:102FE0000E94C813FFEF20E782E0F15020408040AC
:102FF000E1F700C0000089CFF80142816181808142
:103000000E94DF1E40E069E10E94C813FFEF20E745
:1030100082E0F15020408040E1F700C000004FEF17
:10302000F801618180810E94DF1E40E069E10E9419
:10303000C813FFEF20E782E0F15020408040E1F725
:1030400000C0000062CF439493E0491651F0809194
:10305000F406EFEF6E1A7E0AFFEFAF1ABF0A80FF89
:1030600051CFF8014281618180810E940C100E9441
:103070008D1280E00F900F900F90DF91CF911F91F4
:103080000F91FF90EF90DF90CF90BF90AF909F9007
:103090008F907F906F905F904F90089580EA94E0BA
:1030A0000E941D1780E008952F923F924F925F92E9
:1030B0006F927F928F929F92AF92BF92CF92DF9248
:1030C000EF92FF920F931F93CF93DF9300D000D026
:1030D000CDB7DEB76C017B018A0184E590E00E94E8
:1030E000A1128091F4068E7F8093F406212C480172
:1030F00021E0821A91083FEF300F3A838BEF800F67
:103100008983712C0F2EFBEFAF2EF6E0BF2EF02D32
:10311000E4C0F701808982301CF421E0208B09C0D3
:10312000082E000C990B8816990618F42A81F701CD
:10313000208BF70120893DEF320F832F032E000CE7
:10314000990B05968017910708F03981432E332398
:103150000CF4472C8091540690E0422F022E000C74
:10316000550B8417950731F020935406E0EDF6E0F7
:1031700011821082472D672DF601808191810E9476
:10318000C8130E94CE08472D6CE30E94C8136894B0
:10319000332434F86894662461F84A94542C560C0D
:1031A000672D862D0E947512FCE3FB83872D0E94FC
:1031B0006A122B8121502B832111F8CF852D90E0AD
:1031C0009C838B8380179107B8F5F7012089422FE4
:1031D000022E000C550B84179507D9F4222E472D8B
:1031E000632D8EE395E00E94C8138B819C81880F2C
:1031F000991F880F991F2B813C81280F391F2C0D97
:103200003D1D4AE0632DF901808191810E94C81320
:1032100013C08B819C81880F991F880F991F2B8168
:103220003C81280F391F2C0D3D1D472D632DF901C1
:10323000808191810E94C8136394F8E03F0E26E0DC
:103240006212ACCFF5018081882309F446C0108258
:1032500011828091F4068E7F8093F4060E948D1275
:10326000822D90E09C01220F331F220F331F820F0B
:10327000931FF601E80FF91FFC83EB838281938192
:10328000892BC1F0F701108AEB81FC818281938147
:10329000FC0109958F3F71F484E590E00E94A11232
:1032A0008091F4068E7F8093F406EBEFF6E01082B7
:1032B000118217C084E590E00E94A1128091F4066B
:1032C0008E7F8093F406F501108211820E948D1288
:1032D000EB81FC818481F701808B8091F40680FF73
:1032E00018CF0E948D121092770681E080937606A7
:1032F00080E00F900F900F900F90DF91CF911F9172
:103300000F91FF90EF90DF90CF90BF90AF909F9084
:103310008F907F906F905F904F903F902F90089587
:10332000CF9360E00E947512C0E080E00E946A12B4
:10333000CF5FC038D1F7CF9108954F925F926F92CF
:103340007F928F929F92AF92BF92CF92DF92EF9235
:10335000FF920F931F93CF93DF938091F30682FF29
:103360002EC160E676E08EE596E00E9448110E944C
:10337000EA0D60935A0670935B0680935C06909307
:103380005D060E943F0C60935A0670935B06809323
:103390005C0690935D060E94A00DBC0180E090E069
:1033A000609356067093570680935806909359067B
:1033B0000E94D30B092E000CAA0BBB0B8093560660
:1033C00090935706A0935806B09359062091530640
:1033D00031E0320F30935306253009F0A5C010922A
:1033E0005306C4EDD6E069817A818B819C812DECF6
:1033F0003CEC4CEC5CEC0E944F2100E20E947C21F2
:10340000822E932EA42EB52EB694A79497948794CB
:10341000B694A7949794879489829A82AB82BC824F
:103420006D817E818F8198850F2EF5E04F2E512C76
:10343000612C712CF02DA30192010E940E212D838D
:103440003E834F8358876D897E898F89988D2DECB7
:103450003CEC4CEC5CEC0E944F210E947C21822EC3
:10346000932EA42EB52EB694A79497948794B694D1
:10347000A794979487948D8A9E8AAF8AB88E69891B
:103480007A898B899C89A30192010E940E21298B44
:103490003A8B4B8B5C8B89819A81AB81BC818D8708
:1034A0009E87AF87B88B8D819E81AF81B8858987D4
:1034B0009A87AB87BC878D899E89AF89B88DAA27EB
:1034C000BB278B8F9C8FAD8FBE8F89899A89AB89E3
:1034D000BC899A8F898F19821A821B821C821D8255
:1034E0001E821F8218861D8A1E8A1F8A188E198ABC
:1034F0001A8A1B8A1C8A80915206823020F48F5FC0
:103500008093520657C066EA74E084ED96E00E940C
:1035100042161092770681E080937606E4EDF6E09D
:10352000878D8863878F46C0E4EDF6E001811281C4
:103530002381348140915A0650915B0660915C066C
:1035400070915D06400F511F621F731F41835283AC
:10355000638374834581568167817085840F951FCD
:10356000A61FB71F85839683A783B0878589968911
:10357000A789B08D2091600630916106820F931F5C
:10358000A11DB11D858B968BA78BB08F4189528968
:103590006389748980915E0690915F06092E000C04
:1035A000AA0BBB0B840F951FA61FB71F818B928B95
:1035B000A38BB48BE4EDF6E0878D8B7F878F8091B2
:1035C000F30684FFD1C08091A504909178069817E6
:1035D00059F08093780685E00E94901986E00E9459
:1035E000901987E00E949019809176069091770655
:1035F000981709F4C8C08093770684E590E00E948C
:10360000A1128091EF069091F006A091F106B09181
:10361000F20684369105A105B10560F084E690E0DC
:10362000A0E0B0E08093EF069093F006A093F1063F
:10363000B093F20604ED16E0F8016585768587857E
:10364000908924E630E040E050E00E94EC20DA016E
:10365000C9014AE06AE476E00E94B321C2E6D6E0FE
:103660008CE0E1E4F5E0DE0101900D928A95E1F74E
:103670006AE476E0CE010E94A121DE010D900020D7
:10368000E9F7119785E0EDE4F5E001900D928A9558
:10369000E1F740E063E2CE010E94C813F801838D98
:1036A000948DA58DB68D4AE06AE476E00E94B32140
:1036B0008CE0E2E5F5E0DE0101900D928A95E1F7FC
:1036C0006AE476E0CE010E94A121FE010190002073
:1036D000E9F7319780E295E29183808380E290E080
:1036E0009383828340E068E2CE010E94C813F80110
:1036F000818D928D4AE06AE476E00E94B3218CE0ED
:10370000EEE5F5E0DE0101900D928A95E1F76AE4BD
:1037100076E0CE010E94A121DE010D900020E9F7A4
:10372000119787E0EAE6F5E001900D928A95E1F7BE
:1037300040E062E3CE010E94C8138CE0E1E7F5E0CF
:10374000DE0101900D928A95E1F760E089E796E04D
:103750000E946509BC01CE010E94A12140E06CE3FA
:10376000CE010E94C8130FC084E590E00E94A11210
:1037700044E162E38DE795E00E94C8131092780659
:1037800081E08093A504DF91CF911F910F91FF906D
:10379000EF90DF90CF90BF90AF909F908F907F90F1
:1037A0006F905F904F900895F894E9E0F7E0908172
:1037B000892390819827908378940895F894E9E07C
:1037C000F7E09281892392819827928378940895D3
:1037D000DF92EF92FF920F931F93CF93DF93CDB7BA
:1037E000DEB72A970FB6F894DEBF0FBECDBF7C01BF
:1037F000D62E1A821982FE01339688E0DF011D92CF
:103800008A95E9F7F7016081718182E696E00E946E
:10381000AC2102E616E0D8010D900020E9F71197DF
:103820008BE0ECE8F5E001900D928A95E1F740E03D
:1038300060E0C8010E94C813D70112966D917C9177
:103840001397C8010E94AC21D8010D900020E9F720
:10385000119789E0E7E9F5E001900D928A95E1F78B
:103860004AE0BE016F5F7F4FF701848195810E941E
:10387000B321BE016F5F7F4FC8010E94A12140E0CC
:103880006D2DC8010E94C813D70112966D917C91CD
:103890001397C8010E94AC21D8010D900020E9F7D0
:1038A000119789E0E0EAF5E001900D928A95E1F741
:1038B0004AE0BE016F5F7F4FF701868197810E94CA
:1038C000B321BE016F5F7F4FC8010E94A1216AE052
:1038D0006D0D40E0C8010E94C81380E02A960FB623
:1038E000F894DEBF0FBECDBFDF91CF911F910F9136
:1038F000FF90EF90DF900895CF93DF938091F306D0
:1039000084FD11C040E06EE189EA95E00E94C81391
:103910002FEF8EE994E2215080409040E1F700C003
:1039200000008FEF16C0CBEFD6E064E18EEA94E0A2
:103930000E94E81B68E286EA94E00E94E81B888106
:10394000811104C08091F40680FFEFCF0E948D1298
:1039500080E0DF91CF910895CF93DF938091F306BC
:1039600084FD11C040E06EE189EA95E00E94C81331
:103970002FEF8EE994E2215080409040E1F700C0A3
:1039800000008FEF16C0CBEFD6E064E18EEB94E041
:103990000E94E81B68E286EB94E00E94E81B8881A5
:1039A000811104C08091F40680FFEFCF0E948D1238
:1039B00080E0DF91CF91089580E090E00E94E821BF
:1039C00091E08A3A09F490E0892F08950E94DC1C66
:1039D000882359F060E070E082E090E00E941A22B3
:1039E0006AEA80E090E00E940D2282E090E00E946E
:1039F000F0219093F6068093F50681E090E00E9416
:103A0000E82180930C070895FC0120813181223048
:103A1000310510F4D99808952330310511F4D99A5D
:103A200008952930310511F4D99808952B303105C6
:103A300011F4D99A0895253F314018F0FC01118204
:103A400010820895D19AD99A0E94E61C0E94240FF0
:103A50000E94061489E996E00E947B0B89E796E0B4
:103A60000E94EA088BE08EBD80E989BF81EE94E078
:103A70009BBD8ABD85B58C6085BD8CE783BD789480
:103A80000E948D12EBEFF6E0118210828CEA9CE02E
:103A90000E94A1120BEF16E00F2EF5EFEF2EF6E0CD
:103AA000FF2EF02DC4EDD6E0F8018181882361F06E
:103AB000118210820E948D1249E050E066EC74E0A1
:103AC00083E794E00E945418F701848195818C3C2F
:103AD000984258F0F701158214828091F4068260B2
:103AE0008093F4068EEA0E9460128091F40681FFB2
:103AF0000DC0F8018081882349F08091F4068D7F04
:103B00008093F40610828FEA0E9460128F8D80FFEE
:103B10000AC08DEF96E00E944C108F8D8E7F8F8FA4
:103B20008F8D82608F8F8F8D81FF12C08CE392E02A
:103B30000E94A112EDEFF6E04081618182810E9436
:103B4000BF1E40E060E00E94C8138F8D8D7F8F8F75
:103B50000E949D19A9CF1F920F920FB60F921124A8
:103B60002F933F934F935F936F937F938F939F9385
:103B7000AF93BF93EF93FF938091470690914806D0
:103B80000196909348068093470687E496E00E944A
:103B9000041DE0EDF6E0808191819C012F5F3F4F95
:103BA00031832083883E934048F01092D1061092D2
:103BB000D0068091F40681608093F40680914606D9
:103BC0008B3020F48F5F8093460607C01092460624
:103BD000E4EDF6E0878D8160878F8091FD069091FE
:103BE0005506891799F180935506E5EFF6E0848133
:103BF000958101969583848380914506863020F4D3
:103C00008F5F8093450607C010924506E4EDF6E00D
:103C1000878D8460878FE5EFF6E0838191E0980FD0
:103C200093838C3398F01382828191E0980F928372
:103C30008C3360F012828081918101969183808320
:103C40006081718182E090E00E940722E9E0F7E064
:103C5000918189B38095282F29279091440692233A
:103C6000892F80958093440690914306922398274C
:103C70009093430682238923918198279183218100
:103C800090818223892B8083818188233CF085E980
:103C900090E0909342068093410612C080914106C5
:103CA0009091420601979093420680934106892B9A
:103CB00039F4E9E0F7E0818192818078892B828371
:103CC00080E80E94DE1B882319F081E08093FC06C7
:103CD00080E80E94D41B882319F081E08093FB06C2
:103CE000FF91EF91BF91AF919F918F917F916F91D4
:103CF0005F914F913F912F910F900FBE0F901F90AA
:103D000018951F920F920FB60F9211242F938F9335
:103D10009F93AF93BF93EF93FF93E6ECF4E0818919
:103D200024E08202C00111248F70818BCE9B03C0DE
:103D300081898260818BCD9B05C0E6ECF4E08189AE
:103D40008160818BA6ECB4E05196EC9151970E2ED8
:103D5000000CFF0BEA53FB4F808150969C915097CB
:103D6000890F50968C93FF91EF91BF91AF919F91E6
:103D70008F912F910F900FBE0F901F901895EDE02F
:103D8000F7E0982F92959F70905D90838F70805D83
:103D900081839AE39283862F82958F70805D8383DF
:103DA0006F70605D64839583842F82958F70805DD2
:103DB00086834F70405D47831086CF0108958F3F03
:103DC00031F4EDE0F7E080E28083818314C0EDE020
:103DD000F7E09DEC899F912D1124969596959695E7
:103DE00020E3290F2083990F292F220F220F920FF2
:103DF000891B805D81838AE380930F076F3F31F4D5
:103E0000EDE0F7E080E28383848314C0EDE0F7E027
:103E10008DEC689F812D112486958695869590E37B
:103E2000980F9383880F982F990F990F890F681B0C
:103E3000605D64838AE3809312074F3F31F4EDE0C5
:103E4000F7E080E28683878314C0EDE0F7E08DEC35
:103E5000489F812D112486958695869590E3980F2D
:103E60009683880F982F990F990F890F481B405DF3
:103E70004783109215078DE097E008955058BB27AF
:103E8000AA270E94561F0C9435200E94272038F044
:103E90000E942E2020F039F49F3F19F426F40C9450
:103EA00024200EF4E095E7FB0C941E20E92F0E94DD
:103EB000462058F3BA17620773078407950720F066
:103EC00079F4A6F50C9468200EF4E0950B2EBA2F29
:103ED000A02D0B01B90190010C01CA01A001112410
:103EE000FF27591B99F0593F50F4503E68F11A16BC
:103EF000F040A22F232F342F4427585FF3CF46954D
:103F000037952795A795F0405395C9F77EF41F166E
:103F1000BA0B620B730B840BBAF09150A1F0FF0F38
:103F2000BB1F661F771F881FC2F70EC0BA0F621F24
:103F3000731F841F48F4879577956795B795F79514
:103F40009E3F08F0B0CF9395880F08F09927EE0FA9
:103F50009795879508950E94B21F6894B1110C94AB
:103F6000692008950E944E2088F09F5798F0B92F3D
:103F70009927B751B0F0E1F0660F771F881F991F9E
:103F80001AF0BA95C9F714C0B13091F00E946820B8
:103F9000B1E008950C946820672F782F8827B85FC8
:103FA00039F0B93FCCF3869577956795B395D9F7F6
:103FB0003EF490958095709561957F4F8F4F9F4F00
:103FC0000895E89409C097FB3EF49095809570950C
:103FD00061957F4F8F4F9F4F9923A9F0F92F96E955
:103FE000BB279395F695879577956795B795F111CA
:103FF000F8CFFAF4BB0F11F460FF1BC06F5F7F4F67
:104000008F4F9F4F16C0882311F096E911C0772378
:1040100021F09EE8872F762F05C0662371F096E881
:10402000862F70E060E02AF09A95660F771F881F50
:10403000DAF7880F9695879597F9089597F99F670E
:1040400080E870E060E008959FEF80EC0895002420
:104050000A941616170618060906089500240A94ED
:1040600012161306140605060895092E0394000C73
:1040700011F4882352F0BB0F40F4BF2B11F460FF02
:1040800004C06F5F7F4F8F4F9F4F089557FD90582B
:10409000440F551F59F05F3F71F04795880F97FB0C
:1040A000991F61F09F3F79F08795089512161306C6
:1040B0001406551FF2CF4695F1DF08C016161706F5
:1040C0001806991FF1CF869571056105089408952A
:1040D000E894BB2766277727CB0197F908950E94BC
:1040E00082200C9435200E94272038F00E942E2038
:1040F00020F0952311F00C941E200C942420112400
:104100000C9469200E94462070F3959FC1F3950F8F
:1041100050E0551F629FF001729FBB27F00DB11D4B
:10412000639FAA27F00DB11DAA1F649F6627B00DDB
:10413000A11D661F829F2227B00DA11D621F739FC4
:10414000B00DA11D621F839FA00D611D221F749FD2
:104150003327A00D611D231F849F600D211D822F19
:10416000762F6A2F11249F5750409AF0F1F0882340
:104170004AF0EE0FFF1FBB1F661F771F881F91506D
:104180005040A9F79E3F510580F00C941E200C94DE
:1041900069205F3FE4F3983ED4F386957795679561
:1041A000B795F795E7959F5FC1F7FE2B880F911D97
:1041B0009695879597F90895DB018F939F930E94B9
:1041C0003C21BF91AF91A29F800D911DA39F900DA7
:1041D000B29F900D11240895A1E21A2EAA1BBB1BB9
:1041E000FD010DC0AA1FBB1FEE1FFF1FA217B307C3
:1041F000E407F50720F0A21BB30BE40BF50B661FD9
:10420000771F881F991F1A9469F76095709580959C
:1042100090959B01AC01BD01CF010895052E97FB40
:104220001EF400940E94252157FD07D00E94EC2027
:1042300007FC03D04EF40C94252150954095309501
:1042400021953F4F4F4F5F4F089590958095709502
:1042500061957F4F8F4F9F4F0895A29FB001B39FED
:10426000C001A39F700D811D1124911DB29F700D7F
:10427000811D1124911D08950E942D21A59F900D4F
:10428000B49F900DA49F800D911D11240895B7FF38
:104290000C943C210E943C21821B930B0895E894CE
:1042A000DF93CF93FC01DB010E942D217F936F935D
:1042B000E9019A01AC01BF93AF933F932F93DF01C4
:1042C0000E942D2126F46C1B7D0B820B930B9E010B
:1042D000EB01FC010E949821AF91BF912F913F917A
:1042E0000E949821BE01CF01F9012F913F91CF91FA
:1042F000DF91089597FB10F8169400080F9308308B
:1043000098F00850232F342F452F562F672F782FE2
:10431000892F902DF4CF059497958795779567957C
:1043200057954795379527950A95AAF70F910895C0
:104330000E942D21460F571FC81FD91F08F4319620
:104340000895FB01DC010D900020E9F71197019021
:104350000D920020E1F70895FB01DC0101900D9220
:104360000020E1F70895BB274A3031F4992322F465
:10437000BDE2909581959F4F0C94BF21BB27FB0117
:104380005527AA27880F991FAA1FA41710F0A41B4E
:1043900083955051B9F7A05DAA3308F0A95DA193A8
:1043A000009779F7B111B1931192CB010C94D821F8
:1043B000DC01FC01672F71917723E1F7329704C08C
:1043C0007C916D9370836291AE17BF07C8F3089517
:1043D000E199FECF9FBB8EBBE09A99278DB30895DC
:1043E000A8E1B0E042E050E00C942122262FE199B0
:1043F000FECF9FBB8EBBE09A01970DB2021631F043
:104400002DBB0FB6F894E29AE19A0FBE089501967B
:10441000272F0E94F7210C94F621262FE199FECF39
:104420009FBB8EBB2DBB0FB6F894E29AE19A0FBEEC
:10443000019608950E940D22272F0C940E22DC0174
:10444000CB01FC01E199FECF06C0FFBBEEBBE09AB9
:1044500031960DB20D9241505040B8F70895F8943E
:02446000FFCF8C
:10446200303030303030303030303030303030304A
:104472003030303078464600000000000000000076
:10448200000000000000000000000000000000002A
:10449200000000000000000000000000000000001A
:1044A200000000000000000000000000000000000A
:1044B20000000000000000000000000000000000FA
:10487200000000C705000000D6054E1800FE057CAA
:104882001C001406AC1C00DE05811500E605781438
:1048920000EF05211400FE043B1400F8051B14FF71
:1048A200183B3B000001FD0505060180FF7FFD0569
:1048B2000B060180FF7F130605060180FF7F1306AA
:1048C2001A060180FF7F00000000000000000100C6
:1048D200000000FF00000000AE2000B0C800104041
:1048E20081FFA1A6A83FA4D300D5F0D900DA12DB3C
:1048F200208D04AF5265626F6F742E2E002D4572AB
:10490200726F72287329002D426574726965627331
:104912007374756E64656E005A6165686C657220A9
:1049220067656C6F657363687421002D5568727AD0
:10493200656974207374656C6C656E2E2E002D3E55
:10494200004C756674647275636B3A20002068705F
:1049520061004C7566746665752E203A20005465B8
:104962006D702E5B315D203A20002043656C2E2055
:10497200004572726F72287329203A2000536361D6
:104982006E6E696E67206E6F772E2E00205B6D61F2
:10499200782F6D696E5D005B6D61785D2E3A200047
:1049A2005B6D696E5D2E3A2000506C656173652007
:1049B200747279206C617465722E2E00427974656E
:1049C2005B005D202D20002D45696E7374656C6C53
:1049D200756E67656E005568727A65697400486520
:1049E2006C6C69672E00426574726965622E004EB6
:1049F200657573746172740045786974002D424D57
:104A0200503138300054656D702E004C75667464F8
:104A1200722E002D53485432310046657563682E5C
:024A2200000092
:00000001FF
